{
	"compilerInput": "{\"language\":\"Solidity\",\"sources\":{\"stake.sol\":{\"content\":\"// SPDX-License-Identifier: MIT\\npragma solidity ^0.8.20;\\n\\ninterface IERC20 {\\n    function transferFrom(address sender, address recipient, uint256 amount) external returns (bool);\\n    function transfer(address recipient, uint256 amount) external returns (bool);\\n    function balanceOf(address account) external view returns (uint256);\\n}\\n\\n/**\\n * @title SimpleStaking\\n * @dev A contract with tokenB staking and tokenA/tokenB swap functionality\\n */\\ncontract SimpleStaking {\\n    // Token addresses\\n    address public tokenA;\\n    address public tokenB;\\n    \\n    // Mapping to track each user's staked tokenB balance\\n    mapping(address => uint256) public stakedBalance;\\n    \\n    // Mapping to track each user's deposited tokenB balance (for swap liquidity)\\n    mapping(address => uint256) public depositedBalance;\\n    \\n    // Total amount of tokenB staked\\n    uint256 public totalStaked;\\n    \\n    // Total amount of tokenB deposited for swaps\\n    uint256 public totalDeposited;\\n    \\n    // Events\\n    event Staked(address indexed user, uint256 amount);\\n    event Withdrawn(address indexed user, uint256 amount);\\n    event Deposited(address indexed user, uint256 amount);\\n    event Swapped(address indexed user, uint256 amountIn, uint256 amountOut);\\n    \\n    /**\\n     * @dev Constructor to set token addresses\\n     * @param _tokenA Address of token A\\n     * @param _tokenB Address of token B\\n     */\\n    constructor(address _tokenA, address _tokenB) {\\n        require(_tokenA != address(0), \\\"Invalid tokenA address\\\");\\n        require(_tokenB != address(0), \\\"Invalid tokenB address\\\");\\n        tokenA = _tokenA;\\n        tokenB = _tokenB;\\n    }\\n    \\n    /**\\n     * @dev Deposit tokenB into the contract to provide swap liquidity\\n     * @param amount The amount of tokenB to deposit\\n     */\\n    function deposit(uint256 amount) external {\\n        require(amount > 0, \\\"Must deposit more than 0\\\");\\n        \\n        // Transfer tokenB from user to contract\\n        require(\\n            IERC20(tokenB).transferFrom(msg.sender, address(this), amount),\\n            \\\"TokenB transfer failed\\\"\\n        );\\n        \\n        depositedBalance[msg.sender] += amount;\\n        totalDeposited += amount;\\n        \\n        emit Deposited(msg.sender, amount);\\n    }\\n    \\n    /**\\n     * @dev Stake tokenB into the contract\\n     * @param amount The amount of tokenB to stake\\n     */\\n    function stake(uint256 amount) external {\\n        require(amount > 0, \\\"Must stake more than 0\\\");\\n        \\n        // Transfer tokenB from user to contract\\n        require(\\n            IERC20(tokenB).transferFrom(msg.sender, address(this), amount),\\n            \\\"TokenB transfer failed\\\"\\n        );\\n        \\n        stakedBalance[msg.sender] += amount;\\n        totalStaked += amount;\\n        \\n        emit Staked(msg.sender, amount);\\n    }\\n    \\n    /**\\n     * @dev Withdraw staked tokenB\\n     * @param amount The amount to withdraw\\n     */\\n    function withdraw(uint256 amount) external {\\n        require(amount > 0, \\\"Must withdraw more than 0\\\");\\n        require(stakedBalance[msg.sender] >= amount, \\\"Insufficient staked balance\\\");\\n        \\n        stakedBalance[msg.sender] -= amount;\\n        totalStaked -= amount;\\n        \\n        // Transfer tokenB from contract back to user\\n        require(\\n            IERC20(tokenB).transfer(msg.sender, amount),\\n            \\\"TokenB transfer failed\\\"\\n        );\\n        \\n        emit Withdrawn(msg.sender, amount);\\n    }\\n    \\n    /**\\n     * @dev Swap tokenA for tokenB (1:1 ratio)\\n     * User sends tokenA and receives tokenB from deposited liquidity\\n     * @param amount The amount of tokens to swap\\n     */\\n    function swap(uint256 amount) external {\\n        require(amount > 0, \\\"Must swap more than 0\\\");\\n        \\n        // Check contract has enough tokenB in deposited pool\\n        require(totalDeposited >= amount, \\\"Insufficient tokenB liquidity\\\");\\n        \\n        // Transfer tokenA from user to contract\\n        require(\\n            IERC20(tokenA).transferFrom(msg.sender, address(this), amount),\\n            \\\"TokenA transfer failed\\\"\\n        );\\n        \\n        // Transfer tokenB from contract to user\\n        require(\\n            IERC20(tokenB).transfer(msg.sender, amount),\\n            \\\"TokenB transfer failed\\\"\\n        );\\n        \\n        // Reduce total deposited since tokenB was sent out\\n        totalDeposited -= amount;\\n        \\n        emit Swapped(msg.sender, amount, amount);\\n    }\\n    \\n    /**\\n     * @dev Get the staked balance of a user\\n     * @param user The address to check\\n     * @return The staked tokenB balance\\n     */\\n    function getStakedBalance(address user) external view returns (uint256) {\\n        return stakedBalance[user];\\n    }\\n    \\n    /**\\n     * @dev Get the deposited balance of a user\\n     * @param user The address to check\\n     * @return The deposited tokenB balance\\n     */\\n    function getDepositedBalance(address user) external view returns (uint256) {\\n        return depositedBalance[user];\\n    }\\n    \\n    /**\\n     * @dev Get the contract's token balance\\n     * @param token The token address to check\\n     * @return The token balance\\n     */\\n    function getTokenBalance(address token) external view returns (uint256) {\\n        return IERC20(token).balanceOf(address(this));\\n    }\\n}\"}},\"settings\":{\"optimizer\":{\"enabled\":false,\"runs\":200},\"outputSelection\":{\"*\":{\"\":[\"ast\"],\"*\":[\"abi\",\"metadata\",\"devdoc\",\"userdoc\",\"storageLayout\",\"evm.legacyAssembly\",\"evm.bytecode\",\"evm.deployedBytecode\",\"evm.methodIdentifiers\",\"evm.gasEstimates\",\"evm.assembly\"]}},\"remappings\":[]}}",
	"name": "SimpleStaking",
	"bytecode": {
		"linkReferences": {},
		"object": "608060405234801561000f575f5ffd5b5060405161167a38038061167a833981810160405281019061003191906101f1565b5f73ffffffffffffffffffffffffffffffffffffffff168273ffffffffffffffffffffffffffffffffffffffff160361009f576040517f08c379a000000000000000000000000000000000000000000000000000000000815260040161009690610289565b60405180910390fd5b5f73ffffffffffffffffffffffffffffffffffffffff168173ffffffffffffffffffffffffffffffffffffffff160361010d576040517f08c379a0000000000000000000000000000000000000000000000000000000008152600401610104906102f1565b60405180910390fd5b815f5f6101000a81548173ffffffffffffffffffffffffffffffffffffffff021916908373ffffffffffffffffffffffffffffffffffffffff1602179055508060015f6101000a81548173ffffffffffffffffffffffffffffffffffffffff021916908373ffffffffffffffffffffffffffffffffffffffff160217905550505061030f565b5f5ffd5b5f73ffffffffffffffffffffffffffffffffffffffff82169050919050565b5f6101c082610197565b9050919050565b6101d0816101b6565b81146101da575f5ffd5b50565b5f815190506101eb816101c7565b92915050565b5f5f6040838503121561020757610206610193565b5b5f610214858286016101dd565b9250506020610225858286016101dd565b9150509250929050565b5f82825260208201905092915050565b7f496e76616c696420746f6b656e412061646472657373000000000000000000005f82015250565b5f61027360168361022f565b915061027e8261023f565b602082019050919050565b5f6020820190508181035f8301526102a081610267565b9050919050565b7f496e76616c696420746f6b656e422061646472657373000000000000000000005f82015250565b5f6102db60168361022f565b91506102e6826102a7565b602082019050919050565b5f6020820190508181035f830152610308816102cf565b9050919050565b61135e8061031c5f395ff3fe608060405234801561000f575f5ffd5b50600436106100cd575f3560e01c8063602172671161008a578063a694fc3a11610064578063a694fc3a14610223578063b6b55f251461023f578063cfe69a051461025b578063ff50abdc1461028b576100cd565b806360217267146101b9578063817b1cd2146101e957806394b918de14610207576100cd565b80630fc63d10146100d15780632a973daf146100ef5780632e1a7d4d1461011f5780633a02a42d1461013b5780633aecd0e31461016b5780635f64b55b1461019b575b5f5ffd5b6100d96102a9565b6040516100e69190610d2b565b60405180910390f35b61010960048036038101906101049190610d72565b6102cd565b6040516101169190610db5565b60405180910390f35b61013960048036038101906101349190610df8565b610313565b005b61015560048036038101906101509190610d72565b61056c565b6040516101629190610db5565b60405180910390f35b61018560048036038101906101809190610d72565b6105b2565b6040516101929190610db5565b60405180910390f35b6101a3610632565b6040516101b09190610d2b565b60405180910390f35b6101d360048036038101906101ce9190610d72565b610657565b6040516101e09190610db5565b60405180910390f35b6101f161066c565b6040516101fe9190610db5565b60405180910390f35b610221600480360381019061021c9190610df8565b610672565b005b61023d60048036038101906102389190610df8565b61091b565b005b61025960048036038101906102549190610df8565b610af6565b005b61027560048036038101906102709190610d72565b610cd1565b6040516102829190610db5565b60405180910390f35b610293610ce6565b6040516102a09190610db5565b60405180910390f35b5f5f9054906101000a900473ffffffffffffffffffffffffffffffffffffffff1681565b5f60035f8373ffffffffffffffffffffffffffffffffffffffff1673ffffffffffffffffffffffffffffffffffffffff1681526020019081526020015f20549050919050565b5f8111610355576040517f08c379a000000000000000000000000000000000000000000000000000000000815260040161034c90610e7d565b60405180910390fd5b8060025f3373ffffffffffffffffffffffffffffffffffffffff1673ffffffffffffffffffffffffffffffffffffffff1681526020019081526020015f205410156103d5576040517f08c379a00000000000000000000000000000000000000000000000000000000081526004016103cc90610ee5565b60405180910390fd5b8060025f3373ffffffffffffffffffffffffffffffffffffffff1673ffffffffffffffffffffffffffffffffffffffff1681526020019081526020015f205f8282546104219190610f30565b925050819055508060045f8282546104399190610f30565b9250508190555060015f9054906101000a900473ffffffffffffffffffffffffffffffffffffffff1673ffffffffffffffffffffffffffffffffffffffff1663a9059cbb33836040518363ffffffff1660e01b815260040161049c929190610f63565b6020604051808303815f875af11580156104b8573d5f5f3e3d5ffd5b505050506040513d601f19601f820116820180604052508101906104dc9190610fbf565b61051b576040517f08c379a000000000000000000000000000000000000000000000000000000000815260040161051290611034565b60405180910390fd5b3373ffffffffffffffffffffffffffffffffffffffff167f7084f5476618d8e60b11ef0d7d3f06914655adb8793e28ff7f018d4c76d505d5826040516105619190610db5565b60405180910390a250565b5f60025f8373ffffffffffffffffffffffffffffffffffffffff1673ffffffffffffffffffffffffffffffffffffffff1681526020019081526020015f20549050919050565b5f8173ffffffffffffffffffffffffffffffffffffffff166370a08231306040518263ffffffff1660e01b81526004016105ec9190610d2b565b602060405180830381865afa158015610607573d5f5f3e3d5ffd5b505050506040513d601f19601f8201168201806040525081019061062b9190611066565b9050919050565b60015f9054906101000a900473ffffffffffffffffffffffffffffffffffffffff1681565b6002602052805f5260405f205f915090505481565b60045481565b5f81116106b4576040517f08c379a00000000000000000000000000000000000000000000000000000000081526004016106ab906110db565b60405180910390fd5b8060055410156106f9576040517f08c379a00000000000000000000000000000000000000000000000000000000081526004016106f090611143565b60405180910390fd5b5f5f9054906101000a900473ffffffffffffffffffffffffffffffffffffffff1673ffffffffffffffffffffffffffffffffffffffff166323b872dd3330846040518463ffffffff1660e01b815260040161075693929190611161565b6020604051808303815f875af1158015610772573d5f5f3e3d5ffd5b505050506040513d601f19601f820116820180604052508101906107969190610fbf565b6107d5576040517f08c379a00000000000000000000000000000000000000000000000000000000081526004016107cc906111e0565b60405180910390fd5b60015f9054906101000a900473ffffffffffffffffffffffffffffffffffffffff1673ffffffffffffffffffffffffffffffffffffffff1663a9059cbb33836040518363ffffffff1660e01b8152600401610831929190610f63565b6020604051808303815f875af115801561084d573d5f5f3e3d5ffd5b505050506040513d601f19601f820116820180604052508101906108719190610fbf565b6108b0576040517f08c379a00000000000000000000000000000000000000000000000000000000081526004016108a790611034565b60405180910390fd5b8060055f8282546108c19190610f30565b925050819055503373ffffffffffffffffffffffffffffffffffffffff167f3a9a9f34f5831e9c8ecb66ab3aa308b2ff31eaca434615f6c9cadc656a9af71c82836040516109109291906111fe565b60405180910390a250565b5f811161095d576040517f08c379a00000000000000000000000000000000000000000000000000000000081526004016109549061126f565b60405180910390fd5b60015f9054906101000a900473ffffffffffffffffffffffffffffffffffffffff1673ffffffffffffffffffffffffffffffffffffffff166323b872dd3330846040518463ffffffff1660e01b81526004016109bb93929190611161565b6020604051808303815f875af11580156109d7573d5f5f3e3d5ffd5b505050506040513d601f19601f820116820180604052508101906109fb9190610fbf565b610a3a576040517f08c379a0000000000000000000000000000000000000000000000000000000008152600401610a3190611034565b60405180910390fd5b8060025f3373ffffffffffffffffffffffffffffffffffffffff1673ffffffffffffffffffffffffffffffffffffffff1681526020019081526020015f205f828254610a86919061128d565b925050819055508060045f828254610a9e919061128d565b925050819055503373ffffffffffffffffffffffffffffffffffffffff167f9e71bc8eea02a63969f509818f2dafb9254532904319f9dbda79b67bd34a5f3d82604051610aeb9190610db5565b60405180910390a250565b5f8111610b38576040517f08c379a0000000000000000000000000000000000000000000000000000000008152600401610b2f9061130a565b60405180910390fd5b60015f9054906101000a900473ffffffffffffffffffffffffffffffffffffffff1673ffffffffffffffffffffffffffffffffffffffff166323b872dd3330846040518463ffffffff1660e01b8152600401610b9693929190611161565b6020604051808303815f875af1158015610bb2573d5f5f3e3d5ffd5b505050506040513d601f19601f82011682018060405250810190610bd69190610fbf565b610c15576040517f08c379a0000000000000000000000000000000000000000000000000000000008152600401610c0c90611034565b60405180910390fd5b8060035f3373ffffffffffffffffffffffffffffffffffffffff1673ffffffffffffffffffffffffffffffffffffffff1681526020019081526020015f205f828254610c61919061128d565b925050819055508060055f828254610c79919061128d565b925050819055503373ffffffffffffffffffffffffffffffffffffffff167f2da466a7b24304f47e87fa2e1e5a81b9831ce54fec19055ce277ca2f39ba42c482604051610cc69190610db5565b60405180910390a250565b6003602052805f5260405f205f915090505481565b60055481565b5f73ffffffffffffffffffffffffffffffffffffffff82169050919050565b5f610d1582610cec565b9050919050565b610d2581610d0b565b82525050565b5f602082019050610d3e5f830184610d1c565b92915050565b5f5ffd5b610d5181610d0b565b8114610d5b575f5ffd5b50565b5f81359050610d6c81610d48565b92915050565b5f60208284031215610d8757610d86610d44565b5b5f610d9484828501610d5e565b91505092915050565b5f819050919050565b610daf81610d9d565b82525050565b5f602082019050610dc85f830184610da6565b92915050565b610dd781610d9d565b8114610de1575f5ffd5b50565b5f81359050610df281610dce565b92915050565b5f60208284031215610e0d57610e0c610d44565b5b5f610e1a84828501610de4565b91505092915050565b5f82825260208201905092915050565b7f4d757374207769746864726177206d6f7265207468616e2030000000000000005f82015250565b5f610e67601983610e23565b9150610e7282610e33565b602082019050919050565b5f6020820190508181035f830152610e9481610e5b565b9050919050565b7f496e73756666696369656e74207374616b65642062616c616e636500000000005f82015250565b5f610ecf601b83610e23565b9150610eda82610e9b565b602082019050919050565b5f6020820190508181035f830152610efc81610ec3565b9050919050565b7f4e487b71000000000000000000000000000000000000000000000000000000005f52601160045260245ffd5b5f610f3a82610d9d565b9150610f4583610d9d565b9250828203905081811115610f5d57610f5c610f03565b5b92915050565b5f604082019050610f765f830185610d1c565b610f836020830184610da6565b9392505050565b5f8115159050919050565b610f9e81610f8a565b8114610fa8575f5ffd5b50565b5f81519050610fb981610f95565b92915050565b5f60208284031215610fd457610fd3610d44565b5b5f610fe184828501610fab565b91505092915050565b7f546f6b656e42207472616e73666572206661696c6564000000000000000000005f82015250565b5f61101e601683610e23565b915061102982610fea565b602082019050919050565b5f6020820190508181035f83015261104b81611012565b9050919050565b5f8151905061106081610dce565b92915050565b5f6020828403121561107b5761107a610d44565b5b5f61108884828501611052565b91505092915050565b7f4d7573742073776170206d6f7265207468616e203000000000000000000000005f82015250565b5f6110c5601583610e23565b91506110d082611091565b602082019050919050565b5f6020820190508181035f8301526110f2816110b9565b9050919050565b7f496e73756666696369656e7420746f6b656e42206c69717569646974790000005f82015250565b5f61112d601d83610e23565b9150611138826110f9565b602082019050919050565b5f6020820190508181035f83015261115a81611121565b9050919050565b5f6060820190506111745f830186610d1c565b6111816020830185610d1c565b61118e6040830184610da6565b949350505050565b7f546f6b656e41207472616e73666572206661696c6564000000000000000000005f82015250565b5f6111ca601683610e23565b91506111d582611196565b602082019050919050565b5f6020820190508181035f8301526111f7816111be565b9050919050565b5f6040820190506112115f830185610da6565b61121e6020830184610da6565b9392505050565b7f4d757374207374616b65206d6f7265207468616e2030000000000000000000005f82015250565b5f611259601683610e23565b915061126482611225565b602082019050919050565b5f6020820190508181035f8301526112868161124d565b9050919050565b5f61129782610d9d565b91506112a283610d9d565b92508282019050808211156112ba576112b9610f03565b5b92915050565b7f4d757374206465706f736974206d6f7265207468616e203000000000000000005f82015250565b5f6112f4601883610e23565b91506112ff826112c0565b602082019050919050565b5f6020820190508181035f830152611321816112e8565b905091905056fea26469706673582212206090dd2d841aaaf3095baf2986ec13c0e82627e8ecc82bc6986f9ad9d257561a64736f6c634300081e0033",
		"opcodes": "PUSH1 0x80 PUSH1 0x40 MSTORE CALLVALUE DUP1 ISZERO PUSH2 0xF JUMPI PUSH0 PUSH0 REVERT JUMPDEST POP PUSH1 0x40 MLOAD PUSH2 0x167A CODESIZE SUB DUP1 PUSH2 0x167A DUP4 CODECOPY DUP2 DUP2 ADD PUSH1 0x40 MSTORE DUP2 ADD SWAP1 PUSH2 0x31 SWAP2 SWAP1 PUSH2 0x1F1 JUMP JUMPDEST PUSH0 PUSH20 0xFFFFFFFFFFFFFFFFFFFFFFFFFFFFFFFFFFFFFFFF AND DUP3 PUSH20 0xFFFFFFFFFFFFFFFFFFFFFFFFFFFFFFFFFFFFFFFF AND SUB PUSH2 0x9F JUMPI PUSH1 0x40 MLOAD PUSH32 0x8C379A000000000000000000000000000000000000000000000000000000000 DUP2 MSTORE PUSH1 0x4 ADD PUSH2 0x96 SWAP1 PUSH2 0x289 JUMP JUMPDEST PUSH1 0x40 MLOAD DUP1 SWAP2 SUB SWAP1 REVERT JUMPDEST PUSH0 PUSH20 0xFFFFFFFFFFFFFFFFFFFFFFFFFFFFFFFFFFFFFFFF AND DUP2 PUSH20 0xFFFFFFFFFFFFFFFFFFFFFFFFFFFFFFFFFFFFFFFF AND SUB PUSH2 0x10D JUMPI PUSH1 0x40 MLOAD PUSH32 0x8C379A000000000000000000000000000000000000000000000000000000000 DUP2 MSTORE PUSH1 0x4 ADD PUSH2 0x104 SWAP1 PUSH2 0x2F1 JUMP JUMPDEST PUSH1 0x40 MLOAD DUP1 SWAP2 SUB SWAP1 REVERT JUMPDEST DUP2 PUSH0 PUSH0 PUSH2 0x100 EXP DUP2 SLOAD DUP2 PUSH20 0xFFFFFFFFFFFFFFFFFFFFFFFFFFFFFFFFFFFFFFFF MUL NOT AND SWAP1 DUP4 PUSH20 0xFFFFFFFFFFFFFFFFFFFFFFFFFFFFFFFFFFFFFFFF AND MUL OR SWAP1 SSTORE POP DUP1 PUSH1 0x1 PUSH0 PUSH2 0x100 EXP DUP2 SLOAD DUP2 PUSH20 0xFFFFFFFFFFFFFFFFFFFFFFFFFFFFFFFFFFFFFFFF MUL NOT AND SWAP1 DUP4 PUSH20 0xFFFFFFFFFFFFFFFFFFFFFFFFFFFFFFFFFFFFFFFF AND MUL OR SWAP1 SSTORE POP POP POP PUSH2 0x30F JUMP JUMPDEST PUSH0 PUSH0 REVERT JUMPDEST PUSH0 PUSH20 0xFFFFFFFFFFFFFFFFFFFFFFFFFFFFFFFFFFFFFFFF DUP3 AND SWAP1 POP SWAP2 SWAP1 POP JUMP JUMPDEST PUSH0 PUSH2 0x1C0 DUP3 PUSH2 0x197 JUMP JUMPDEST SWAP1 POP SWAP2 SWAP1 POP JUMP JUMPDEST PUSH2 0x1D0 DUP2 PUSH2 0x1B6 JUMP JUMPDEST DUP2 EQ PUSH2 0x1DA JUMPI PUSH0 PUSH0 REVERT JUMPDEST POP JUMP JUMPDEST PUSH0 DUP2 MLOAD SWAP1 POP PUSH2 0x1EB DUP2 PUSH2 0x1C7 JUMP JUMPDEST SWAP3 SWAP2 POP POP JUMP JUMPDEST PUSH0 PUSH0 PUSH1 0x40 DUP4 DUP6 SUB SLT ISZERO PUSH2 0x207 JUMPI PUSH2 0x206 PUSH2 0x193 JUMP JUMPDEST JUMPDEST PUSH0 PUSH2 0x214 DUP6 DUP3 DUP7 ADD PUSH2 0x1DD JUMP JUMPDEST SWAP3 POP POP PUSH1 0x20 PUSH2 0x225 DUP6 DUP3 DUP7 ADD PUSH2 0x1DD JUMP JUMPDEST SWAP2 POP POP SWAP3 POP SWAP3 SWAP1 POP JUMP JUMPDEST PUSH0 DUP3 DUP3 MSTORE PUSH1 0x20 DUP3 ADD SWAP1 POP SWAP3 SWAP2 POP POP JUMP JUMPDEST PUSH32 0x496E76616C696420746F6B656E41206164647265737300000000000000000000 PUSH0 DUP3 ADD MSTORE POP JUMP JUMPDEST PUSH0 PUSH2 0x273 PUSH1 0x16 DUP4 PUSH2 0x22F JUMP JUMPDEST SWAP2 POP PUSH2 0x27E DUP3 PUSH2 0x23F JUMP JUMPDEST PUSH1 0x20 DUP3 ADD SWAP1 POP SWAP2 SWAP1 POP JUMP JUMPDEST PUSH0 PUSH1 0x20 DUP3 ADD SWAP1 POP DUP2 DUP2 SUB PUSH0 DUP4 ADD MSTORE PUSH2 0x2A0 DUP2 PUSH2 0x267 JUMP JUMPDEST SWAP1 POP SWAP2 SWAP1 POP JUMP JUMPDEST PUSH32 0x496E76616C696420746F6B656E42206164647265737300000000000000000000 PUSH0 DUP3 ADD MSTORE POP JUMP JUMPDEST PUSH0 PUSH2 0x2DB PUSH1 0x16 DUP4 PUSH2 0x22F JUMP JUMPDEST SWAP2 POP PUSH2 0x2E6 DUP3 PUSH2 0x2A7 JUMP JUMPDEST PUSH1 0x20 DUP3 ADD SWAP1 POP SWAP2 SWAP1 POP JUMP JUMPDEST PUSH0 PUSH1 0x20 DUP3 ADD SWAP1 POP DUP2 DUP2 SUB PUSH0 DUP4 ADD MSTORE PUSH2 0x308 DUP2 PUSH2 0x2CF JUMP JUMPDEST SWAP1 POP SWAP2 SWAP1 POP JUMP JUMPDEST PUSH2 0x135E DUP1 PUSH2 0x31C PUSH0 CODECOPY PUSH0 RETURN INVALID PUSH1 0x80 PUSH1 0x40 MSTORE CALLVALUE DUP1 ISZERO PUSH2 0xF JUMPI PUSH0 PUSH0 REVERT JUMPDEST POP PUSH1 0x4 CALLDATASIZE LT PUSH2 0xCD JUMPI PUSH0 CALLDATALOAD PUSH1 0xE0 SHR DUP1 PUSH4 0x60217267 GT PUSH2 0x8A JUMPI DUP1 PUSH4 0xA694FC3A GT PUSH2 0x64 JUMPI DUP1 PUSH4 0xA694FC3A EQ PUSH2 0x223 JUMPI DUP1 PUSH4 0xB6B55F25 EQ PUSH2 0x23F JUMPI DUP1 PUSH4 0xCFE69A05 EQ PUSH2 0x25B JUMPI DUP1 PUSH4 0xFF50ABDC EQ PUSH2 0x28B JUMPI PUSH2 0xCD JUMP JUMPDEST DUP1 PUSH4 0x60217267 EQ PUSH2 0x1B9 JUMPI DUP1 PUSH4 0x817B1CD2 EQ PUSH2 0x1E9 JUMPI DUP1 PUSH4 0x94B918DE EQ PUSH2 0x207 JUMPI PUSH2 0xCD JUMP JUMPDEST DUP1 PUSH4 0xFC63D10 EQ PUSH2 0xD1 JUMPI DUP1 PUSH4 0x2A973DAF EQ PUSH2 0xEF JUMPI DUP1 PUSH4 0x2E1A7D4D EQ PUSH2 0x11F JUMPI DUP1 PUSH4 0x3A02A42D EQ PUSH2 0x13B JUMPI DUP1 PUSH4 0x3AECD0E3 EQ PUSH2 0x16B JUMPI DUP1 PUSH4 0x5F64B55B EQ PUSH2 0x19B JUMPI JUMPDEST PUSH0 PUSH0 REVERT JUMPDEST PUSH2 0xD9 PUSH2 0x2A9 JUMP JUMPDEST PUSH1 0x40 MLOAD PUSH2 0xE6 SWAP2 SWAP1 PUSH2 0xD2B JUMP JUMPDEST PUSH1 0x40 MLOAD DUP1 SWAP2 SUB SWAP1 RETURN JUMPDEST PUSH2 0x109 PUSH1 0x4 DUP1 CALLDATASIZE SUB DUP2 ADD SWAP1 PUSH2 0x104 SWAP2 SWAP1 PUSH2 0xD72 JUMP JUMPDEST PUSH2 0x2CD JUMP JUMPDEST PUSH1 0x40 MLOAD PUSH2 0x116 SWAP2 SWAP1 PUSH2 0xDB5 JUMP JUMPDEST PUSH1 0x40 MLOAD DUP1 SWAP2 SUB SWAP1 RETURN JUMPDEST PUSH2 0x139 PUSH1 0x4 DUP1 CALLDATASIZE SUB DUP2 ADD SWAP1 PUSH2 0x134 SWAP2 SWAP1 PUSH2 0xDF8 JUMP JUMPDEST PUSH2 0x313 JUMP JUMPDEST STOP JUMPDEST PUSH2 0x155 PUSH1 0x4 DUP1 CALLDATASIZE SUB DUP2 ADD SWAP1 PUSH2 0x150 SWAP2 SWAP1 PUSH2 0xD72 JUMP JUMPDEST PUSH2 0x56C JUMP JUMPDEST PUSH1 0x40 MLOAD PUSH2 0x162 SWAP2 SWAP1 PUSH2 0xDB5 JUMP JUMPDEST PUSH1 0x40 MLOAD DUP1 SWAP2 SUB SWAP1 RETURN JUMPDEST PUSH2 0x185 PUSH1 0x4 DUP1 CALLDATASIZE SUB DUP2 ADD SWAP1 PUSH2 0x180 SWAP2 SWAP1 PUSH2 0xD72 JUMP JUMPDEST PUSH2 0x5B2 JUMP JUMPDEST PUSH1 0x40 MLOAD PUSH2 0x192 SWAP2 SWAP1 PUSH2 0xDB5 JUMP JUMPDEST PUSH1 0x40 MLOAD DUP1 SWAP2 SUB SWAP1 RETURN JUMPDEST PUSH2 0x1A3 PUSH2 0x632 JUMP JUMPDEST PUSH1 0x40 MLOAD PUSH2 0x1B0 SWAP2 SWAP1 PUSH2 0xD2B JUMP JUMPDEST PUSH1 0x40 MLOAD DUP1 SWAP2 SUB SWAP1 RETURN JUMPDEST PUSH2 0x1D3 PUSH1 0x4 DUP1 CALLDATASIZE SUB DUP2 ADD SWAP1 PUSH2 0x1CE SWAP2 SWAP1 PUSH2 0xD72 JUMP JUMPDEST PUSH2 0x657 JUMP JUMPDEST PUSH1 0x40 MLOAD PUSH2 0x1E0 SWAP2 SWAP1 PUSH2 0xDB5 JUMP JUMPDEST PUSH1 0x40 MLOAD DUP1 SWAP2 SUB SWAP1 RETURN JUMPDEST PUSH2 0x1F1 PUSH2 0x66C JUMP JUMPDEST PUSH1 0x40 MLOAD PUSH2 0x1FE SWAP2 SWAP1 PUSH2 0xDB5 JUMP JUMPDEST PUSH1 0x40 MLOAD DUP1 SWAP2 SUB SWAP1 RETURN JUMPDEST PUSH2 0x221 PUSH1 0x4 DUP1 CALLDATASIZE SUB DUP2 ADD SWAP1 PUSH2 0x21C SWAP2 SWAP1 PUSH2 0xDF8 JUMP JUMPDEST PUSH2 0x672 JUMP JUMPDEST STOP JUMPDEST PUSH2 0x23D PUSH1 0x4 DUP1 CALLDATASIZE SUB DUP2 ADD SWAP1 PUSH2 0x238 SWAP2 SWAP1 PUSH2 0xDF8 JUMP JUMPDEST PUSH2 0x91B JUMP JUMPDEST STOP JUMPDEST PUSH2 0x259 PUSH1 0x4 DUP1 CALLDATASIZE SUB DUP2 ADD SWAP1 PUSH2 0x254 SWAP2 SWAP1 PUSH2 0xDF8 JUMP JUMPDEST PUSH2 0xAF6 JUMP JUMPDEST STOP JUMPDEST PUSH2 0x275 PUSH1 0x4 DUP1 CALLDATASIZE SUB DUP2 ADD SWAP1 PUSH2 0x270 SWAP2 SWAP1 PUSH2 0xD72 JUMP JUMPDEST PUSH2 0xCD1 JUMP JUMPDEST PUSH1 0x40 MLOAD PUSH2 0x282 SWAP2 SWAP1 PUSH2 0xDB5 JUMP JUMPDEST PUSH1 0x40 MLOAD DUP1 SWAP2 SUB SWAP1 RETURN JUMPDEST PUSH2 0x293 PUSH2 0xCE6 JUMP JUMPDEST PUSH1 0x40 MLOAD PUSH2 0x2A0 SWAP2 SWAP1 PUSH2 0xDB5 JUMP JUMPDEST PUSH1 0x40 MLOAD DUP1 SWAP2 SUB SWAP1 RETURN JUMPDEST PUSH0 PUSH0 SWAP1 SLOAD SWAP1 PUSH2 0x100 EXP SWAP1 DIV PUSH20 0xFFFFFFFFFFFFFFFFFFFFFFFFFFFFFFFFFFFFFFFF AND DUP2 JUMP JUMPDEST PUSH0 PUSH1 0x3 PUSH0 DUP4 PUSH20 0xFFFFFFFFFFFFFFFFFFFFFFFFFFFFFFFFFFFFFFFF AND PUSH20 0xFFFFFFFFFFFFFFFFFFFFFFFFFFFFFFFFFFFFFFFF AND DUP2 MSTORE PUSH1 0x20 ADD SWAP1 DUP2 MSTORE PUSH1 0x20 ADD PUSH0 KECCAK256 SLOAD SWAP1 POP SWAP2 SWAP1 POP JUMP JUMPDEST PUSH0 DUP2 GT PUSH2 0x355 JUMPI PUSH1 0x40 MLOAD PUSH32 0x8C379A000000000000000000000000000000000000000000000000000000000 DUP2 MSTORE PUSH1 0x4 ADD PUSH2 0x34C SWAP1 PUSH2 0xE7D JUMP JUMPDEST PUSH1 0x40 MLOAD DUP1 SWAP2 SUB SWAP1 REVERT JUMPDEST DUP1 PUSH1 0x2 PUSH0 CALLER PUSH20 0xFFFFFFFFFFFFFFFFFFFFFFFFFFFFFFFFFFFFFFFF AND PUSH20 0xFFFFFFFFFFFFFFFFFFFFFFFFFFFFFFFFFFFFFFFF AND DUP2 MSTORE PUSH1 0x20 ADD SWAP1 DUP2 MSTORE PUSH1 0x20 ADD PUSH0 KECCAK256 SLOAD LT ISZERO PUSH2 0x3D5 JUMPI PUSH1 0x40 MLOAD PUSH32 0x8C379A000000000000000000000000000000000000000000000000000000000 DUP2 MSTORE PUSH1 0x4 ADD PUSH2 0x3CC SWAP1 PUSH2 0xEE5 JUMP JUMPDEST PUSH1 0x40 MLOAD DUP1 SWAP2 SUB SWAP1 REVERT JUMPDEST DUP1 PUSH1 0x2 PUSH0 CALLER PUSH20 0xFFFFFFFFFFFFFFFFFFFFFFFFFFFFFFFFFFFFFFFF AND PUSH20 0xFFFFFFFFFFFFFFFFFFFFFFFFFFFFFFFFFFFFFFFF AND DUP2 MSTORE PUSH1 0x20 ADD SWAP1 DUP2 MSTORE PUSH1 0x20 ADD PUSH0 KECCAK256 PUSH0 DUP3 DUP3 SLOAD PUSH2 0x421 SWAP2 SWAP1 PUSH2 0xF30 JUMP JUMPDEST SWAP3 POP POP DUP2 SWAP1 SSTORE POP DUP1 PUSH1 0x4 PUSH0 DUP3 DUP3 SLOAD PUSH2 0x439 SWAP2 SWAP1 PUSH2 0xF30 JUMP JUMPDEST SWAP3 POP POP DUP2 SWAP1 SSTORE POP PUSH1 0x1 PUSH0 SWAP1 SLOAD SWAP1 PUSH2 0x100 EXP SWAP1 DIV PUSH20 0xFFFFFFFFFFFFFFFFFFFFFFFFFFFFFFFFFFFFFFFF AND PUSH20 0xFFFFFFFFFFFFFFFFFFFFFFFFFFFFFFFFFFFFFFFF AND PUSH4 0xA9059CBB CALLER DUP4 PUSH1 0x40 MLOAD DUP4 PUSH4 0xFFFFFFFF AND PUSH1 0xE0 SHL DUP2 MSTORE PUSH1 0x4 ADD PUSH2 0x49C SWAP3 SWAP2 SWAP1 PUSH2 0xF63 JUMP JUMPDEST PUSH1 0x20 PUSH1 0x40 MLOAD DUP1 DUP4 SUB DUP2 PUSH0 DUP8 GAS CALL ISZERO DUP1 ISZERO PUSH2 0x4B8 JUMPI RETURNDATASIZE PUSH0 PUSH0 RETURNDATACOPY RETURNDATASIZE PUSH0 REVERT JUMPDEST POP POP POP POP PUSH1 0x40 MLOAD RETURNDATASIZE PUSH1 0x1F NOT PUSH1 0x1F DUP3 ADD AND DUP3 ADD DUP1 PUSH1 0x40 MSTORE POP DUP2 ADD SWAP1 PUSH2 0x4DC SWAP2 SWAP1 PUSH2 0xFBF JUMP JUMPDEST PUSH2 0x51B JUMPI PUSH1 0x40 MLOAD PUSH32 0x8C379A000000000000000000000000000000000000000000000000000000000 DUP2 MSTORE PUSH1 0x4 ADD PUSH2 0x512 SWAP1 PUSH2 0x1034 JUMP JUMPDEST PUSH1 0x40 MLOAD DUP1 SWAP2 SUB SWAP1 REVERT JUMPDEST CALLER PUSH20 0xFFFFFFFFFFFFFFFFFFFFFFFFFFFFFFFFFFFFFFFF AND PUSH32 0x7084F5476618D8E60B11EF0D7D3F06914655ADB8793E28FF7F018D4C76D505D5 DUP3 PUSH1 0x40 MLOAD PUSH2 0x561 SWAP2 SWAP1 PUSH2 0xDB5 JUMP JUMPDEST PUSH1 0x40 MLOAD DUP1 SWAP2 SUB SWAP1 LOG2 POP JUMP JUMPDEST PUSH0 PUSH1 0x2 PUSH0 DUP4 PUSH20 0xFFFFFFFFFFFFFFFFFFFFFFFFFFFFFFFFFFFFFFFF AND PUSH20 0xFFFFFFFFFFFFFFFFFFFFFFFFFFFFFFFFFFFFFFFF AND DUP2 MSTORE PUSH1 0x20 ADD SWAP1 DUP2 MSTORE PUSH1 0x20 ADD PUSH0 KECCAK256 SLOAD SWAP1 POP SWAP2 SWAP1 POP JUMP JUMPDEST PUSH0 DUP2 PUSH20 0xFFFFFFFFFFFFFFFFFFFFFFFFFFFFFFFFFFFFFFFF AND PUSH4 0x70A08231 ADDRESS PUSH1 0x40 MLOAD DUP3 PUSH4 0xFFFFFFFF AND PUSH1 0xE0 SHL DUP2 MSTORE PUSH1 0x4 ADD PUSH2 0x5EC SWAP2 SWAP1 PUSH2 0xD2B JUMP JUMPDEST PUSH1 0x20 PUSH1 0x40 MLOAD DUP1 DUP4 SUB DUP2 DUP7 GAS STATICCALL ISZERO DUP1 ISZERO PUSH2 0x607 JUMPI RETURNDATASIZE PUSH0 PUSH0 RETURNDATACOPY RETURNDATASIZE PUSH0 REVERT JUMPDEST POP POP POP POP PUSH1 0x40 MLOAD RETURNDATASIZE PUSH1 0x1F NOT PUSH1 0x1F DUP3 ADD AND DUP3 ADD DUP1 PUSH1 0x40 MSTORE POP DUP2 ADD SWAP1 PUSH2 0x62B SWAP2 SWAP1 PUSH2 0x1066 JUMP JUMPDEST SWAP1 POP SWAP2 SWAP1 POP JUMP JUMPDEST PUSH1 0x1 PUSH0 SWAP1 SLOAD SWAP1 PUSH2 0x100 EXP SWAP1 DIV PUSH20 0xFFFFFFFFFFFFFFFFFFFFFFFFFFFFFFFFFFFFFFFF AND DUP2 JUMP JUMPDEST PUSH1 0x2 PUSH1 0x20 MSTORE DUP1 PUSH0 MSTORE PUSH1 0x40 PUSH0 KECCAK256 PUSH0 SWAP2 POP SWAP1 POP SLOAD DUP2 JUMP JUMPDEST PUSH1 0x4 SLOAD DUP2 JUMP JUMPDEST PUSH0 DUP2 GT PUSH2 0x6B4 JUMPI PUSH1 0x40 MLOAD PUSH32 0x8C379A000000000000000000000000000000000000000000000000000000000 DUP2 MSTORE PUSH1 0x4 ADD PUSH2 0x6AB SWAP1 PUSH2 0x10DB JUMP JUMPDEST PUSH1 0x40 MLOAD DUP1 SWAP2 SUB SWAP1 REVERT JUMPDEST DUP1 PUSH1 0x5 SLOAD LT ISZERO PUSH2 0x6F9 JUMPI PUSH1 0x40 MLOAD PUSH32 0x8C379A000000000000000000000000000000000000000000000000000000000 DUP2 MSTORE PUSH1 0x4 ADD PUSH2 0x6F0 SWAP1 PUSH2 0x1143 JUMP JUMPDEST PUSH1 0x40 MLOAD DUP1 SWAP2 SUB SWAP1 REVERT JUMPDEST PUSH0 PUSH0 SWAP1 SLOAD SWAP1 PUSH2 0x100 EXP SWAP1 DIV PUSH20 0xFFFFFFFFFFFFFFFFFFFFFFFFFFFFFFFFFFFFFFFF AND PUSH20 0xFFFFFFFFFFFFFFFFFFFFFFFFFFFFFFFFFFFFFFFF AND PUSH4 0x23B872DD CALLER ADDRESS DUP5 PUSH1 0x40 MLOAD DUP5 PUSH4 0xFFFFFFFF AND PUSH1 0xE0 SHL DUP2 MSTORE PUSH1 0x4 ADD PUSH2 0x756 SWAP4 SWAP3 SWAP2 SWAP1 PUSH2 0x1161 JUMP JUMPDEST PUSH1 0x20 PUSH1 0x40 MLOAD DUP1 DUP4 SUB DUP2 PUSH0 DUP8 GAS CALL ISZERO DUP1 ISZERO PUSH2 0x772 JUMPI RETURNDATASIZE PUSH0 PUSH0 RETURNDATACOPY RETURNDATASIZE PUSH0 REVERT JUMPDEST POP POP POP POP PUSH1 0x40 MLOAD RETURNDATASIZE PUSH1 0x1F NOT PUSH1 0x1F DUP3 ADD AND DUP3 ADD DUP1 PUSH1 0x40 MSTORE POP DUP2 ADD SWAP1 PUSH2 0x796 SWAP2 SWAP1 PUSH2 0xFBF JUMP JUMPDEST PUSH2 0x7D5 JUMPI PUSH1 0x40 MLOAD PUSH32 0x8C379A000000000000000000000000000000000000000000000000000000000 DUP2 MSTORE PUSH1 0x4 ADD PUSH2 0x7CC SWAP1 PUSH2 0x11E0 JUMP JUMPDEST PUSH1 0x40 MLOAD DUP1 SWAP2 SUB SWAP1 REVERT JUMPDEST PUSH1 0x1 PUSH0 SWAP1 SLOAD SWAP1 PUSH2 0x100 EXP SWAP1 DIV PUSH20 0xFFFFFFFFFFFFFFFFFFFFFFFFFFFFFFFFFFFFFFFF AND PUSH20 0xFFFFFFFFFFFFFFFFFFFFFFFFFFFFFFFFFFFFFFFF AND PUSH4 0xA9059CBB CALLER DUP4 PUSH1 0x40 MLOAD DUP4 PUSH4 0xFFFFFFFF AND PUSH1 0xE0 SHL DUP2 MSTORE PUSH1 0x4 ADD PUSH2 0x831 SWAP3 SWAP2 SWAP1 PUSH2 0xF63 JUMP JUMPDEST PUSH1 0x20 PUSH1 0x40 MLOAD DUP1 DUP4 SUB DUP2 PUSH0 DUP8 GAS CALL ISZERO DUP1 ISZERO PUSH2 0x84D JUMPI RETURNDATASIZE PUSH0 PUSH0 RETURNDATACOPY RETURNDATASIZE PUSH0 REVERT JUMPDEST POP POP POP POP PUSH1 0x40 MLOAD RETURNDATASIZE PUSH1 0x1F NOT PUSH1 0x1F DUP3 ADD AND DUP3 ADD DUP1 PUSH1 0x40 MSTORE POP DUP2 ADD SWAP1 PUSH2 0x871 SWAP2 SWAP1 PUSH2 0xFBF JUMP JUMPDEST PUSH2 0x8B0 JUMPI PUSH1 0x40 MLOAD PUSH32 0x8C379A000000000000000000000000000000000000000000000000000000000 DUP2 MSTORE PUSH1 0x4 ADD PUSH2 0x8A7 SWAP1 PUSH2 0x1034 JUMP JUMPDEST PUSH1 0x40 MLOAD DUP1 SWAP2 SUB SWAP1 REVERT JUMPDEST DUP1 PUSH1 0x5 PUSH0 DUP3 DUP3 SLOAD PUSH2 0x8C1 SWAP2 SWAP1 PUSH2 0xF30 JUMP JUMPDEST SWAP3 POP POP DUP2 SWAP1 SSTORE POP CALLER PUSH20 0xFFFFFFFFFFFFFFFFFFFFFFFFFFFFFFFFFFFFFFFF AND PUSH32 0x3A9A9F34F5831E9C8ECB66AB3AA308B2FF31EACA434615F6C9CADC656A9AF71C DUP3 DUP4 PUSH1 0x40 MLOAD PUSH2 0x910 SWAP3 SWAP2 SWAP1 PUSH2 0x11FE JUMP JUMPDEST PUSH1 0x40 MLOAD DUP1 SWAP2 SUB SWAP1 LOG2 POP JUMP JUMPDEST PUSH0 DUP2 GT PUSH2 0x95D JUMPI PUSH1 0x40 MLOAD PUSH32 0x8C379A000000000000000000000000000000000000000000000000000000000 DUP2 MSTORE PUSH1 0x4 ADD PUSH2 0x954 SWAP1 PUSH2 0x126F JUMP JUMPDEST PUSH1 0x40 MLOAD DUP1 SWAP2 SUB SWAP1 REVERT JUMPDEST PUSH1 0x1 PUSH0 SWAP1 SLOAD SWAP1 PUSH2 0x100 EXP SWAP1 DIV PUSH20 0xFFFFFFFFFFFFFFFFFFFFFFFFFFFFFFFFFFFFFFFF AND PUSH20 0xFFFFFFFFFFFFFFFFFFFFFFFFFFFFFFFFFFFFFFFF AND PUSH4 0x23B872DD CALLER ADDRESS DUP5 PUSH1 0x40 MLOAD DUP5 PUSH4 0xFFFFFFFF AND PUSH1 0xE0 SHL DUP2 MSTORE PUSH1 0x4 ADD PUSH2 0x9BB SWAP4 SWAP3 SWAP2 SWAP1 PUSH2 0x1161 JUMP JUMPDEST PUSH1 0x20 PUSH1 0x40 MLOAD DUP1 DUP4 SUB DUP2 PUSH0 DUP8 GAS CALL ISZERO DUP1 ISZERO PUSH2 0x9D7 JUMPI RETURNDATASIZE PUSH0 PUSH0 RETURNDATACOPY RETURNDATASIZE PUSH0 REVERT JUMPDEST POP POP POP POP PUSH1 0x40 MLOAD RETURNDATASIZE PUSH1 0x1F NOT PUSH1 0x1F DUP3 ADD AND DUP3 ADD DUP1 PUSH1 0x40 MSTORE POP DUP2 ADD SWAP1 PUSH2 0x9FB SWAP2 SWAP1 PUSH2 0xFBF JUMP JUMPDEST PUSH2 0xA3A JUMPI PUSH1 0x40 MLOAD PUSH32 0x8C379A000000000000000000000000000000000000000000000000000000000 DUP2 MSTORE PUSH1 0x4 ADD PUSH2 0xA31 SWAP1 PUSH2 0x1034 JUMP JUMPDEST PUSH1 0x40 MLOAD DUP1 SWAP2 SUB SWAP1 REVERT JUMPDEST DUP1 PUSH1 0x2 PUSH0 CALLER PUSH20 0xFFFFFFFFFFFFFFFFFFFFFFFFFFFFFFFFFFFFFFFF AND PUSH20 0xFFFFFFFFFFFFFFFFFFFFFFFFFFFFFFFFFFFFFFFF AND DUP2 MSTORE PUSH1 0x20 ADD SWAP1 DUP2 MSTORE PUSH1 0x20 ADD PUSH0 KECCAK256 PUSH0 DUP3 DUP3 SLOAD PUSH2 0xA86 SWAP2 SWAP1 PUSH2 0x128D JUMP JUMPDEST SWAP3 POP POP DUP2 SWAP1 SSTORE POP DUP1 PUSH1 0x4 PUSH0 DUP3 DUP3 SLOAD PUSH2 0xA9E SWAP2 SWAP1 PUSH2 0x128D JUMP JUMPDEST SWAP3 POP POP DUP2 SWAP1 SSTORE POP CALLER PUSH20 0xFFFFFFFFFFFFFFFFFFFFFFFFFFFFFFFFFFFFFFFF AND PUSH32 0x9E71BC8EEA02A63969F509818F2DAFB9254532904319F9DBDA79B67BD34A5F3D DUP3 PUSH1 0x40 MLOAD PUSH2 0xAEB SWAP2 SWAP1 PUSH2 0xDB5 JUMP JUMPDEST PUSH1 0x40 MLOAD DUP1 SWAP2 SUB SWAP1 LOG2 POP JUMP JUMPDEST PUSH0 DUP2 GT PUSH2 0xB38 JUMPI PUSH1 0x40 MLOAD PUSH32 0x8C379A000000000000000000000000000000000000000000000000000000000 DUP2 MSTORE PUSH1 0x4 ADD PUSH2 0xB2F SWAP1 PUSH2 0x130A JUMP JUMPDEST PUSH1 0x40 MLOAD DUP1 SWAP2 SUB SWAP1 REVERT JUMPDEST PUSH1 0x1 PUSH0 SWAP1 SLOAD SWAP1 PUSH2 0x100 EXP SWAP1 DIV PUSH20 0xFFFFFFFFFFFFFFFFFFFFFFFFFFFFFFFFFFFFFFFF AND PUSH20 0xFFFFFFFFFFFFFFFFFFFFFFFFFFFFFFFFFFFFFFFF AND PUSH4 0x23B872DD CALLER ADDRESS DUP5 PUSH1 0x40 MLOAD DUP5 PUSH4 0xFFFFFFFF AND PUSH1 0xE0 SHL DUP2 MSTORE PUSH1 0x4 ADD PUSH2 0xB96 SWAP4 SWAP3 SWAP2 SWAP1 PUSH2 0x1161 JUMP JUMPDEST PUSH1 0x20 PUSH1 0x40 MLOAD DUP1 DUP4 SUB DUP2 PUSH0 DUP8 GAS CALL ISZERO DUP1 ISZERO PUSH2 0xBB2 JUMPI RETURNDATASIZE PUSH0 PUSH0 RETURNDATACOPY RETURNDATASIZE PUSH0 REVERT JUMPDEST POP POP POP POP PUSH1 0x40 MLOAD RETURNDATASIZE PUSH1 0x1F NOT PUSH1 0x1F DUP3 ADD AND DUP3 ADD DUP1 PUSH1 0x40 MSTORE POP DUP2 ADD SWAP1 PUSH2 0xBD6 SWAP2 SWAP1 PUSH2 0xFBF JUMP JUMPDEST PUSH2 0xC15 JUMPI PUSH1 0x40 MLOAD PUSH32 0x8C379A000000000000000000000000000000000000000000000000000000000 DUP2 MSTORE PUSH1 0x4 ADD PUSH2 0xC0C SWAP1 PUSH2 0x1034 JUMP JUMPDEST PUSH1 0x40 MLOAD DUP1 SWAP2 SUB SWAP1 REVERT JUMPDEST DUP1 PUSH1 0x3 PUSH0 CALLER PUSH20 0xFFFFFFFFFFFFFFFFFFFFFFFFFFFFFFFFFFFFFFFF AND PUSH20 0xFFFFFFFFFFFFFFFFFFFFFFFFFFFFFFFFFFFFFFFF AND DUP2 MSTORE PUSH1 0x20 ADD SWAP1 DUP2 MSTORE PUSH1 0x20 ADD PUSH0 KECCAK256 PUSH0 DUP3 DUP3 SLOAD PUSH2 0xC61 SWAP2 SWAP1 PUSH2 0x128D JUMP JUMPDEST SWAP3 POP POP DUP2 SWAP1 SSTORE POP DUP1 PUSH1 0x5 PUSH0 DUP3 DUP3 SLOAD PUSH2 0xC79 SWAP2 SWAP1 PUSH2 0x128D JUMP JUMPDEST SWAP3 POP POP DUP2 SWAP1 SSTORE POP CALLER PUSH20 0xFFFFFFFFFFFFFFFFFFFFFFFFFFFFFFFFFFFFFFFF AND PUSH32 0x2DA466A7B24304F47E87FA2E1E5A81B9831CE54FEC19055CE277CA2F39BA42C4 DUP3 PUSH1 0x40 MLOAD PUSH2 0xCC6 SWAP2 SWAP1 PUSH2 0xDB5 JUMP JUMPDEST PUSH1 0x40 MLOAD DUP1 SWAP2 SUB SWAP1 LOG2 POP JUMP JUMPDEST PUSH1 0x3 PUSH1 0x20 MSTORE DUP1 PUSH0 MSTORE PUSH1 0x40 PUSH0 KECCAK256 PUSH0 SWAP2 POP SWAP1 POP SLOAD DUP2 JUMP JUMPDEST PUSH1 0x5 SLOAD DUP2 JUMP JUMPDEST PUSH0 PUSH20 0xFFFFFFFFFFFFFFFFFFFFFFFFFFFFFFFFFFFFFFFF DUP3 AND SWAP1 POP SWAP2 SWAP1 POP JUMP JUMPDEST PUSH0 PUSH2 0xD15 DUP3 PUSH2 0xCEC JUMP JUMPDEST SWAP1 POP SWAP2 SWAP1 POP JUMP JUMPDEST PUSH2 0xD25 DUP2 PUSH2 0xD0B JUMP JUMPDEST DUP3 MSTORE POP POP JUMP JUMPDEST PUSH0 PUSH1 0x20 DUP3 ADD SWAP1 POP PUSH2 0xD3E PUSH0 DUP4 ADD DUP5 PUSH2 0xD1C JUMP JUMPDEST SWAP3 SWAP2 POP POP JUMP JUMPDEST PUSH0 PUSH0 REVERT JUMPDEST PUSH2 0xD51 DUP2 PUSH2 0xD0B JUMP JUMPDEST DUP2 EQ PUSH2 0xD5B JUMPI PUSH0 PUSH0 REVERT JUMPDEST POP JUMP JUMPDEST PUSH0 DUP2 CALLDATALOAD SWAP1 POP PUSH2 0xD6C DUP2 PUSH2 0xD48 JUMP JUMPDEST SWAP3 SWAP2 POP POP JUMP JUMPDEST PUSH0 PUSH1 0x20 DUP3 DUP5 SUB SLT ISZERO PUSH2 0xD87 JUMPI PUSH2 0xD86 PUSH2 0xD44 JUMP JUMPDEST JUMPDEST PUSH0 PUSH2 0xD94 DUP5 DUP3 DUP6 ADD PUSH2 0xD5E JUMP JUMPDEST SWAP2 POP POP SWAP3 SWAP2 POP POP JUMP JUMPDEST PUSH0 DUP2 SWAP1 POP SWAP2 SWAP1 POP JUMP JUMPDEST PUSH2 0xDAF DUP2 PUSH2 0xD9D JUMP JUMPDEST DUP3 MSTORE POP POP JUMP JUMPDEST PUSH0 PUSH1 0x20 DUP3 ADD SWAP1 POP PUSH2 0xDC8 PUSH0 DUP4 ADD DUP5 PUSH2 0xDA6 JUMP JUMPDEST SWAP3 SWAP2 POP POP JUMP JUMPDEST PUSH2 0xDD7 DUP2 PUSH2 0xD9D JUMP JUMPDEST DUP2 EQ PUSH2 0xDE1 JUMPI PUSH0 PUSH0 REVERT JUMPDEST POP JUMP JUMPDEST PUSH0 DUP2 CALLDATALOAD SWAP1 POP PUSH2 0xDF2 DUP2 PUSH2 0xDCE JUMP JUMPDEST SWAP3 SWAP2 POP POP JUMP JUMPDEST PUSH0 PUSH1 0x20 DUP3 DUP5 SUB SLT ISZERO PUSH2 0xE0D JUMPI PUSH2 0xE0C PUSH2 0xD44 JUMP JUMPDEST JUMPDEST PUSH0 PUSH2 0xE1A DUP5 DUP3 DUP6 ADD PUSH2 0xDE4 JUMP JUMPDEST SWAP2 POP POP SWAP3 SWAP2 POP POP JUMP JUMPDEST PUSH0 DUP3 DUP3 MSTORE PUSH1 0x20 DUP3 ADD SWAP1 POP SWAP3 SWAP2 POP POP JUMP JUMPDEST PUSH32 0x4D757374207769746864726177206D6F7265207468616E203000000000000000 PUSH0 DUP3 ADD MSTORE POP JUMP JUMPDEST PUSH0 PUSH2 0xE67 PUSH1 0x19 DUP4 PUSH2 0xE23 JUMP JUMPDEST SWAP2 POP PUSH2 0xE72 DUP3 PUSH2 0xE33 JUMP JUMPDEST PUSH1 0x20 DUP3 ADD SWAP1 POP SWAP2 SWAP1 POP JUMP JUMPDEST PUSH0 PUSH1 0x20 DUP3 ADD SWAP1 POP DUP2 DUP2 SUB PUSH0 DUP4 ADD MSTORE PUSH2 0xE94 DUP2 PUSH2 0xE5B JUMP JUMPDEST SWAP1 POP SWAP2 SWAP1 POP JUMP JUMPDEST PUSH32 0x496E73756666696369656E74207374616B65642062616C616E63650000000000 PUSH0 DUP3 ADD MSTORE POP JUMP JUMPDEST PUSH0 PUSH2 0xECF PUSH1 0x1B DUP4 PUSH2 0xE23 JUMP JUMPDEST SWAP2 POP PUSH2 0xEDA DUP3 PUSH2 0xE9B JUMP JUMPDEST PUSH1 0x20 DUP3 ADD SWAP1 POP SWAP2 SWAP1 POP JUMP JUMPDEST PUSH0 PUSH1 0x20 DUP3 ADD SWAP1 POP DUP2 DUP2 SUB PUSH0 DUP4 ADD MSTORE PUSH2 0xEFC DUP2 PUSH2 0xEC3 JUMP JUMPDEST SWAP1 POP SWAP2 SWAP1 POP JUMP JUMPDEST PUSH32 0x4E487B7100000000000000000000000000000000000000000000000000000000 PUSH0 MSTORE PUSH1 0x11 PUSH1 0x4 MSTORE PUSH1 0x24 PUSH0 REVERT JUMPDEST PUSH0 PUSH2 0xF3A DUP3 PUSH2 0xD9D JUMP JUMPDEST SWAP2 POP PUSH2 0xF45 DUP4 PUSH2 0xD9D JUMP JUMPDEST SWAP3 POP DUP3 DUP3 SUB SWAP1 POP DUP2 DUP2 GT ISZERO PUSH2 0xF5D JUMPI PUSH2 0xF5C PUSH2 0xF03 JUMP JUMPDEST JUMPDEST SWAP3 SWAP2 POP POP JUMP JUMPDEST PUSH0 PUSH1 0x40 DUP3 ADD SWAP1 POP PUSH2 0xF76 PUSH0 DUP4 ADD DUP6 PUSH2 0xD1C JUMP JUMPDEST PUSH2 0xF83 PUSH1 0x20 DUP4 ADD DUP5 PUSH2 0xDA6 JUMP JUMPDEST SWAP4 SWAP3 POP POP POP JUMP JUMPDEST PUSH0 DUP2 ISZERO ISZERO SWAP1 POP SWAP2 SWAP1 POP JUMP JUMPDEST PUSH2 0xF9E DUP2 PUSH2 0xF8A JUMP JUMPDEST DUP2 EQ PUSH2 0xFA8 JUMPI PUSH0 PUSH0 REVERT JUMPDEST POP JUMP JUMPDEST PUSH0 DUP2 MLOAD SWAP1 POP PUSH2 0xFB9 DUP2 PUSH2 0xF95 JUMP JUMPDEST SWAP3 SWAP2 POP POP JUMP JUMPDEST PUSH0 PUSH1 0x20 DUP3 DUP5 SUB SLT ISZERO PUSH2 0xFD4 JUMPI PUSH2 0xFD3 PUSH2 0xD44 JUMP JUMPDEST JUMPDEST PUSH0 PUSH2 0xFE1 DUP5 DUP3 DUP6 ADD PUSH2 0xFAB JUMP JUMPDEST SWAP2 POP POP SWAP3 SWAP2 POP POP JUMP JUMPDEST PUSH32 0x546F6B656E42207472616E73666572206661696C656400000000000000000000 PUSH0 DUP3 ADD MSTORE POP JUMP JUMPDEST PUSH0 PUSH2 0x101E PUSH1 0x16 DUP4 PUSH2 0xE23 JUMP JUMPDEST SWAP2 POP PUSH2 0x1029 DUP3 PUSH2 0xFEA JUMP JUMPDEST PUSH1 0x20 DUP3 ADD SWAP1 POP SWAP2 SWAP1 POP JUMP JUMPDEST PUSH0 PUSH1 0x20 DUP3 ADD SWAP1 POP DUP2 DUP2 SUB PUSH0 DUP4 ADD MSTORE PUSH2 0x104B DUP2 PUSH2 0x1012 JUMP JUMPDEST SWAP1 POP SWAP2 SWAP1 POP JUMP JUMPDEST PUSH0 DUP2 MLOAD SWAP1 POP PUSH2 0x1060 DUP2 PUSH2 0xDCE JUMP JUMPDEST SWAP3 SWAP2 POP POP JUMP JUMPDEST PUSH0 PUSH1 0x20 DUP3 DUP5 SUB SLT ISZERO PUSH2 0x107B JUMPI PUSH2 0x107A PUSH2 0xD44 JUMP JUMPDEST JUMPDEST PUSH0 PUSH2 0x1088 DUP5 DUP3 DUP6 ADD PUSH2 0x1052 JUMP JUMPDEST SWAP2 POP POP SWAP3 SWAP2 POP POP JUMP JUMPDEST PUSH32 0x4D7573742073776170206D6F7265207468616E20300000000000000000000000 PUSH0 DUP3 ADD MSTORE POP JUMP JUMPDEST PUSH0 PUSH2 0x10C5 PUSH1 0x15 DUP4 PUSH2 0xE23 JUMP JUMPDEST SWAP2 POP PUSH2 0x10D0 DUP3 PUSH2 0x1091 JUMP JUMPDEST PUSH1 0x20 DUP3 ADD SWAP1 POP SWAP2 SWAP1 POP JUMP JUMPDEST PUSH0 PUSH1 0x20 DUP3 ADD SWAP1 POP DUP2 DUP2 SUB PUSH0 DUP4 ADD MSTORE PUSH2 0x10F2 DUP2 PUSH2 0x10B9 JUMP JUMPDEST SWAP1 POP SWAP2 SWAP1 POP JUMP JUMPDEST PUSH32 0x496E73756666696369656E7420746F6B656E42206C6971756964697479000000 PUSH0 DUP3 ADD MSTORE POP JUMP JUMPDEST PUSH0 PUSH2 0x112D PUSH1 0x1D DUP4 PUSH2 0xE23 JUMP JUMPDEST SWAP2 POP PUSH2 0x1138 DUP3 PUSH2 0x10F9 JUMP JUMPDEST PUSH1 0x20 DUP3 ADD SWAP1 POP SWAP2 SWAP1 POP JUMP JUMPDEST PUSH0 PUSH1 0x20 DUP3 ADD SWAP1 POP DUP2 DUP2 SUB PUSH0 DUP4 ADD MSTORE PUSH2 0x115A DUP2 PUSH2 0x1121 JUMP JUMPDEST SWAP1 POP SWAP2 SWAP1 POP JUMP JUMPDEST PUSH0 PUSH1 0x60 DUP3 ADD SWAP1 POP PUSH2 0x1174 PUSH0 DUP4 ADD DUP7 PUSH2 0xD1C JUMP JUMPDEST PUSH2 0x1181 PUSH1 0x20 DUP4 ADD DUP6 PUSH2 0xD1C JUMP JUMPDEST PUSH2 0x118E PUSH1 0x40 DUP4 ADD DUP5 PUSH2 0xDA6 JUMP JUMPDEST SWAP5 SWAP4 POP POP POP POP JUMP JUMPDEST PUSH32 0x546F6B656E41207472616E73666572206661696C656400000000000000000000 PUSH0 DUP3 ADD MSTORE POP JUMP JUMPDEST PUSH0 PUSH2 0x11CA PUSH1 0x16 DUP4 PUSH2 0xE23 JUMP JUMPDEST SWAP2 POP PUSH2 0x11D5 DUP3 PUSH2 0x1196 JUMP JUMPDEST PUSH1 0x20 DUP3 ADD SWAP1 POP SWAP2 SWAP1 POP JUMP JUMPDEST PUSH0 PUSH1 0x20 DUP3 ADD SWAP1 POP DUP2 DUP2 SUB PUSH0 DUP4 ADD MSTORE PUSH2 0x11F7 DUP2 PUSH2 0x11BE JUMP JUMPDEST SWAP1 POP SWAP2 SWAP1 POP JUMP JUMPDEST PUSH0 PUSH1 0x40 DUP3 ADD SWAP1 POP PUSH2 0x1211 PUSH0 DUP4 ADD DUP6 PUSH2 0xDA6 JUMP JUMPDEST PUSH2 0x121E PUSH1 0x20 DUP4 ADD DUP5 PUSH2 0xDA6 JUMP JUMPDEST SWAP4 SWAP3 POP POP POP JUMP JUMPDEST PUSH32 0x4D757374207374616B65206D6F7265207468616E203000000000000000000000 PUSH0 DUP3 ADD MSTORE POP JUMP JUMPDEST PUSH0 PUSH2 0x1259 PUSH1 0x16 DUP4 PUSH2 0xE23 JUMP JUMPDEST SWAP2 POP PUSH2 0x1264 DUP3 PUSH2 0x1225 JUMP JUMPDEST PUSH1 0x20 DUP3 ADD SWAP1 POP SWAP2 SWAP1 POP JUMP JUMPDEST PUSH0 PUSH1 0x20 DUP3 ADD SWAP1 POP DUP2 DUP2 SUB PUSH0 DUP4 ADD MSTORE PUSH2 0x1286 DUP2 PUSH2 0x124D JUMP JUMPDEST SWAP1 POP SWAP2 SWAP1 POP JUMP JUMPDEST PUSH0 PUSH2 0x1297 DUP3 PUSH2 0xD9D JUMP JUMPDEST SWAP2 POP PUSH2 0x12A2 DUP4 PUSH2 0xD9D JUMP JUMPDEST SWAP3 POP DUP3 DUP3 ADD SWAP1 POP DUP1 DUP3 GT ISZERO PUSH2 0x12BA JUMPI PUSH2 0x12B9 PUSH2 0xF03 JUMP JUMPDEST JUMPDEST SWAP3 SWAP2 POP POP JUMP JUMPDEST PUSH32 0x4D757374206465706F736974206D6F7265207468616E20300000000000000000 PUSH0 DUP3 ADD MSTORE POP JUMP JUMPDEST PUSH0 PUSH2 0x12F4 PUSH1 0x18 DUP4 PUSH2 0xE23 JUMP JUMPDEST SWAP2 POP PUSH2 0x12FF DUP3 PUSH2 0x12C0 JUMP JUMPDEST PUSH1 0x20 DUP3 ADD SWAP1 POP SWAP2 SWAP1 POP JUMP JUMPDEST PUSH0 PUSH1 0x20 DUP3 ADD SWAP1 POP DUP2 DUP2 SUB PUSH0 DUP4 ADD MSTORE PUSH2 0x1321 DUP2 PUSH2 0x12E8 JUMP JUMPDEST SWAP1 POP SWAP2 SWAP1 POP JUMP INVALID LOG2 PUSH5 0x6970667358 0x22 SLT KECCAK256 PUSH1 0x90 0xDD 0x2D DUP5 BYTE 0xAA RETURN MULMOD JUMPDEST 0xAF 0x29 DUP7 EOFCREATE 0x13 0xC0 0xE8 0x26 0x27 0xE8 EOFCREATE 0xC8 0x2B 0xC6 SWAP9 PUSH16 0x9AD9D257561A64736F6C634300081E00 CALLER "
	},
	"abi": [
		{
			"inputs": [
				{
					"internalType": "uint256",
					"name": "amount",
					"type": "uint256"
				}
			],
			"name": "deposit",
			"outputs": [],
			"stateMutability": "nonpayable",
			"type": "function"
		},
		{
			"inputs": [
				{
					"internalType": "address",
					"name": "_tokenA",
					"type": "address"
				},
				{
					"internalType": "address",
					"name": "_tokenB",
					"type": "address"
				}
			],
			"stateMutability": "nonpayable",
			"type": "constructor"
		},
		{
			"anonymous": false,
			"inputs": [
				{
					"indexed": true,
					"internalType": "address",
					"name": "user",
					"type": "address"
				},
				{
					"indexed": false,
					"internalType": "uint256",
					"name": "amount",
					"type": "uint256"
				}
			],
			"name": "Deposited",
			"type": "event"
		},
		{
			"inputs": [
				{
					"internalType": "uint256",
					"name": "amount",
					"type": "uint256"
				}
			],
			"name": "stake",
			"outputs": [],
			"stateMutability": "nonpayable",
			"type": "function"
		},
		{
			"anonymous": false,
			"inputs": [
				{
					"indexed": true,
					"internalType": "address",
					"name": "user",
					"type": "address"
				},
				{
					"indexed": false,
					"internalType": "uint256",
					"name": "amount",
					"type": "uint256"
				}
			],
			"name": "Staked",
			"type": "event"
		},
		{
			"inputs": [
				{
					"internalType": "uint256",
					"name": "amount",
					"type": "uint256"
				}
			],
			"name": "swap",
			"outputs": [],
			"stateMutability": "nonpayable",
			"type": "function"
		},
		{
			"anonymous": false,
			"inputs": [
				{
					"indexed": true,
					"internalType": "address",
					"name": "user",
					"type": "address"
				},
				{
					"indexed": false,
					"internalType": "uint256",
					"name": "amountIn",
					"type": "uint256"
				},
				{
					"indexed": false,
					"internalType": "uint256",
					"name": "amountOut",
					"type": "uint256"
				}
			],
			"name": "Swapped",
			"type": "event"
		},
		{
			"inputs": [
				{
					"internalType": "uint256",
					"name": "amount",
					"type": "uint256"
				}
			],
			"name": "withdraw",
			"outputs": [],
			"stateMutability": "nonpayable",
			"type": "function"
		},
		{
			"anonymous": false,
			"inputs": [
				{
					"indexed": true,
					"internalType": "address",
					"name": "user",
					"type": "address"
				},
				{
					"indexed": false,
					"internalType": "uint256",
					"name": "amount",
					"type": "uint256"
				}
			],
			"name": "Withdrawn",
			"type": "event"
		},
		{
			"inputs": [
				{
					"internalType": "address",
					"name": "",
					"type": "address"
				}
			],
			"name": "depositedBalance",
			"outputs": [
				{
					"internalType": "uint256",
					"name": "",
					"type": "uint256"
				}
			],
			"stateMutability": "view",
			"type": "function"
		},
		{
			"inputs": [
				{
					"internalType": "address",
					"name": "user",
					"type": "address"
				}
			],
			"name": "getDepositedBalance",
			"outputs": [
				{
					"internalType": "uint256",
					"name": "",
					"type": "uint256"
				}
			],
			"stateMutability": "view",
			"type": "function"
		},
		{
			"inputs": [
				{
					"internalType": "address",
					"name": "user",
					"type": "address"
				}
			],
			"name": "getStakedBalance",
			"outputs": [
				{
					"internalType": "uint256",
					"name": "",
					"type": "uint256"
				}
			],
			"stateMutability": "view",
			"type": "function"
		},
		{
			"inputs": [
				{
					"internalType": "address",
					"name": "token",
					"type": "address"
				}
			],
			"name": "getTokenBalance",
			"outputs": [
				{
					"internalType": "uint256",
					"name": "",
					"type": "uint256"
				}
			],
			"stateMutability": "view",
			"type": "function"
		},
		{
			"inputs": [
				{
					"internalType": "address",
					"name": "",
					"type": "address"
				}
			],
			"name": "stakedBalance",
			"outputs": [
				{
					"internalType": "uint256",
					"name": "",
					"type": "uint256"
				}
			],
			"stateMutability": "view",
			"type": "function"
		},
		{
			"inputs": [],
			"name": "tokenA",
			"outputs": [
				{
					"internalType": "address",
					"name": "",
					"type": "address"
				}
			],
			"stateMutability": "view",
			"type": "function"
		},
		{
			"inputs": [],
			"name": "tokenB",
			"outputs": [
				{
					"internalType": "address",
					"name": "",
					"type": "address"
				}
			],
			"stateMutability": "view",
			"type": "function"
		},
		{
			"inputs": [],
			"name": "totalDeposited",
			"outputs": [
				{
					"internalType": "uint256",
					"name": "",
					"type": "uint256"
				}
			],
			"stateMutability": "view",
			"type": "function"
		},
		{
			"inputs": [],
			"name": "totalStaked",
			"outputs": [
				{
					"internalType": "uint256",
					"name": "",
					"type": "uint256"
				}
			],
			"stateMutability": "view",
			"type": "function"
		}
	],
	"storageLayout": {
		"storage": [
			{
				"astId": 32,
				"contract": "stake.sol:SimpleStaking",
				"label": "tokenA",
				"offset": 0,
				"slot": "0",
				"type": "t_address"
			},
			{
				"astId": 34,
				"contract": "stake.sol:SimpleStaking",
				"label": "tokenB",
				"offset": 0,
				"slot": "1",
				"type": "t_address"
			},
			{
				"astId": 38,
				"contract": "stake.sol:SimpleStaking",
				"label": "stakedBalance",
				"offset": 0,
				"slot": "2",
				"type": "t_mapping(t_address,t_uint256)"
			},
			{
				"astId": 42,
				"contract": "stake.sol:SimpleStaking",
				"label": "depositedBalance",
				"offset": 0,
				"slot": "3",
				"type": "t_mapping(t_address,t_uint256)"
			},
			{
				"astId": 44,
				"contract": "stake.sol:SimpleStaking",
				"label": "totalStaked",
				"offset": 0,
				"slot": "4",
				"type": "t_uint256"
			},
			{
				"astId": 46,
				"contract": "stake.sol:SimpleStaking",
				"label": "totalDeposited",
				"offset": 0,
				"slot": "5",
				"type": "t_uint256"
			}
		],
		"types": {
			"t_address": {
				"encoding": "inplace",
				"label": "address",
				"numberOfBytes": "20"
			},
			"t_mapping(t_address,t_uint256)": {
				"encoding": "mapping",
				"key": "t_address",
				"label": "mapping(address => uint256)",
				"numberOfBytes": "32",
				"value": "t_uint256"
			},
			"t_uint256": {
				"encoding": "inplace",
				"label": "uint256",
				"numberOfBytes": "32"
			}
		}
	},
	"web3Deploy": "var _tokenA = /* var of type address here */ ;\nvar _tokenB = /* var of type address here */ ;\nvar simplestakingContract = new web3.eth.Contract([{\"inputs\":[{\"internalType\":\"address\",\"name\":\"_tokenA\",\"type\":\"address\"},{\"internalType\":\"address\",\"name\":\"_tokenB\",\"type\":\"address\"}],\"stateMutability\":\"nonpayable\",\"type\":\"constructor\"},{\"anonymous\":false,\"inputs\":[{\"indexed\":true,\"internalType\":\"address\",\"name\":\"user\",\"type\":\"address\"},{\"indexed\":false,\"internalType\":\"uint256\",\"name\":\"amount\",\"type\":\"uint256\"}],\"name\":\"Deposited\",\"type\":\"event\"},{\"anonymous\":false,\"inputs\":[{\"indexed\":true,\"internalType\":\"address\",\"name\":\"user\",\"type\":\"address\"},{\"indexed\":false,\"internalType\":\"uint256\",\"name\":\"amount\",\"type\":\"uint256\"}],\"name\":\"Staked\",\"type\":\"event\"},{\"anonymous\":false,\"inputs\":[{\"indexed\":true,\"internalType\":\"address\",\"name\":\"user\",\"type\":\"address\"},{\"indexed\":false,\"internalType\":\"uint256\",\"name\":\"amountIn\",\"type\":\"uint256\"},{\"indexed\":false,\"internalType\":\"uint256\",\"name\":\"amountOut\",\"type\":\"uint256\"}],\"name\":\"Swapped\",\"type\":\"event\"},{\"anonymous\":false,\"inputs\":[{\"indexed\":true,\"internalType\":\"address\",\"name\":\"user\",\"type\":\"address\"},{\"indexed\":false,\"internalType\":\"uint256\",\"name\":\"amount\",\"type\":\"uint256\"}],\"name\":\"Withdrawn\",\"type\":\"event\"},{\"inputs\":[{\"internalType\":\"uint256\",\"name\":\"amount\",\"type\":\"uint256\"}],\"name\":\"deposit\",\"outputs\":[],\"stateMutability\":\"nonpayable\",\"type\":\"function\"},{\"inputs\":[{\"internalType\":\"address\",\"name\":\"\",\"type\":\"address\"}],\"name\":\"depositedBalance\",\"outputs\":[{\"internalType\":\"uint256\",\"name\":\"\",\"type\":\"uint256\"}],\"stateMutability\":\"view\",\"type\":\"function\"},{\"inputs\":[{\"internalType\":\"address\",\"name\":\"user\",\"type\":\"address\"}],\"name\":\"getDepositedBalance\",\"outputs\":[{\"internalType\":\"uint256\",\"name\":\"\",\"type\":\"uint256\"}],\"stateMutability\":\"view\",\"type\":\"function\"},{\"inputs\":[{\"internalType\":\"address\",\"name\":\"user\",\"type\":\"address\"}],\"name\":\"getStakedBalance\",\"outputs\":[{\"internalType\":\"uint256\",\"name\":\"\",\"type\":\"uint256\"}],\"stateMutability\":\"view\",\"type\":\"function\"},{\"inputs\":[{\"internalType\":\"address\",\"name\":\"token\",\"type\":\"address\"}],\"name\":\"getTokenBalance\",\"outputs\":[{\"internalType\":\"uint256\",\"name\":\"\",\"type\":\"uint256\"}],\"stateMutability\":\"view\",\"type\":\"function\"},{\"inputs\":[{\"internalType\":\"uint256\",\"name\":\"amount\",\"type\":\"uint256\"}],\"name\":\"stake\",\"outputs\":[],\"stateMutability\":\"nonpayable\",\"type\":\"function\"},{\"inputs\":[{\"internalType\":\"address\",\"name\":\"\",\"type\":\"address\"}],\"name\":\"stakedBalance\",\"outputs\":[{\"internalType\":\"uint256\",\"name\":\"\",\"type\":\"uint256\"}],\"stateMutability\":\"view\",\"type\":\"function\"},{\"inputs\":[{\"internalType\":\"uint256\",\"name\":\"amount\",\"type\":\"uint256\"}],\"name\":\"swap\",\"outputs\":[],\"stateMutability\":\"nonpayable\",\"type\":\"function\"},{\"inputs\":[],\"name\":\"tokenA\",\"outputs\":[{\"internalType\":\"address\",\"name\":\"\",\"type\":\"address\"}],\"stateMutability\":\"view\",\"type\":\"function\"},{\"inputs\":[],\"name\":\"tokenB\",\"outputs\":[{\"internalType\":\"address\",\"name\":\"\",\"type\":\"address\"}],\"stateMutability\":\"view\",\"type\":\"function\"},{\"inputs\":[],\"name\":\"totalDeposited\",\"outputs\":[{\"internalType\":\"uint256\",\"name\":\"\",\"type\":\"uint256\"}],\"stateMutability\":\"view\",\"type\":\"function\"},{\"inputs\":[],\"name\":\"totalStaked\",\"outputs\":[{\"internalType\":\"uint256\",\"name\":\"\",\"type\":\"uint256\"}],\"stateMutability\":\"view\",\"type\":\"function\"},{\"inputs\":[{\"internalType\":\"uint256\",\"name\":\"amount\",\"type\":\"uint256\"}],\"name\":\"withdraw\",\"outputs\":[],\"stateMutability\":\"nonpayable\",\"type\":\"function\"}]);\nvar simplestaking = simplestakingContract.deploy({\n     data: '0x608060405234801561000f575f5ffd5b5060405161167a38038061167a833981810160405281019061003191906101f1565b5f73ffffffffffffffffffffffffffffffffffffffff168273ffffffffffffffffffffffffffffffffffffffff160361009f576040517f08c379a000000000000000000000000000000000000000000000000000000000815260040161009690610289565b60405180910390fd5b5f73ffffffffffffffffffffffffffffffffffffffff168173ffffffffffffffffffffffffffffffffffffffff160361010d576040517f08c379a0000000000000000000000000000000000000000000000000000000008152600401610104906102f1565b60405180910390fd5b815f5f6101000a81548173ffffffffffffffffffffffffffffffffffffffff021916908373ffffffffffffffffffffffffffffffffffffffff1602179055508060015f6101000a81548173ffffffffffffffffffffffffffffffffffffffff021916908373ffffffffffffffffffffffffffffffffffffffff160217905550505061030f565b5f5ffd5b5f73ffffffffffffffffffffffffffffffffffffffff82169050919050565b5f6101c082610197565b9050919050565b6101d0816101b6565b81146101da575f5ffd5b50565b5f815190506101eb816101c7565b92915050565b5f5f6040838503121561020757610206610193565b5b5f610214858286016101dd565b9250506020610225858286016101dd565b9150509250929050565b5f82825260208201905092915050565b7f496e76616c696420746f6b656e412061646472657373000000000000000000005f82015250565b5f61027360168361022f565b915061027e8261023f565b602082019050919050565b5f6020820190508181035f8301526102a081610267565b9050919050565b7f496e76616c696420746f6b656e422061646472657373000000000000000000005f82015250565b5f6102db60168361022f565b91506102e6826102a7565b602082019050919050565b5f6020820190508181035f830152610308816102cf565b9050919050565b61135e8061031c5f395ff3fe608060405234801561000f575f5ffd5b50600436106100cd575f3560e01c8063602172671161008a578063a694fc3a11610064578063a694fc3a14610223578063b6b55f251461023f578063cfe69a051461025b578063ff50abdc1461028b576100cd565b806360217267146101b9578063817b1cd2146101e957806394b918de14610207576100cd565b80630fc63d10146100d15780632a973daf146100ef5780632e1a7d4d1461011f5780633a02a42d1461013b5780633aecd0e31461016b5780635f64b55b1461019b575b5f5ffd5b6100d96102a9565b6040516100e69190610d2b565b60405180910390f35b61010960048036038101906101049190610d72565b6102cd565b6040516101169190610db5565b60405180910390f35b61013960048036038101906101349190610df8565b610313565b005b61015560048036038101906101509190610d72565b61056c565b6040516101629190610db5565b60405180910390f35b61018560048036038101906101809190610d72565b6105b2565b6040516101929190610db5565b60405180910390f35b6101a3610632565b6040516101b09190610d2b565b60405180910390f35b6101d360048036038101906101ce9190610d72565b610657565b6040516101e09190610db5565b60405180910390f35b6101f161066c565b6040516101fe9190610db5565b60405180910390f35b610221600480360381019061021c9190610df8565b610672565b005b61023d60048036038101906102389190610df8565b61091b565b005b61025960048036038101906102549190610df8565b610af6565b005b61027560048036038101906102709190610d72565b610cd1565b6040516102829190610db5565b60405180910390f35b610293610ce6565b6040516102a09190610db5565b60405180910390f35b5f5f9054906101000a900473ffffffffffffffffffffffffffffffffffffffff1681565b5f60035f8373ffffffffffffffffffffffffffffffffffffffff1673ffffffffffffffffffffffffffffffffffffffff1681526020019081526020015f20549050919050565b5f8111610355576040517f08c379a000000000000000000000000000000000000000000000000000000000815260040161034c90610e7d565b60405180910390fd5b8060025f3373ffffffffffffffffffffffffffffffffffffffff1673ffffffffffffffffffffffffffffffffffffffff1681526020019081526020015f205410156103d5576040517f08c379a00000000000000000000000000000000000000000000000000000000081526004016103cc90610ee5565b60405180910390fd5b8060025f3373ffffffffffffffffffffffffffffffffffffffff1673ffffffffffffffffffffffffffffffffffffffff1681526020019081526020015f205f8282546104219190610f30565b925050819055508060045f8282546104399190610f30565b9250508190555060015f9054906101000a900473ffffffffffffffffffffffffffffffffffffffff1673ffffffffffffffffffffffffffffffffffffffff1663a9059cbb33836040518363ffffffff1660e01b815260040161049c929190610f63565b6020604051808303815f875af11580156104b8573d5f5f3e3d5ffd5b505050506040513d601f19601f820116820180604052508101906104dc9190610fbf565b61051b576040517f08c379a000000000000000000000000000000000000000000000000000000000815260040161051290611034565b60405180910390fd5b3373ffffffffffffffffffffffffffffffffffffffff167f7084f5476618d8e60b11ef0d7d3f06914655adb8793e28ff7f018d4c76d505d5826040516105619190610db5565b60405180910390a250565b5f60025f8373ffffffffffffffffffffffffffffffffffffffff1673ffffffffffffffffffffffffffffffffffffffff1681526020019081526020015f20549050919050565b5f8173ffffffffffffffffffffffffffffffffffffffff166370a08231306040518263ffffffff1660e01b81526004016105ec9190610d2b565b602060405180830381865afa158015610607573d5f5f3e3d5ffd5b505050506040513d601f19601f8201168201806040525081019061062b9190611066565b9050919050565b60015f9054906101000a900473ffffffffffffffffffffffffffffffffffffffff1681565b6002602052805f5260405f205f915090505481565b60045481565b5f81116106b4576040517f08c379a00000000000000000000000000000000000000000000000000000000081526004016106ab906110db565b60405180910390fd5b8060055410156106f9576040517f08c379a00000000000000000000000000000000000000000000000000000000081526004016106f090611143565b60405180910390fd5b5f5f9054906101000a900473ffffffffffffffffffffffffffffffffffffffff1673ffffffffffffffffffffffffffffffffffffffff166323b872dd3330846040518463ffffffff1660e01b815260040161075693929190611161565b6020604051808303815f875af1158015610772573d5f5f3e3d5ffd5b505050506040513d601f19601f820116820180604052508101906107969190610fbf565b6107d5576040517f08c379a00000000000000000000000000000000000000000000000000000000081526004016107cc906111e0565b60405180910390fd5b60015f9054906101000a900473ffffffffffffffffffffffffffffffffffffffff1673ffffffffffffffffffffffffffffffffffffffff1663a9059cbb33836040518363ffffffff1660e01b8152600401610831929190610f63565b6020604051808303815f875af115801561084d573d5f5f3e3d5ffd5b505050506040513d601f19601f820116820180604052508101906108719190610fbf565b6108b0576040517f08c379a00000000000000000000000000000000000000000000000000000000081526004016108a790611034565b60405180910390fd5b8060055f8282546108c19190610f30565b925050819055503373ffffffffffffffffffffffffffffffffffffffff167f3a9a9f34f5831e9c8ecb66ab3aa308b2ff31eaca434615f6c9cadc656a9af71c82836040516109109291906111fe565b60405180910390a250565b5f811161095d576040517f08c379a00000000000000000000000000000000000000000000000000000000081526004016109549061126f565b60405180910390fd5b60015f9054906101000a900473ffffffffffffffffffffffffffffffffffffffff1673ffffffffffffffffffffffffffffffffffffffff166323b872dd3330846040518463ffffffff1660e01b81526004016109bb93929190611161565b6020604051808303815f875af11580156109d7573d5f5f3e3d5ffd5b505050506040513d601f19601f820116820180604052508101906109fb9190610fbf565b610a3a576040517f08c379a0000000000000000000000000000000000000000000000000000000008152600401610a3190611034565b60405180910390fd5b8060025f3373ffffffffffffffffffffffffffffffffffffffff1673ffffffffffffffffffffffffffffffffffffffff1681526020019081526020015f205f828254610a86919061128d565b925050819055508060045f828254610a9e919061128d565b925050819055503373ffffffffffffffffffffffffffffffffffffffff167f9e71bc8eea02a63969f509818f2dafb9254532904319f9dbda79b67bd34a5f3d82604051610aeb9190610db5565b60405180910390a250565b5f8111610b38576040517f08c379a0000000000000000000000000000000000000000000000000000000008152600401610b2f9061130a565b60405180910390fd5b60015f9054906101000a900473ffffffffffffffffffffffffffffffffffffffff1673ffffffffffffffffffffffffffffffffffffffff166323b872dd3330846040518463ffffffff1660e01b8152600401610b9693929190611161565b6020604051808303815f875af1158015610bb2573d5f5f3e3d5ffd5b505050506040513d601f19601f82011682018060405250810190610bd69190610fbf565b610c15576040517f08c379a0000000000000000000000000000000000000000000000000000000008152600401610c0c90611034565b60405180910390fd5b8060035f3373ffffffffffffffffffffffffffffffffffffffff1673ffffffffffffffffffffffffffffffffffffffff1681526020019081526020015f205f828254610c61919061128d565b925050819055508060055f828254610c79919061128d565b925050819055503373ffffffffffffffffffffffffffffffffffffffff167f2da466a7b24304f47e87fa2e1e5a81b9831ce54fec19055ce277ca2f39ba42c482604051610cc69190610db5565b60405180910390a250565b6003602052805f5260405f205f915090505481565b60055481565b5f73ffffffffffffffffffffffffffffffffffffffff82169050919050565b5f610d1582610cec565b9050919050565b610d2581610d0b565b82525050565b5f602082019050610d3e5f830184610d1c565b92915050565b5f5ffd5b610d5181610d0b565b8114610d5b575f5ffd5b50565b5f81359050610d6c81610d48565b92915050565b5f60208284031215610d8757610d86610d44565b5b5f610d9484828501610d5e565b91505092915050565b5f819050919050565b610daf81610d9d565b82525050565b5f602082019050610dc85f830184610da6565b92915050565b610dd781610d9d565b8114610de1575f5ffd5b50565b5f81359050610df281610dce565b92915050565b5f60208284031215610e0d57610e0c610d44565b5b5f610e1a84828501610de4565b91505092915050565b5f82825260208201905092915050565b7f4d757374207769746864726177206d6f7265207468616e2030000000000000005f82015250565b5f610e67601983610e23565b9150610e7282610e33565b602082019050919050565b5f6020820190508181035f830152610e9481610e5b565b9050919050565b7f496e73756666696369656e74207374616b65642062616c616e636500000000005f82015250565b5f610ecf601b83610e23565b9150610eda82610e9b565b602082019050919050565b5f6020820190508181035f830152610efc81610ec3565b9050919050565b7f4e487b71000000000000000000000000000000000000000000000000000000005f52601160045260245ffd5b5f610f3a82610d9d565b9150610f4583610d9d565b9250828203905081811115610f5d57610f5c610f03565b5b92915050565b5f604082019050610f765f830185610d1c565b610f836020830184610da6565b9392505050565b5f8115159050919050565b610f9e81610f8a565b8114610fa8575f5ffd5b50565b5f81519050610fb981610f95565b92915050565b5f60208284031215610fd457610fd3610d44565b5b5f610fe184828501610fab565b91505092915050565b7f546f6b656e42207472616e73666572206661696c6564000000000000000000005f82015250565b5f61101e601683610e23565b915061102982610fea565b602082019050919050565b5f6020820190508181035f83015261104b81611012565b9050919050565b5f8151905061106081610dce565b92915050565b5f6020828403121561107b5761107a610d44565b5b5f61108884828501611052565b91505092915050565b7f4d7573742073776170206d6f7265207468616e203000000000000000000000005f82015250565b5f6110c5601583610e23565b91506110d082611091565b602082019050919050565b5f6020820190508181035f8301526110f2816110b9565b9050919050565b7f496e73756666696369656e7420746f6b656e42206c69717569646974790000005f82015250565b5f61112d601d83610e23565b9150611138826110f9565b602082019050919050565b5f6020820190508181035f83015261115a81611121565b9050919050565b5f6060820190506111745f830186610d1c565b6111816020830185610d1c565b61118e6040830184610da6565b949350505050565b7f546f6b656e41207472616e73666572206661696c6564000000000000000000005f82015250565b5f6111ca601683610e23565b91506111d582611196565b602082019050919050565b5f6020820190508181035f8301526111f7816111be565b9050919050565b5f6040820190506112115f830185610da6565b61121e6020830184610da6565b9392505050565b7f4d757374207374616b65206d6f7265207468616e2030000000000000000000005f82015250565b5f611259601683610e23565b915061126482611225565b602082019050919050565b5f6020820190508181035f8301526112868161124d565b9050919050565b5f61129782610d9d565b91506112a283610d9d565b92508282019050808211156112ba576112b9610f03565b5b92915050565b7f4d757374206465706f736974206d6f7265207468616e203000000000000000005f82015250565b5f6112f4601883610e23565b91506112ff826112c0565b602082019050919050565b5f6020820190508181035f830152611321816112e8565b905091905056fea26469706673582212206090dd2d841aaaf3095baf2986ec13c0e82627e8ecc82bc6986f9ad9d257561a64736f6c634300081e0033', \n     arguments: [\n          _tokenA,\n          _tokenB,\n     ]\n}).send({\n     from: web3.eth.accounts[0], \n     gas: '4700000'\n   }, function (e, contract){\n    console.log(e, contract);\n    if (typeof contract.address !== 'undefined') {\n         console.log('Contract mined! address: ' + contract.address + ' transactionHash: ' + contract.transactionHash);\n    }\n })",
	"functionHashes": {
		"60217267": "stakedBalance(address)",
		"b6b55f25": "deposit(uint256)",
		"cfe69a05": "depositedBalance(address)",
		"2a973daf": "getDepositedBalance(address)",
		"3a02a42d": "getStakedBalance(address)",
		"3aecd0e3": "getTokenBalance(address)",
		"a694fc3a": "stake(uint256)",
		"94b918de": "swap(uint256)",
		"0fc63d10": "tokenA()",
		"5f64b55b": "tokenB()",
		"ff50abdc": "totalDeposited()",
		"817b1cd2": "totalStaked()",
		"2e1a7d4d": "withdraw(uint256)"
	},
	"gasEstimates": {
		"Creation": {
			"codeDepositCost": "991600",
			"executionCost": "infinite",
			"totalCost": "infinite"
		},
		"External": {
			"deposit(uint256)": "infinite",
			"depositedBalance(address)": "2868",
			"getDepositedBalance(address)": "2852",
			"getStakedBalance(address)": "2896",
			"getTokenBalance(address)": "infinite",
			"stake(uint256)": "infinite",
			"stakedBalance(address)": "2825",
			"swap(uint256)": "infinite",
			"tokenA()": "2508",
			"tokenB()": "2619",
			"totalDeposited()": "2513",
			"totalStaked()": "2470",
			"withdraw(uint256)": "infinite"
		}
	},
	"devdoc": {
		"details": "A contract with tokenB staking and tokenA/tokenB swap functionality",
		"kind": "dev",
		"methods": {
			"constructor": {
				"details": "Constructor to set token addresses",
				"params": {
					"_tokenA": "Address of token A",
					"_tokenB": "Address of token B"
				}
			},
			"deposit(uint256)": {
				"details": "Deposit tokenB into the contract to provide swap liquidity",
				"params": {
					"amount": "The amount of tokenB to deposit"
				}
			},
			"getDepositedBalance(address)": {
				"details": "Get the deposited balance of a user",
				"params": {
					"user": "The address to check"
				},
				"returns": {
					"_0": "The deposited tokenB balance"
				}
			},
			"getStakedBalance(address)": {
				"details": "Get the staked balance of a user",
				"params": {
					"user": "The address to check"
				},
				"returns": {
					"_0": "The staked tokenB balance"
				}
			},
			"getTokenBalance(address)": {
				"details": "Get the contract's token balance",
				"params": {
					"token": "The token address to check"
				},
				"returns": {
					"_0": "The token balance"
				}
			},
			"stake(uint256)": {
				"details": "Stake tokenB into the contract",
				"params": {
					"amount": "The amount of tokenB to stake"
				}
			},
			"swap(uint256)": {
				"details": "Swap tokenA for tokenB (1:1 ratio) User sends tokenA and receives tokenB from deposited liquidity",
				"params": {
					"amount": "The amount of tokens to swap"
				}
			},
			"withdraw(uint256)": {
				"details": "Withdraw staked tokenB",
				"params": {
					"amount": "The amount to withdraw"
				}
			}
		},
		"title": "SimpleStaking",
		"version": 1
	},
	"userdoc": {
		"kind": "user",
		"methods": {},
		"version": 1
	},
	"Runtime Bytecode": {
		"immutableReferences": {},
		"linkReferences": {},
		"object": "608060405234801561000f575f5ffd5b50600436106100cd575f3560e01c8063602172671161008a578063a694fc3a11610064578063a694fc3a14610223578063b6b55f251461023f578063cfe69a051461025b578063ff50abdc1461028b576100cd565b806360217267146101b9578063817b1cd2146101e957806394b918de14610207576100cd565b80630fc63d10146100d15780632a973daf146100ef5780632e1a7d4d1461011f5780633a02a42d1461013b5780633aecd0e31461016b5780635f64b55b1461019b575b5f5ffd5b6100d96102a9565b6040516100e69190610d2b565b60405180910390f35b61010960048036038101906101049190610d72565b6102cd565b6040516101169190610db5565b60405180910390f35b61013960048036038101906101349190610df8565b610313565b005b61015560048036038101906101509190610d72565b61056c565b6040516101629190610db5565b60405180910390f35b61018560048036038101906101809190610d72565b6105b2565b6040516101929190610db5565b60405180910390f35b6101a3610632565b6040516101b09190610d2b565b60405180910390f35b6101d360048036038101906101ce9190610d72565b610657565b6040516101e09190610db5565b60405180910390f35b6101f161066c565b6040516101fe9190610db5565b60405180910390f35b610221600480360381019061021c9190610df8565b610672565b005b61023d60048036038101906102389190610df8565b61091b565b005b61025960048036038101906102549190610df8565b610af6565b005b61027560048036038101906102709190610d72565b610cd1565b6040516102829190610db5565b60405180910390f35b610293610ce6565b6040516102a09190610db5565b60405180910390f35b5f5f9054906101000a900473ffffffffffffffffffffffffffffffffffffffff1681565b5f60035f8373ffffffffffffffffffffffffffffffffffffffff1673ffffffffffffffffffffffffffffffffffffffff1681526020019081526020015f20549050919050565b5f8111610355576040517f08c379a000000000000000000000000000000000000000000000000000000000815260040161034c90610e7d565b60405180910390fd5b8060025f3373ffffffffffffffffffffffffffffffffffffffff1673ffffffffffffffffffffffffffffffffffffffff1681526020019081526020015f205410156103d5576040517f08c379a00000000000000000000000000000000000000000000000000000000081526004016103cc90610ee5565b60405180910390fd5b8060025f3373ffffffffffffffffffffffffffffffffffffffff1673ffffffffffffffffffffffffffffffffffffffff1681526020019081526020015f205f8282546104219190610f30565b925050819055508060045f8282546104399190610f30565b9250508190555060015f9054906101000a900473ffffffffffffffffffffffffffffffffffffffff1673ffffffffffffffffffffffffffffffffffffffff1663a9059cbb33836040518363ffffffff1660e01b815260040161049c929190610f63565b6020604051808303815f875af11580156104b8573d5f5f3e3d5ffd5b505050506040513d601f19601f820116820180604052508101906104dc9190610fbf565b61051b576040517f08c379a000000000000000000000000000000000000000000000000000000000815260040161051290611034565b60405180910390fd5b3373ffffffffffffffffffffffffffffffffffffffff167f7084f5476618d8e60b11ef0d7d3f06914655adb8793e28ff7f018d4c76d505d5826040516105619190610db5565b60405180910390a250565b5f60025f8373ffffffffffffffffffffffffffffffffffffffff1673ffffffffffffffffffffffffffffffffffffffff1681526020019081526020015f20549050919050565b5f8173ffffffffffffffffffffffffffffffffffffffff166370a08231306040518263ffffffff1660e01b81526004016105ec9190610d2b565b602060405180830381865afa158015610607573d5f5f3e3d5ffd5b505050506040513d601f19601f8201168201806040525081019061062b9190611066565b9050919050565b60015f9054906101000a900473ffffffffffffffffffffffffffffffffffffffff1681565b6002602052805f5260405f205f915090505481565b60045481565b5f81116106b4576040517f08c379a00000000000000000000000000000000000000000000000000000000081526004016106ab906110db565b60405180910390fd5b8060055410156106f9576040517f08c379a00000000000000000000000000000000000000000000000000000000081526004016106f090611143565b60405180910390fd5b5f5f9054906101000a900473ffffffffffffffffffffffffffffffffffffffff1673ffffffffffffffffffffffffffffffffffffffff166323b872dd3330846040518463ffffffff1660e01b815260040161075693929190611161565b6020604051808303815f875af1158015610772573d5f5f3e3d5ffd5b505050506040513d601f19601f820116820180604052508101906107969190610fbf565b6107d5576040517f08c379a00000000000000000000000000000000000000000000000000000000081526004016107cc906111e0565b60405180910390fd5b60015f9054906101000a900473ffffffffffffffffffffffffffffffffffffffff1673ffffffffffffffffffffffffffffffffffffffff1663a9059cbb33836040518363ffffffff1660e01b8152600401610831929190610f63565b6020604051808303815f875af115801561084d573d5f5f3e3d5ffd5b505050506040513d601f19601f820116820180604052508101906108719190610fbf565b6108b0576040517f08c379a00000000000000000000000000000000000000000000000000000000081526004016108a790611034565b60405180910390fd5b8060055f8282546108c19190610f30565b925050819055503373ffffffffffffffffffffffffffffffffffffffff167f3a9a9f34f5831e9c8ecb66ab3aa308b2ff31eaca434615f6c9cadc656a9af71c82836040516109109291906111fe565b60405180910390a250565b5f811161095d576040517f08c379a00000000000000000000000000000000000000000000000000000000081526004016109549061126f565b60405180910390fd5b60015f9054906101000a900473ffffffffffffffffffffffffffffffffffffffff1673ffffffffffffffffffffffffffffffffffffffff166323b872dd3330846040518463ffffffff1660e01b81526004016109bb93929190611161565b6020604051808303815f875af11580156109d7573d5f5f3e3d5ffd5b505050506040513d601f19601f820116820180604052508101906109fb9190610fbf565b610a3a576040517f08c379a0000000000000000000000000000000000000000000000000000000008152600401610a3190611034565b60405180910390fd5b8060025f3373ffffffffffffffffffffffffffffffffffffffff1673ffffffffffffffffffffffffffffffffffffffff1681526020019081526020015f205f828254610a86919061128d565b925050819055508060045f828254610a9e919061128d565b925050819055503373ffffffffffffffffffffffffffffffffffffffff167f9e71bc8eea02a63969f509818f2dafb9254532904319f9dbda79b67bd34a5f3d82604051610aeb9190610db5565b60405180910390a250565b5f8111610b38576040517f08c379a0000000000000000000000000000000000000000000000000000000008152600401610b2f9061130a565b60405180910390fd5b60015f9054906101000a900473ffffffffffffffffffffffffffffffffffffffff1673ffffffffffffffffffffffffffffffffffffffff166323b872dd3330846040518463ffffffff1660e01b8152600401610b9693929190611161565b6020604051808303815f875af1158015610bb2573d5f5f3e3d5ffd5b505050506040513d601f19601f82011682018060405250810190610bd69190610fbf565b610c15576040517f08c379a0000000000000000000000000000000000000000000000000000000008152600401610c0c90611034565b60405180910390fd5b8060035f3373ffffffffffffffffffffffffffffffffffffffff1673ffffffffffffffffffffffffffffffffffffffff1681526020019081526020015f205f828254610c61919061128d565b925050819055508060055f828254610c79919061128d565b925050819055503373ffffffffffffffffffffffffffffffffffffffff167f2da466a7b24304f47e87fa2e1e5a81b9831ce54fec19055ce277ca2f39ba42c482604051610cc69190610db5565b60405180910390a250565b6003602052805f5260405f205f915090505481565b60055481565b5f73ffffffffffffffffffffffffffffffffffffffff82169050919050565b5f610d1582610cec565b9050919050565b610d2581610d0b565b82525050565b5f602082019050610d3e5f830184610d1c565b92915050565b5f5ffd5b610d5181610d0b565b8114610d5b575f5ffd5b50565b5f81359050610d6c81610d48565b92915050565b5f60208284031215610d8757610d86610d44565b5b5f610d9484828501610d5e565b91505092915050565b5f819050919050565b610daf81610d9d565b82525050565b5f602082019050610dc85f830184610da6565b92915050565b610dd781610d9d565b8114610de1575f5ffd5b50565b5f81359050610df281610dce565b92915050565b5f60208284031215610e0d57610e0c610d44565b5b5f610e1a84828501610de4565b91505092915050565b5f82825260208201905092915050565b7f4d757374207769746864726177206d6f7265207468616e2030000000000000005f82015250565b5f610e67601983610e23565b9150610e7282610e33565b602082019050919050565b5f6020820190508181035f830152610e9481610e5b565b9050919050565b7f496e73756666696369656e74207374616b65642062616c616e636500000000005f82015250565b5f610ecf601b83610e23565b9150610eda82610e9b565b602082019050919050565b5f6020820190508181035f830152610efc81610ec3565b9050919050565b7f4e487b71000000000000000000000000000000000000000000000000000000005f52601160045260245ffd5b5f610f3a82610d9d565b9150610f4583610d9d565b9250828203905081811115610f5d57610f5c610f03565b5b92915050565b5f604082019050610f765f830185610d1c565b610f836020830184610da6565b9392505050565b5f8115159050919050565b610f9e81610f8a565b8114610fa8575f5ffd5b50565b5f81519050610fb981610f95565b92915050565b5f60208284031215610fd457610fd3610d44565b5b5f610fe184828501610fab565b91505092915050565b7f546f6b656e42207472616e73666572206661696c6564000000000000000000005f82015250565b5f61101e601683610e23565b915061102982610fea565b602082019050919050565b5f6020820190508181035f83015261104b81611012565b9050919050565b5f8151905061106081610dce565b92915050565b5f6020828403121561107b5761107a610d44565b5b5f61108884828501611052565b91505092915050565b7f4d7573742073776170206d6f7265207468616e203000000000000000000000005f82015250565b5f6110c5601583610e23565b91506110d082611091565b602082019050919050565b5f6020820190508181035f8301526110f2816110b9565b9050919050565b7f496e73756666696369656e7420746f6b656e42206c69717569646974790000005f82015250565b5f61112d601d83610e23565b9150611138826110f9565b602082019050919050565b5f6020820190508181035f83015261115a81611121565b9050919050565b5f6060820190506111745f830186610d1c565b6111816020830185610d1c565b61118e6040830184610da6565b949350505050565b7f546f6b656e41207472616e73666572206661696c6564000000000000000000005f82015250565b5f6111ca601683610e23565b91506111d582611196565b602082019050919050565b5f6020820190508181035f8301526111f7816111be565b9050919050565b5f6040820190506112115f830185610da6565b61121e6020830184610da6565b9392505050565b7f4d757374207374616b65206d6f7265207468616e2030000000000000000000005f82015250565b5f611259601683610e23565b915061126482611225565b602082019050919050565b5f6020820190508181035f8301526112868161124d565b9050919050565b5f61129782610d9d565b91506112a283610d9d565b92508282019050808211156112ba576112b9610f03565b5b92915050565b7f4d757374206465706f736974206d6f7265207468616e203000000000000000005f82015250565b5f6112f4601883610e23565b91506112ff826112c0565b602082019050919050565b5f6020820190508181035f830152611321816112e8565b905091905056fea26469706673582212206090dd2d841aaaf3095baf2986ec13c0e82627e8ecc82bc6986f9ad9d257561a64736f6c634300081e0033",
		"opcodes": "PUSH1 0x80 PUSH1 0x40 MSTORE CALLVALUE DUP1 ISZERO PUSH2 0xF JUMPI PUSH0 PUSH0 REVERT JUMPDEST POP PUSH1 0x4 CALLDATASIZE LT PUSH2 0xCD JUMPI PUSH0 CALLDATALOAD PUSH1 0xE0 SHR DUP1 PUSH4 0x60217267 GT PUSH2 0x8A JUMPI DUP1 PUSH4 0xA694FC3A GT PUSH2 0x64 JUMPI DUP1 PUSH4 0xA694FC3A EQ PUSH2 0x223 JUMPI DUP1 PUSH4 0xB6B55F25 EQ PUSH2 0x23F JUMPI DUP1 PUSH4 0xCFE69A05 EQ PUSH2 0x25B JUMPI DUP1 PUSH4 0xFF50ABDC EQ PUSH2 0x28B JUMPI PUSH2 0xCD JUMP JUMPDEST DUP1 PUSH4 0x60217267 EQ PUSH2 0x1B9 JUMPI DUP1 PUSH4 0x817B1CD2 EQ PUSH2 0x1E9 JUMPI DUP1 PUSH4 0x94B918DE EQ PUSH2 0x207 JUMPI PUSH2 0xCD JUMP JUMPDEST DUP1 PUSH4 0xFC63D10 EQ PUSH2 0xD1 JUMPI DUP1 PUSH4 0x2A973DAF EQ PUSH2 0xEF JUMPI DUP1 PUSH4 0x2E1A7D4D EQ PUSH2 0x11F JUMPI DUP1 PUSH4 0x3A02A42D EQ PUSH2 0x13B JUMPI DUP1 PUSH4 0x3AECD0E3 EQ PUSH2 0x16B JUMPI DUP1 PUSH4 0x5F64B55B EQ PUSH2 0x19B JUMPI JUMPDEST PUSH0 PUSH0 REVERT JUMPDEST PUSH2 0xD9 PUSH2 0x2A9 JUMP JUMPDEST PUSH1 0x40 MLOAD PUSH2 0xE6 SWAP2 SWAP1 PUSH2 0xD2B JUMP JUMPDEST PUSH1 0x40 MLOAD DUP1 SWAP2 SUB SWAP1 RETURN JUMPDEST PUSH2 0x109 PUSH1 0x4 DUP1 CALLDATASIZE SUB DUP2 ADD SWAP1 PUSH2 0x104 SWAP2 SWAP1 PUSH2 0xD72 JUMP JUMPDEST PUSH2 0x2CD JUMP JUMPDEST PUSH1 0x40 MLOAD PUSH2 0x116 SWAP2 SWAP1 PUSH2 0xDB5 JUMP JUMPDEST PUSH1 0x40 MLOAD DUP1 SWAP2 SUB SWAP1 RETURN JUMPDEST PUSH2 0x139 PUSH1 0x4 DUP1 CALLDATASIZE SUB DUP2 ADD SWAP1 PUSH2 0x134 SWAP2 SWAP1 PUSH2 0xDF8 JUMP JUMPDEST PUSH2 0x313 JUMP JUMPDEST STOP JUMPDEST PUSH2 0x155 PUSH1 0x4 DUP1 CALLDATASIZE SUB DUP2 ADD SWAP1 PUSH2 0x150 SWAP2 SWAP1 PUSH2 0xD72 JUMP JUMPDEST PUSH2 0x56C JUMP JUMPDEST PUSH1 0x40 MLOAD PUSH2 0x162 SWAP2 SWAP1 PUSH2 0xDB5 JUMP JUMPDEST PUSH1 0x40 MLOAD DUP1 SWAP2 SUB SWAP1 RETURN JUMPDEST PUSH2 0x185 PUSH1 0x4 DUP1 CALLDATASIZE SUB DUP2 ADD SWAP1 PUSH2 0x180 SWAP2 SWAP1 PUSH2 0xD72 JUMP JUMPDEST PUSH2 0x5B2 JUMP JUMPDEST PUSH1 0x40 MLOAD PUSH2 0x192 SWAP2 SWAP1 PUSH2 0xDB5 JUMP JUMPDEST PUSH1 0x40 MLOAD DUP1 SWAP2 SUB SWAP1 RETURN JUMPDEST PUSH2 0x1A3 PUSH2 0x632 JUMP JUMPDEST PUSH1 0x40 MLOAD PUSH2 0x1B0 SWAP2 SWAP1 PUSH2 0xD2B JUMP JUMPDEST PUSH1 0x40 MLOAD DUP1 SWAP2 SUB SWAP1 RETURN JUMPDEST PUSH2 0x1D3 PUSH1 0x4 DUP1 CALLDATASIZE SUB DUP2 ADD SWAP1 PUSH2 0x1CE SWAP2 SWAP1 PUSH2 0xD72 JUMP JUMPDEST PUSH2 0x657 JUMP JUMPDEST PUSH1 0x40 MLOAD PUSH2 0x1E0 SWAP2 SWAP1 PUSH2 0xDB5 JUMP JUMPDEST PUSH1 0x40 MLOAD DUP1 SWAP2 SUB SWAP1 RETURN JUMPDEST PUSH2 0x1F1 PUSH2 0x66C JUMP JUMPDEST PUSH1 0x40 MLOAD PUSH2 0x1FE SWAP2 SWAP1 PUSH2 0xDB5 JUMP JUMPDEST PUSH1 0x40 MLOAD DUP1 SWAP2 SUB SWAP1 RETURN JUMPDEST PUSH2 0x221 PUSH1 0x4 DUP1 CALLDATASIZE SUB DUP2 ADD SWAP1 PUSH2 0x21C SWAP2 SWAP1 PUSH2 0xDF8 JUMP JUMPDEST PUSH2 0x672 JUMP JUMPDEST STOP JUMPDEST PUSH2 0x23D PUSH1 0x4 DUP1 CALLDATASIZE SUB DUP2 ADD SWAP1 PUSH2 0x238 SWAP2 SWAP1 PUSH2 0xDF8 JUMP JUMPDEST PUSH2 0x91B JUMP JUMPDEST STOP JUMPDEST PUSH2 0x259 PUSH1 0x4 DUP1 CALLDATASIZE SUB DUP2 ADD SWAP1 PUSH2 0x254 SWAP2 SWAP1 PUSH2 0xDF8 JUMP JUMPDEST PUSH2 0xAF6 JUMP JUMPDEST STOP JUMPDEST PUSH2 0x275 PUSH1 0x4 DUP1 CALLDATASIZE SUB DUP2 ADD SWAP1 PUSH2 0x270 SWAP2 SWAP1 PUSH2 0xD72 JUMP JUMPDEST PUSH2 0xCD1 JUMP JUMPDEST PUSH1 0x40 MLOAD PUSH2 0x282 SWAP2 SWAP1 PUSH2 0xDB5 JUMP JUMPDEST PUSH1 0x40 MLOAD DUP1 SWAP2 SUB SWAP1 RETURN JUMPDEST PUSH2 0x293 PUSH2 0xCE6 JUMP JUMPDEST PUSH1 0x40 MLOAD PUSH2 0x2A0 SWAP2 SWAP1 PUSH2 0xDB5 JUMP JUMPDEST PUSH1 0x40 MLOAD DUP1 SWAP2 SUB SWAP1 RETURN JUMPDEST PUSH0 PUSH0 SWAP1 SLOAD SWAP1 PUSH2 0x100 EXP SWAP1 DIV PUSH20 0xFFFFFFFFFFFFFFFFFFFFFFFFFFFFFFFFFFFFFFFF AND DUP2 JUMP JUMPDEST PUSH0 PUSH1 0x3 PUSH0 DUP4 PUSH20 0xFFFFFFFFFFFFFFFFFFFFFFFFFFFFFFFFFFFFFFFF AND PUSH20 0xFFFFFFFFFFFFFFFFFFFFFFFFFFFFFFFFFFFFFFFF AND DUP2 MSTORE PUSH1 0x20 ADD SWAP1 DUP2 MSTORE PUSH1 0x20 ADD PUSH0 KECCAK256 SLOAD SWAP1 POP SWAP2 SWAP1 POP JUMP JUMPDEST PUSH0 DUP2 GT PUSH2 0x355 JUMPI PUSH1 0x40 MLOAD PUSH32 0x8C379A000000000000000000000000000000000000000000000000000000000 DUP2 MSTORE PUSH1 0x4 ADD PUSH2 0x34C SWAP1 PUSH2 0xE7D JUMP JUMPDEST PUSH1 0x40 MLOAD DUP1 SWAP2 SUB SWAP1 REVERT JUMPDEST DUP1 PUSH1 0x2 PUSH0 CALLER PUSH20 0xFFFFFFFFFFFFFFFFFFFFFFFFFFFFFFFFFFFFFFFF AND PUSH20 0xFFFFFFFFFFFFFFFFFFFFFFFFFFFFFFFFFFFFFFFF AND DUP2 MSTORE PUSH1 0x20 ADD SWAP1 DUP2 MSTORE PUSH1 0x20 ADD PUSH0 KECCAK256 SLOAD LT ISZERO PUSH2 0x3D5 JUMPI PUSH1 0x40 MLOAD PUSH32 0x8C379A000000000000000000000000000000000000000000000000000000000 DUP2 MSTORE PUSH1 0x4 ADD PUSH2 0x3CC SWAP1 PUSH2 0xEE5 JUMP JUMPDEST PUSH1 0x40 MLOAD DUP1 SWAP2 SUB SWAP1 REVERT JUMPDEST DUP1 PUSH1 0x2 PUSH0 CALLER PUSH20 0xFFFFFFFFFFFFFFFFFFFFFFFFFFFFFFFFFFFFFFFF AND PUSH20 0xFFFFFFFFFFFFFFFFFFFFFFFFFFFFFFFFFFFFFFFF AND DUP2 MSTORE PUSH1 0x20 ADD SWAP1 DUP2 MSTORE PUSH1 0x20 ADD PUSH0 KECCAK256 PUSH0 DUP3 DUP3 SLOAD PUSH2 0x421 SWAP2 SWAP1 PUSH2 0xF30 JUMP JUMPDEST SWAP3 POP POP DUP2 SWAP1 SSTORE POP DUP1 PUSH1 0x4 PUSH0 DUP3 DUP3 SLOAD PUSH2 0x439 SWAP2 SWAP1 PUSH2 0xF30 JUMP JUMPDEST SWAP3 POP POP DUP2 SWAP1 SSTORE POP PUSH1 0x1 PUSH0 SWAP1 SLOAD SWAP1 PUSH2 0x100 EXP SWAP1 DIV PUSH20 0xFFFFFFFFFFFFFFFFFFFFFFFFFFFFFFFFFFFFFFFF AND PUSH20 0xFFFFFFFFFFFFFFFFFFFFFFFFFFFFFFFFFFFFFFFF AND PUSH4 0xA9059CBB CALLER DUP4 PUSH1 0x40 MLOAD DUP4 PUSH4 0xFFFFFFFF AND PUSH1 0xE0 SHL DUP2 MSTORE PUSH1 0x4 ADD PUSH2 0x49C SWAP3 SWAP2 SWAP1 PUSH2 0xF63 JUMP JUMPDEST PUSH1 0x20 PUSH1 0x40 MLOAD DUP1 DUP4 SUB DUP2 PUSH0 DUP8 GAS CALL ISZERO DUP1 ISZERO PUSH2 0x4B8 JUMPI RETURNDATASIZE PUSH0 PUSH0 RETURNDATACOPY RETURNDATASIZE PUSH0 REVERT JUMPDEST POP POP POP POP PUSH1 0x40 MLOAD RETURNDATASIZE PUSH1 0x1F NOT PUSH1 0x1F DUP3 ADD AND DUP3 ADD DUP1 PUSH1 0x40 MSTORE POP DUP2 ADD SWAP1 PUSH2 0x4DC SWAP2 SWAP1 PUSH2 0xFBF JUMP JUMPDEST PUSH2 0x51B JUMPI PUSH1 0x40 MLOAD PUSH32 0x8C379A000000000000000000000000000000000000000000000000000000000 DUP2 MSTORE PUSH1 0x4 ADD PUSH2 0x512 SWAP1 PUSH2 0x1034 JUMP JUMPDEST PUSH1 0x40 MLOAD DUP1 SWAP2 SUB SWAP1 REVERT JUMPDEST CALLER PUSH20 0xFFFFFFFFFFFFFFFFFFFFFFFFFFFFFFFFFFFFFFFF AND PUSH32 0x7084F5476618D8E60B11EF0D7D3F06914655ADB8793E28FF7F018D4C76D505D5 DUP3 PUSH1 0x40 MLOAD PUSH2 0x561 SWAP2 SWAP1 PUSH2 0xDB5 JUMP JUMPDEST PUSH1 0x40 MLOAD DUP1 SWAP2 SUB SWAP1 LOG2 POP JUMP JUMPDEST PUSH0 PUSH1 0x2 PUSH0 DUP4 PUSH20 0xFFFFFFFFFFFFFFFFFFFFFFFFFFFFFFFFFFFFFFFF AND PUSH20 0xFFFFFFFFFFFFFFFFFFFFFFFFFFFFFFFFFFFFFFFF AND DUP2 MSTORE PUSH1 0x20 ADD SWAP1 DUP2 MSTORE PUSH1 0x20 ADD PUSH0 KECCAK256 SLOAD SWAP1 POP SWAP2 SWAP1 POP JUMP JUMPDEST PUSH0 DUP2 PUSH20 0xFFFFFFFFFFFFFFFFFFFFFFFFFFFFFFFFFFFFFFFF AND PUSH4 0x70A08231 ADDRESS PUSH1 0x40 MLOAD DUP3 PUSH4 0xFFFFFFFF AND PUSH1 0xE0 SHL DUP2 MSTORE PUSH1 0x4 ADD PUSH2 0x5EC SWAP2 SWAP1 PUSH2 0xD2B JUMP JUMPDEST PUSH1 0x20 PUSH1 0x40 MLOAD DUP1 DUP4 SUB DUP2 DUP7 GAS STATICCALL ISZERO DUP1 ISZERO PUSH2 0x607 JUMPI RETURNDATASIZE PUSH0 PUSH0 RETURNDATACOPY RETURNDATASIZE PUSH0 REVERT JUMPDEST POP POP POP POP PUSH1 0x40 MLOAD RETURNDATASIZE PUSH1 0x1F NOT PUSH1 0x1F DUP3 ADD AND DUP3 ADD DUP1 PUSH1 0x40 MSTORE POP DUP2 ADD SWAP1 PUSH2 0x62B SWAP2 SWAP1 PUSH2 0x1066 JUMP JUMPDEST SWAP1 POP SWAP2 SWAP1 POP JUMP JUMPDEST PUSH1 0x1 PUSH0 SWAP1 SLOAD SWAP1 PUSH2 0x100 EXP SWAP1 DIV PUSH20 0xFFFFFFFFFFFFFFFFFFFFFFFFFFFFFFFFFFFFFFFF AND DUP2 JUMP JUMPDEST PUSH1 0x2 PUSH1 0x20 MSTORE DUP1 PUSH0 MSTORE PUSH1 0x40 PUSH0 KECCAK256 PUSH0 SWAP2 POP SWAP1 POP SLOAD DUP2 JUMP JUMPDEST PUSH1 0x4 SLOAD DUP2 JUMP JUMPDEST PUSH0 DUP2 GT PUSH2 0x6B4 JUMPI PUSH1 0x40 MLOAD PUSH32 0x8C379A000000000000000000000000000000000000000000000000000000000 DUP2 MSTORE PUSH1 0x4 ADD PUSH2 0x6AB SWAP1 PUSH2 0x10DB JUMP JUMPDEST PUSH1 0x40 MLOAD DUP1 SWAP2 SUB SWAP1 REVERT JUMPDEST DUP1 PUSH1 0x5 SLOAD LT ISZERO PUSH2 0x6F9 JUMPI PUSH1 0x40 MLOAD PUSH32 0x8C379A000000000000000000000000000000000000000000000000000000000 DUP2 MSTORE PUSH1 0x4 ADD PUSH2 0x6F0 SWAP1 PUSH2 0x1143 JUMP JUMPDEST PUSH1 0x40 MLOAD DUP1 SWAP2 SUB SWAP1 REVERT JUMPDEST PUSH0 PUSH0 SWAP1 SLOAD SWAP1 PUSH2 0x100 EXP SWAP1 DIV PUSH20 0xFFFFFFFFFFFFFFFFFFFFFFFFFFFFFFFFFFFFFFFF AND PUSH20 0xFFFFFFFFFFFFFFFFFFFFFFFFFFFFFFFFFFFFFFFF AND PUSH4 0x23B872DD CALLER ADDRESS DUP5 PUSH1 0x40 MLOAD DUP5 PUSH4 0xFFFFFFFF AND PUSH1 0xE0 SHL DUP2 MSTORE PUSH1 0x4 ADD PUSH2 0x756 SWAP4 SWAP3 SWAP2 SWAP1 PUSH2 0x1161 JUMP JUMPDEST PUSH1 0x20 PUSH1 0x40 MLOAD DUP1 DUP4 SUB DUP2 PUSH0 DUP8 GAS CALL ISZERO DUP1 ISZERO PUSH2 0x772 JUMPI RETURNDATASIZE PUSH0 PUSH0 RETURNDATACOPY RETURNDATASIZE PUSH0 REVERT JUMPDEST POP POP POP POP PUSH1 0x40 MLOAD RETURNDATASIZE PUSH1 0x1F NOT PUSH1 0x1F DUP3 ADD AND DUP3 ADD DUP1 PUSH1 0x40 MSTORE POP DUP2 ADD SWAP1 PUSH2 0x796 SWAP2 SWAP1 PUSH2 0xFBF JUMP JUMPDEST PUSH2 0x7D5 JUMPI PUSH1 0x40 MLOAD PUSH32 0x8C379A000000000000000000000000000000000000000000000000000000000 DUP2 MSTORE PUSH1 0x4 ADD PUSH2 0x7CC SWAP1 PUSH2 0x11E0 JUMP JUMPDEST PUSH1 0x40 MLOAD DUP1 SWAP2 SUB SWAP1 REVERT JUMPDEST PUSH1 0x1 PUSH0 SWAP1 SLOAD SWAP1 PUSH2 0x100 EXP SWAP1 DIV PUSH20 0xFFFFFFFFFFFFFFFFFFFFFFFFFFFFFFFFFFFFFFFF AND PUSH20 0xFFFFFFFFFFFFFFFFFFFFFFFFFFFFFFFFFFFFFFFF AND PUSH4 0xA9059CBB CALLER DUP4 PUSH1 0x40 MLOAD DUP4 PUSH4 0xFFFFFFFF AND PUSH1 0xE0 SHL DUP2 MSTORE PUSH1 0x4 ADD PUSH2 0x831 SWAP3 SWAP2 SWAP1 PUSH2 0xF63 JUMP JUMPDEST PUSH1 0x20 PUSH1 0x40 MLOAD DUP1 DUP4 SUB DUP2 PUSH0 DUP8 GAS CALL ISZERO DUP1 ISZERO PUSH2 0x84D JUMPI RETURNDATASIZE PUSH0 PUSH0 RETURNDATACOPY RETURNDATASIZE PUSH0 REVERT JUMPDEST POP POP POP POP PUSH1 0x40 MLOAD RETURNDATASIZE PUSH1 0x1F NOT PUSH1 0x1F DUP3 ADD AND DUP3 ADD DUP1 PUSH1 0x40 MSTORE POP DUP2 ADD SWAP1 PUSH2 0x871 SWAP2 SWAP1 PUSH2 0xFBF JUMP JUMPDEST PUSH2 0x8B0 JUMPI PUSH1 0x40 MLOAD PUSH32 0x8C379A000000000000000000000000000000000000000000000000000000000 DUP2 MSTORE PUSH1 0x4 ADD PUSH2 0x8A7 SWAP1 PUSH2 0x1034 JUMP JUMPDEST PUSH1 0x40 MLOAD DUP1 SWAP2 SUB SWAP1 REVERT JUMPDEST DUP1 PUSH1 0x5 PUSH0 DUP3 DUP3 SLOAD PUSH2 0x8C1 SWAP2 SWAP1 PUSH2 0xF30 JUMP JUMPDEST SWAP3 POP POP DUP2 SWAP1 SSTORE POP CALLER PUSH20 0xFFFFFFFFFFFFFFFFFFFFFFFFFFFFFFFFFFFFFFFF AND PUSH32 0x3A9A9F34F5831E9C8ECB66AB3AA308B2FF31EACA434615F6C9CADC656A9AF71C DUP3 DUP4 PUSH1 0x40 MLOAD PUSH2 0x910 SWAP3 SWAP2 SWAP1 PUSH2 0x11FE JUMP JUMPDEST PUSH1 0x40 MLOAD DUP1 SWAP2 SUB SWAP1 LOG2 POP JUMP JUMPDEST PUSH0 DUP2 GT PUSH2 0x95D JUMPI PUSH1 0x40 MLOAD PUSH32 0x8C379A000000000000000000000000000000000000000000000000000000000 DUP2 MSTORE PUSH1 0x4 ADD PUSH2 0x954 SWAP1 PUSH2 0x126F JUMP JUMPDEST PUSH1 0x40 MLOAD DUP1 SWAP2 SUB SWAP1 REVERT JUMPDEST PUSH1 0x1 PUSH0 SWAP1 SLOAD SWAP1 PUSH2 0x100 EXP SWAP1 DIV PUSH20 0xFFFFFFFFFFFFFFFFFFFFFFFFFFFFFFFFFFFFFFFF AND PUSH20 0xFFFFFFFFFFFFFFFFFFFFFFFFFFFFFFFFFFFFFFFF AND PUSH4 0x23B872DD CALLER ADDRESS DUP5 PUSH1 0x40 MLOAD DUP5 PUSH4 0xFFFFFFFF AND PUSH1 0xE0 SHL DUP2 MSTORE PUSH1 0x4 ADD PUSH2 0x9BB SWAP4 SWAP3 SWAP2 SWAP1 PUSH2 0x1161 JUMP JUMPDEST PUSH1 0x20 PUSH1 0x40 MLOAD DUP1 DUP4 SUB DUP2 PUSH0 DUP8 GAS CALL ISZERO DUP1 ISZERO PUSH2 0x9D7 JUMPI RETURNDATASIZE PUSH0 PUSH0 RETURNDATACOPY RETURNDATASIZE PUSH0 REVERT JUMPDEST POP POP POP POP PUSH1 0x40 MLOAD RETURNDATASIZE PUSH1 0x1F NOT PUSH1 0x1F DUP3 ADD AND DUP3 ADD DUP1 PUSH1 0x40 MSTORE POP DUP2 ADD SWAP1 PUSH2 0x9FB SWAP2 SWAP1 PUSH2 0xFBF JUMP JUMPDEST PUSH2 0xA3A JUMPI PUSH1 0x40 MLOAD PUSH32 0x8C379A000000000000000000000000000000000000000000000000000000000 DUP2 MSTORE PUSH1 0x4 ADD PUSH2 0xA31 SWAP1 PUSH2 0x1034 JUMP JUMPDEST PUSH1 0x40 MLOAD DUP1 SWAP2 SUB SWAP1 REVERT JUMPDEST DUP1 PUSH1 0x2 PUSH0 CALLER PUSH20 0xFFFFFFFFFFFFFFFFFFFFFFFFFFFFFFFFFFFFFFFF AND PUSH20 0xFFFFFFFFFFFFFFFFFFFFFFFFFFFFFFFFFFFFFFFF AND DUP2 MSTORE PUSH1 0x20 ADD SWAP1 DUP2 MSTORE PUSH1 0x20 ADD PUSH0 KECCAK256 PUSH0 DUP3 DUP3 SLOAD PUSH2 0xA86 SWAP2 SWAP1 PUSH2 0x128D JUMP JUMPDEST SWAP3 POP POP DUP2 SWAP1 SSTORE POP DUP1 PUSH1 0x4 PUSH0 DUP3 DUP3 SLOAD PUSH2 0xA9E SWAP2 SWAP1 PUSH2 0x128D JUMP JUMPDEST SWAP3 POP POP DUP2 SWAP1 SSTORE POP CALLER PUSH20 0xFFFFFFFFFFFFFFFFFFFFFFFFFFFFFFFFFFFFFFFF AND PUSH32 0x9E71BC8EEA02A63969F509818F2DAFB9254532904319F9DBDA79B67BD34A5F3D DUP3 PUSH1 0x40 MLOAD PUSH2 0xAEB SWAP2 SWAP1 PUSH2 0xDB5 JUMP JUMPDEST PUSH1 0x40 MLOAD DUP1 SWAP2 SUB SWAP1 LOG2 POP JUMP JUMPDEST PUSH0 DUP2 GT PUSH2 0xB38 JUMPI PUSH1 0x40 MLOAD PUSH32 0x8C379A000000000000000000000000000000000000000000000000000000000 DUP2 MSTORE PUSH1 0x4 ADD PUSH2 0xB2F SWAP1 PUSH2 0x130A JUMP JUMPDEST PUSH1 0x40 MLOAD DUP1 SWAP2 SUB SWAP1 REVERT JUMPDEST PUSH1 0x1 PUSH0 SWAP1 SLOAD SWAP1 PUSH2 0x100 EXP SWAP1 DIV PUSH20 0xFFFFFFFFFFFFFFFFFFFFFFFFFFFFFFFFFFFFFFFF AND PUSH20 0xFFFFFFFFFFFFFFFFFFFFFFFFFFFFFFFFFFFFFFFF AND PUSH4 0x23B872DD CALLER ADDRESS DUP5 PUSH1 0x40 MLOAD DUP5 PUSH4 0xFFFFFFFF AND PUSH1 0xE0 SHL DUP2 MSTORE PUSH1 0x4 ADD PUSH2 0xB96 SWAP4 SWAP3 SWAP2 SWAP1 PUSH2 0x1161 JUMP JUMPDEST PUSH1 0x20 PUSH1 0x40 MLOAD DUP1 DUP4 SUB DUP2 PUSH0 DUP8 GAS CALL ISZERO DUP1 ISZERO PUSH2 0xBB2 JUMPI RETURNDATASIZE PUSH0 PUSH0 RETURNDATACOPY RETURNDATASIZE PUSH0 REVERT JUMPDEST POP POP POP POP PUSH1 0x40 MLOAD RETURNDATASIZE PUSH1 0x1F NOT PUSH1 0x1F DUP3 ADD AND DUP3 ADD DUP1 PUSH1 0x40 MSTORE POP DUP2 ADD SWAP1 PUSH2 0xBD6 SWAP2 SWAP1 PUSH2 0xFBF JUMP JUMPDEST PUSH2 0xC15 JUMPI PUSH1 0x40 MLOAD PUSH32 0x8C379A000000000000000000000000000000000000000000000000000000000 DUP2 MSTORE PUSH1 0x4 ADD PUSH2 0xC0C SWAP1 PUSH2 0x1034 JUMP JUMPDEST PUSH1 0x40 MLOAD DUP1 SWAP2 SUB SWAP1 REVERT JUMPDEST DUP1 PUSH1 0x3 PUSH0 CALLER PUSH20 0xFFFFFFFFFFFFFFFFFFFFFFFFFFFFFFFFFFFFFFFF AND PUSH20 0xFFFFFFFFFFFFFFFFFFFFFFFFFFFFFFFFFFFFFFFF AND DUP2 MSTORE PUSH1 0x20 ADD SWAP1 DUP2 MSTORE PUSH1 0x20 ADD PUSH0 KECCAK256 PUSH0 DUP3 DUP3 SLOAD PUSH2 0xC61 SWAP2 SWAP1 PUSH2 0x128D JUMP JUMPDEST SWAP3 POP POP DUP2 SWAP1 SSTORE POP DUP1 PUSH1 0x5 PUSH0 DUP3 DUP3 SLOAD PUSH2 0xC79 SWAP2 SWAP1 PUSH2 0x128D JUMP JUMPDEST SWAP3 POP POP DUP2 SWAP1 SSTORE POP CALLER PUSH20 0xFFFFFFFFFFFFFFFFFFFFFFFFFFFFFFFFFFFFFFFF AND PUSH32 0x2DA466A7B24304F47E87FA2E1E5A81B9831CE54FEC19055CE277CA2F39BA42C4 DUP3 PUSH1 0x40 MLOAD PUSH2 0xCC6 SWAP2 SWAP1 PUSH2 0xDB5 JUMP JUMPDEST PUSH1 0x40 MLOAD DUP1 SWAP2 SUB SWAP1 LOG2 POP JUMP JUMPDEST PUSH1 0x3 PUSH1 0x20 MSTORE DUP1 PUSH0 MSTORE PUSH1 0x40 PUSH0 KECCAK256 PUSH0 SWAP2 POP SWAP1 POP SLOAD DUP2 JUMP JUMPDEST PUSH1 0x5 SLOAD DUP2 JUMP JUMPDEST PUSH0 PUSH20 0xFFFFFFFFFFFFFFFFFFFFFFFFFFFFFFFFFFFFFFFF DUP3 AND SWAP1 POP SWAP2 SWAP1 POP JUMP JUMPDEST PUSH0 PUSH2 0xD15 DUP3 PUSH2 0xCEC JUMP JUMPDEST SWAP1 POP SWAP2 SWAP1 POP JUMP JUMPDEST PUSH2 0xD25 DUP2 PUSH2 0xD0B JUMP JUMPDEST DUP3 MSTORE POP POP JUMP JUMPDEST PUSH0 PUSH1 0x20 DUP3 ADD SWAP1 POP PUSH2 0xD3E PUSH0 DUP4 ADD DUP5 PUSH2 0xD1C JUMP JUMPDEST SWAP3 SWAP2 POP POP JUMP JUMPDEST PUSH0 PUSH0 REVERT JUMPDEST PUSH2 0xD51 DUP2 PUSH2 0xD0B JUMP JUMPDEST DUP2 EQ PUSH2 0xD5B JUMPI PUSH0 PUSH0 REVERT JUMPDEST POP JUMP JUMPDEST PUSH0 DUP2 CALLDATALOAD SWAP1 POP PUSH2 0xD6C DUP2 PUSH2 0xD48 JUMP JUMPDEST SWAP3 SWAP2 POP POP JUMP JUMPDEST PUSH0 PUSH1 0x20 DUP3 DUP5 SUB SLT ISZERO PUSH2 0xD87 JUMPI PUSH2 0xD86 PUSH2 0xD44 JUMP JUMPDEST JUMPDEST PUSH0 PUSH2 0xD94 DUP5 DUP3 DUP6 ADD PUSH2 0xD5E JUMP JUMPDEST SWAP2 POP POP SWAP3 SWAP2 POP POP JUMP JUMPDEST PUSH0 DUP2 SWAP1 POP SWAP2 SWAP1 POP JUMP JUMPDEST PUSH2 0xDAF DUP2 PUSH2 0xD9D JUMP JUMPDEST DUP3 MSTORE POP POP JUMP JUMPDEST PUSH0 PUSH1 0x20 DUP3 ADD SWAP1 POP PUSH2 0xDC8 PUSH0 DUP4 ADD DUP5 PUSH2 0xDA6 JUMP JUMPDEST SWAP3 SWAP2 POP POP JUMP JUMPDEST PUSH2 0xDD7 DUP2 PUSH2 0xD9D JUMP JUMPDEST DUP2 EQ PUSH2 0xDE1 JUMPI PUSH0 PUSH0 REVERT JUMPDEST POP JUMP JUMPDEST PUSH0 DUP2 CALLDATALOAD SWAP1 POP PUSH2 0xDF2 DUP2 PUSH2 0xDCE JUMP JUMPDEST SWAP3 SWAP2 POP POP JUMP JUMPDEST PUSH0 PUSH1 0x20 DUP3 DUP5 SUB SLT ISZERO PUSH2 0xE0D JUMPI PUSH2 0xE0C PUSH2 0xD44 JUMP JUMPDEST JUMPDEST PUSH0 PUSH2 0xE1A DUP5 DUP3 DUP6 ADD PUSH2 0xDE4 JUMP JUMPDEST SWAP2 POP POP SWAP3 SWAP2 POP POP JUMP JUMPDEST PUSH0 DUP3 DUP3 MSTORE PUSH1 0x20 DUP3 ADD SWAP1 POP SWAP3 SWAP2 POP POP JUMP JUMPDEST PUSH32 0x4D757374207769746864726177206D6F7265207468616E203000000000000000 PUSH0 DUP3 ADD MSTORE POP JUMP JUMPDEST PUSH0 PUSH2 0xE67 PUSH1 0x19 DUP4 PUSH2 0xE23 JUMP JUMPDEST SWAP2 POP PUSH2 0xE72 DUP3 PUSH2 0xE33 JUMP JUMPDEST PUSH1 0x20 DUP3 ADD SWAP1 POP SWAP2 SWAP1 POP JUMP JUMPDEST PUSH0 PUSH1 0x20 DUP3 ADD SWAP1 POP DUP2 DUP2 SUB PUSH0 DUP4 ADD MSTORE PUSH2 0xE94 DUP2 PUSH2 0xE5B JUMP JUMPDEST SWAP1 POP SWAP2 SWAP1 POP JUMP JUMPDEST PUSH32 0x496E73756666696369656E74207374616B65642062616C616E63650000000000 PUSH0 DUP3 ADD MSTORE POP JUMP JUMPDEST PUSH0 PUSH2 0xECF PUSH1 0x1B DUP4 PUSH2 0xE23 JUMP JUMPDEST SWAP2 POP PUSH2 0xEDA DUP3 PUSH2 0xE9B JUMP JUMPDEST PUSH1 0x20 DUP3 ADD SWAP1 POP SWAP2 SWAP1 POP JUMP JUMPDEST PUSH0 PUSH1 0x20 DUP3 ADD SWAP1 POP DUP2 DUP2 SUB PUSH0 DUP4 ADD MSTORE PUSH2 0xEFC DUP2 PUSH2 0xEC3 JUMP JUMPDEST SWAP1 POP SWAP2 SWAP1 POP JUMP JUMPDEST PUSH32 0x4E487B7100000000000000000000000000000000000000000000000000000000 PUSH0 MSTORE PUSH1 0x11 PUSH1 0x4 MSTORE PUSH1 0x24 PUSH0 REVERT JUMPDEST PUSH0 PUSH2 0xF3A DUP3 PUSH2 0xD9D JUMP JUMPDEST SWAP2 POP PUSH2 0xF45 DUP4 PUSH2 0xD9D JUMP JUMPDEST SWAP3 POP DUP3 DUP3 SUB SWAP1 POP DUP2 DUP2 GT ISZERO PUSH2 0xF5D JUMPI PUSH2 0xF5C PUSH2 0xF03 JUMP JUMPDEST JUMPDEST SWAP3 SWAP2 POP POP JUMP JUMPDEST PUSH0 PUSH1 0x40 DUP3 ADD SWAP1 POP PUSH2 0xF76 PUSH0 DUP4 ADD DUP6 PUSH2 0xD1C JUMP JUMPDEST PUSH2 0xF83 PUSH1 0x20 DUP4 ADD DUP5 PUSH2 0xDA6 JUMP JUMPDEST SWAP4 SWAP3 POP POP POP JUMP JUMPDEST PUSH0 DUP2 ISZERO ISZERO SWAP1 POP SWAP2 SWAP1 POP JUMP JUMPDEST PUSH2 0xF9E DUP2 PUSH2 0xF8A JUMP JUMPDEST DUP2 EQ PUSH2 0xFA8 JUMPI PUSH0 PUSH0 REVERT JUMPDEST POP JUMP JUMPDEST PUSH0 DUP2 MLOAD SWAP1 POP PUSH2 0xFB9 DUP2 PUSH2 0xF95 JUMP JUMPDEST SWAP3 SWAP2 POP POP JUMP JUMPDEST PUSH0 PUSH1 0x20 DUP3 DUP5 SUB SLT ISZERO PUSH2 0xFD4 JUMPI PUSH2 0xFD3 PUSH2 0xD44 JUMP JUMPDEST JUMPDEST PUSH0 PUSH2 0xFE1 DUP5 DUP3 DUP6 ADD PUSH2 0xFAB JUMP JUMPDEST SWAP2 POP POP SWAP3 SWAP2 POP POP JUMP JUMPDEST PUSH32 0x546F6B656E42207472616E73666572206661696C656400000000000000000000 PUSH0 DUP3 ADD MSTORE POP JUMP JUMPDEST PUSH0 PUSH2 0x101E PUSH1 0x16 DUP4 PUSH2 0xE23 JUMP JUMPDEST SWAP2 POP PUSH2 0x1029 DUP3 PUSH2 0xFEA JUMP JUMPDEST PUSH1 0x20 DUP3 ADD SWAP1 POP SWAP2 SWAP1 POP JUMP JUMPDEST PUSH0 PUSH1 0x20 DUP3 ADD SWAP1 POP DUP2 DUP2 SUB PUSH0 DUP4 ADD MSTORE PUSH2 0x104B DUP2 PUSH2 0x1012 JUMP JUMPDEST SWAP1 POP SWAP2 SWAP1 POP JUMP JUMPDEST PUSH0 DUP2 MLOAD SWAP1 POP PUSH2 0x1060 DUP2 PUSH2 0xDCE JUMP JUMPDEST SWAP3 SWAP2 POP POP JUMP JUMPDEST PUSH0 PUSH1 0x20 DUP3 DUP5 SUB SLT ISZERO PUSH2 0x107B JUMPI PUSH2 0x107A PUSH2 0xD44 JUMP JUMPDEST JUMPDEST PUSH0 PUSH2 0x1088 DUP5 DUP3 DUP6 ADD PUSH2 0x1052 JUMP JUMPDEST SWAP2 POP POP SWAP3 SWAP2 POP POP JUMP JUMPDEST PUSH32 0x4D7573742073776170206D6F7265207468616E20300000000000000000000000 PUSH0 DUP3 ADD MSTORE POP JUMP JUMPDEST PUSH0 PUSH2 0x10C5 PUSH1 0x15 DUP4 PUSH2 0xE23 JUMP JUMPDEST SWAP2 POP PUSH2 0x10D0 DUP3 PUSH2 0x1091 JUMP JUMPDEST PUSH1 0x20 DUP3 ADD SWAP1 POP SWAP2 SWAP1 POP JUMP JUMPDEST PUSH0 PUSH1 0x20 DUP3 ADD SWAP1 POP DUP2 DUP2 SUB PUSH0 DUP4 ADD MSTORE PUSH2 0x10F2 DUP2 PUSH2 0x10B9 JUMP JUMPDEST SWAP1 POP SWAP2 SWAP1 POP JUMP JUMPDEST PUSH32 0x496E73756666696369656E7420746F6B656E42206C6971756964697479000000 PUSH0 DUP3 ADD MSTORE POP JUMP JUMPDEST PUSH0 PUSH2 0x112D PUSH1 0x1D DUP4 PUSH2 0xE23 JUMP JUMPDEST SWAP2 POP PUSH2 0x1138 DUP3 PUSH2 0x10F9 JUMP JUMPDEST PUSH1 0x20 DUP3 ADD SWAP1 POP SWAP2 SWAP1 POP JUMP JUMPDEST PUSH0 PUSH1 0x20 DUP3 ADD SWAP1 POP DUP2 DUP2 SUB PUSH0 DUP4 ADD MSTORE PUSH2 0x115A DUP2 PUSH2 0x1121 JUMP JUMPDEST SWAP1 POP SWAP2 SWAP1 POP JUMP JUMPDEST PUSH0 PUSH1 0x60 DUP3 ADD SWAP1 POP PUSH2 0x1174 PUSH0 DUP4 ADD DUP7 PUSH2 0xD1C JUMP JUMPDEST PUSH2 0x1181 PUSH1 0x20 DUP4 ADD DUP6 PUSH2 0xD1C JUMP JUMPDEST PUSH2 0x118E PUSH1 0x40 DUP4 ADD DUP5 PUSH2 0xDA6 JUMP JUMPDEST SWAP5 SWAP4 POP POP POP POP JUMP JUMPDEST PUSH32 0x546F6B656E41207472616E73666572206661696C656400000000000000000000 PUSH0 DUP3 ADD MSTORE POP JUMP JUMPDEST PUSH0 PUSH2 0x11CA PUSH1 0x16 DUP4 PUSH2 0xE23 JUMP JUMPDEST SWAP2 POP PUSH2 0x11D5 DUP3 PUSH2 0x1196 JUMP JUMPDEST PUSH1 0x20 DUP3 ADD SWAP1 POP SWAP2 SWAP1 POP JUMP JUMPDEST PUSH0 PUSH1 0x20 DUP3 ADD SWAP1 POP DUP2 DUP2 SUB PUSH0 DUP4 ADD MSTORE PUSH2 0x11F7 DUP2 PUSH2 0x11BE JUMP JUMPDEST SWAP1 POP SWAP2 SWAP1 POP JUMP JUMPDEST PUSH0 PUSH1 0x40 DUP3 ADD SWAP1 POP PUSH2 0x1211 PUSH0 DUP4 ADD DUP6 PUSH2 0xDA6 JUMP JUMPDEST PUSH2 0x121E PUSH1 0x20 DUP4 ADD DUP5 PUSH2 0xDA6 JUMP JUMPDEST SWAP4 SWAP3 POP POP POP JUMP JUMPDEST PUSH32 0x4D757374207374616B65206D6F7265207468616E203000000000000000000000 PUSH0 DUP3 ADD MSTORE POP JUMP JUMPDEST PUSH0 PUSH2 0x1259 PUSH1 0x16 DUP4 PUSH2 0xE23 JUMP JUMPDEST SWAP2 POP PUSH2 0x1264 DUP3 PUSH2 0x1225 JUMP JUMPDEST PUSH1 0x20 DUP3 ADD SWAP1 POP SWAP2 SWAP1 POP JUMP JUMPDEST PUSH0 PUSH1 0x20 DUP3 ADD SWAP1 POP DUP2 DUP2 SUB PUSH0 DUP4 ADD MSTORE PUSH2 0x1286 DUP2 PUSH2 0x124D JUMP JUMPDEST SWAP1 POP SWAP2 SWAP1 POP JUMP JUMPDEST PUSH0 PUSH2 0x1297 DUP3 PUSH2 0xD9D JUMP JUMPDEST SWAP2 POP PUSH2 0x12A2 DUP4 PUSH2 0xD9D JUMP JUMPDEST SWAP3 POP DUP3 DUP3 ADD SWAP1 POP DUP1 DUP3 GT ISZERO PUSH2 0x12BA JUMPI PUSH2 0x12B9 PUSH2 0xF03 JUMP JUMPDEST JUMPDEST SWAP3 SWAP2 POP POP JUMP JUMPDEST PUSH32 0x4D757374206465706F736974206D6F7265207468616E20300000000000000000 PUSH0 DUP3 ADD MSTORE POP JUMP JUMPDEST PUSH0 PUSH2 0x12F4 PUSH1 0x18 DUP4 PUSH2 0xE23 JUMP JUMPDEST SWAP2 POP PUSH2 0x12FF DUP3 PUSH2 0x12C0 JUMP JUMPDEST PUSH1 0x20 DUP3 ADD SWAP1 POP SWAP2 SWAP1 POP JUMP JUMPDEST PUSH0 PUSH1 0x20 DUP3 ADD SWAP1 POP DUP2 DUP2 SUB PUSH0 DUP4 ADD MSTORE PUSH2 0x1321 DUP2 PUSH2 0x12E8 JUMP JUMPDEST SWAP1 POP SWAP2 SWAP1 POP JUMP INVALID LOG2 PUSH5 0x6970667358 0x22 SLT KECCAK256 PUSH1 0x90 0xDD 0x2D DUP5 BYTE 0xAA RETURN MULMOD JUMPDEST 0xAF 0x29 DUP7 EOFCREATE 0x13 0xC0 0xE8 0x26 0x27 0xE8 EOFCREATE 0xC8 0x2B 0xC6 SWAP9 PUSH16 0x9AD9D257561A64736F6C634300081E00 CALLER "
	},
	"Assembly": ".code\n  PUSH 80\t\t\tcontract SimpleStaking {\\n    ...\n  PUSH 40\t\t\tcontract SimpleStaking {\\n    ...\n  MSTORE \t\t\tcontract SimpleStaking {\\n    ...\n  CALLVALUE \t\t\tconstructor(address _tokenA, a...\n  DUP1 \t\t\tconstructor(address _tokenA, a...\n  ISZERO \t\t\tconstructor(address _tokenA, a...\n  PUSH [tag] 1\t\t\tconstructor(address _tokenA, a...\n  JUMPI \t\t\tconstructor(address _tokenA, a...\n  PUSH 0\t\t\tconstructor(address _tokenA, a...\n  PUSH 0\t\t\tconstructor(address _tokenA, a...\n  REVERT \t\t\tconstructor(address _tokenA, a...\ntag 1\t\t\tconstructor(address _tokenA, a...\n  JUMPDEST \t\t\tconstructor(address _tokenA, a...\n  POP \t\t\tconstructor(address _tokenA, a...\n  PUSH 40\t\t\tconstructor(address _tokenA, a...\n  MLOAD \t\t\tconstructor(address _tokenA, a...\n  PUSHSIZE \t\t\tconstructor(address _tokenA, a...\n  CODESIZE \t\t\tconstructor(address _tokenA, a...\n  SUB \t\t\tconstructor(address _tokenA, a...\n  DUP1 \t\t\tconstructor(address _tokenA, a...\n  PUSHSIZE \t\t\tconstructor(address _tokenA, a...\n  DUP4 \t\t\tconstructor(address _tokenA, a...\n  CODECOPY \t\t\tconstructor(address _tokenA, a...\n  DUP2 \t\t\tconstructor(address _tokenA, a...\n  DUP2 \t\t\tconstructor(address _tokenA, a...\n  ADD \t\t\tconstructor(address _tokenA, a...\n  PUSH 40\t\t\tconstructor(address _tokenA, a...\n  MSTORE \t\t\tconstructor(address _tokenA, a...\n  DUP2 \t\t\tconstructor(address _tokenA, a...\n  ADD \t\t\tconstructor(address _tokenA, a...\n  SWAP1 \t\t\tconstructor(address _tokenA, a...\n  PUSH [tag] 2\t\t\tconstructor(address _tokenA, a...\n  SWAP2 \t\t\tconstructor(address _tokenA, a...\n  SWAP1 \t\t\tconstructor(address _tokenA, a...\n  PUSH [tag] 3\t\t\tconstructor(address _tokenA, a...\n  JUMP \t\t\tconstructor(address _tokenA, a...\ntag 2\t\t\tconstructor(address _tokenA, a...\n  JUMPDEST \t\t\tconstructor(address _tokenA, a...\n  PUSH 0\t\t\t0\n  PUSH FFFFFFFFFFFFFFFFFFFFFFFFFFFFFFFFFFFFFFFF\t\t\t_tokenA != address(0)\n  AND \t\t\t_tokenA != address(0)\n  DUP3 \t\t\t_tokenA\n  PUSH FFFFFFFFFFFFFFFFFFFFFFFFFFFFFFFFFFFFFFFF\t\t\t_tokenA != address(0)\n  AND \t\t\t_tokenA != address(0)\n  SUB \t\t\t_tokenA != address(0)\n  PUSH [tag] 6\t\t\trequire(_tokenA != address(0),...\n  JUMPI \t\t\trequire(_tokenA != address(0),...\n  PUSH 40\t\t\trequire(_tokenA != address(0),...\n  MLOAD \t\t\trequire(_tokenA != address(0),...\n  PUSH 8C379A000000000000000000000000000000000000000000000000000000000\t\t\trequire(_tokenA != address(0),...\n  DUP2 \t\t\trequire(_tokenA != address(0),...\n  MSTORE \t\t\trequire(_tokenA != address(0),...\n  PUSH 4\t\t\trequire(_tokenA != address(0),...\n  ADD \t\t\trequire(_tokenA != address(0),...\n  PUSH [tag] 7\t\t\trequire(_tokenA != address(0),...\n  SWAP1 \t\t\trequire(_tokenA != address(0),...\n  PUSH [tag] 8\t\t\trequire(_tokenA != address(0),...\n  JUMP \t\t\trequire(_tokenA != address(0),...\ntag 7\t\t\trequire(_tokenA != address(0),...\n  JUMPDEST \t\t\trequire(_tokenA != address(0),...\n  PUSH 40\t\t\trequire(_tokenA != address(0),...\n  MLOAD \t\t\trequire(_tokenA != address(0),...\n  DUP1 \t\t\trequire(_tokenA != address(0),...\n  SWAP2 \t\t\trequire(_tokenA != address(0),...\n  SUB \t\t\trequire(_tokenA != address(0),...\n  SWAP1 \t\t\trequire(_tokenA != address(0),...\n  REVERT \t\t\trequire(_tokenA != address(0),...\ntag 6\t\t\trequire(_tokenA != address(0),...\n  JUMPDEST \t\t\trequire(_tokenA != address(0),...\n  PUSH 0\t\t\t0\n  PUSH FFFFFFFFFFFFFFFFFFFFFFFFFFFFFFFFFFFFFFFF\t\t\t_tokenB != address(0)\n  AND \t\t\t_tokenB != address(0)\n  DUP2 \t\t\t_tokenB\n  PUSH FFFFFFFFFFFFFFFFFFFFFFFFFFFFFFFFFFFFFFFF\t\t\t_tokenB != address(0)\n  AND \t\t\t_tokenB != address(0)\n  SUB \t\t\t_tokenB != address(0)\n  PUSH [tag] 9\t\t\trequire(_tokenB != address(0),...\n  JUMPI \t\t\trequire(_tokenB != address(0),...\n  PUSH 40\t\t\trequire(_tokenB != address(0),...\n  MLOAD \t\t\trequire(_tokenB != address(0),...\n  PUSH 8C379A000000000000000000000000000000000000000000000000000000000\t\t\trequire(_tokenB != address(0),...\n  DUP2 \t\t\trequire(_tokenB != address(0),...\n  MSTORE \t\t\trequire(_tokenB != address(0),...\n  PUSH 4\t\t\trequire(_tokenB != address(0),...\n  ADD \t\t\trequire(_tokenB != address(0),...\n  PUSH [tag] 10\t\t\trequire(_tokenB != address(0),...\n  SWAP1 \t\t\trequire(_tokenB != address(0),...\n  PUSH [tag] 11\t\t\trequire(_tokenB != address(0),...\n  JUMP \t\t\trequire(_tokenB != address(0),...\ntag 10\t\t\trequire(_tokenB != address(0),...\n  JUMPDEST \t\t\trequire(_tokenB != address(0),...\n  PUSH 40\t\t\trequire(_tokenB != address(0),...\n  MLOAD \t\t\trequire(_tokenB != address(0),...\n  DUP1 \t\t\trequire(_tokenB != address(0),...\n  SWAP2 \t\t\trequire(_tokenB != address(0),...\n  SUB \t\t\trequire(_tokenB != address(0),...\n  SWAP1 \t\t\trequire(_tokenB != address(0),...\n  REVERT \t\t\trequire(_tokenB != address(0),...\ntag 9\t\t\trequire(_tokenB != address(0),...\n  JUMPDEST \t\t\trequire(_tokenB != address(0),...\n  DUP2 \t\t\t_tokenA\n  PUSH 0\t\t\ttokenA\n  PUSH 0\t\t\ttokenA\n  PUSH 100\t\t\ttokenA = _tokenA\n  EXP \t\t\ttokenA = _tokenA\n  DUP2 \t\t\ttokenA = _tokenA\n  SLOAD \t\t\ttokenA = _tokenA\n  DUP2 \t\t\ttokenA = _tokenA\n  PUSH FFFFFFFFFFFFFFFFFFFFFFFFFFFFFFFFFFFFFFFF\t\t\ttokenA = _tokenA\n  MUL \t\t\ttokenA = _tokenA\n  NOT \t\t\ttokenA = _tokenA\n  AND \t\t\ttokenA = _tokenA\n  SWAP1 \t\t\ttokenA = _tokenA\n  DUP4 \t\t\ttokenA = _tokenA\n  PUSH FFFFFFFFFFFFFFFFFFFFFFFFFFFFFFFFFFFFFFFF\t\t\ttokenA = _tokenA\n  AND \t\t\ttokenA = _tokenA\n  MUL \t\t\ttokenA = _tokenA\n  OR \t\t\ttokenA = _tokenA\n  SWAP1 \t\t\ttokenA = _tokenA\n  SSTORE \t\t\ttokenA = _tokenA\n  POP \t\t\ttokenA = _tokenA\n  DUP1 \t\t\t_tokenB\n  PUSH 1\t\t\ttokenB\n  PUSH 0\t\t\ttokenB\n  PUSH 100\t\t\ttokenB = _tokenB\n  EXP \t\t\ttokenB = _tokenB\n  DUP2 \t\t\ttokenB = _tokenB\n  SLOAD \t\t\ttokenB = _tokenB\n  DUP2 \t\t\ttokenB = _tokenB\n  PUSH FFFFFFFFFFFFFFFFFFFFFFFFFFFFFFFFFFFFFFFF\t\t\ttokenB = _tokenB\n  MUL \t\t\ttokenB = _tokenB\n  NOT \t\t\ttokenB = _tokenB\n  AND \t\t\ttokenB = _tokenB\n  SWAP1 \t\t\ttokenB = _tokenB\n  DUP4 \t\t\ttokenB = _tokenB\n  PUSH FFFFFFFFFFFFFFFFFFFFFFFFFFFFFFFFFFFFFFFF\t\t\ttokenB = _tokenB\n  AND \t\t\ttokenB = _tokenB\n  MUL \t\t\ttokenB = _tokenB\n  OR \t\t\ttokenB = _tokenB\n  SWAP1 \t\t\ttokenB = _tokenB\n  SSTORE \t\t\ttokenB = _tokenB\n  POP \t\t\ttokenB = _tokenB\n  POP \t\t\tconstructor(address _tokenA, a...\n  POP \t\t\tconstructor(address _tokenA, a...\n  PUSH [tag] 12\t\t\tcontract SimpleStaking {\\n    ...\n  JUMP \t\t\tcontract SimpleStaking {\\n    ...\ntag 14\t\t\tn transferFrom(address sender,...\n  JUMPDEST \t\t\tn transferFrom(address sender,...\n  PUSH 0\t\t\tf\n  PUSH 0\t\t\ta\n  REVERT \t\t\ttion transfe\ntag 16\t\t\t}\\n\\n/**\\n * @title SimpleStak...\n  JUMPDEST \t\t\t}\\n\\n/**\\n * @title SimpleStak...\n  PUSH 0\t\t\tv A con\n  PUSH FFFFFFFFFFFFFFFFFFFFFFFFFFFFFFFFFFFFFFFF\t\t\tenA/tokenB swap functionality\\...\n  DUP3 \t\t\tand t\n  AND \t\t\ting and tokenA/tokenB swap fun...\n  SWAP1 \t\t\ttokenB staking and tokenA/toke...\n  POP \t\t\ttokenB staking and tokenA/toke...\n  SWAP2 \t\t\t}\\n\\n/**\\n * @title SimpleStak...\n  SWAP1 \t\t\t}\\n\\n/**\\n * @title SimpleStak...\n  POP \t\t\t}\\n\\n/**\\n * @title SimpleStak...\n  JUMP \t\t\t}\\n\\n/**\\n * @title SimpleStak...\ntag 17\t\t\tg {\\n    // Token addresses\\n ...\n  JUMPDEST \t\t\tg {\\n    // Token addresses\\n ...\n  PUSH 0\t\t\ts publi\n  PUSH [tag] 31\t\t\tpublic tokenB;\\n    \\n    \n  DUP3 \t\t\t \\n   \n  PUSH [tag] 16\t\t\tpublic tokenB;\\n    \\n    \n  JUMP \t\t\tpublic tokenB;\\n    \\n    \ntag 31\t\t\tpublic tokenB;\\n    \\n    \n  JUMPDEST \t\t\tpublic tokenB;\\n    \\n    \n  SWAP1 \t\t\t   address public tokenB;\\n   ...\n  POP \t\t\t   address public tokenB;\\n   ...\n  SWAP2 \t\t\tg {\\n    // Token addresses\\n ...\n  SWAP1 \t\t\tg {\\n    // Token addresses\\n ...\n  POP \t\t\tg {\\n    // Token addresses\\n ...\n  JUMP \t\t\tg {\\n    // Token addresses\\n ...\ntag 18\t\t\to track each user's staked tok...\n  JUMPDEST \t\t\to track each user's staked tok...\n  PUSH [tag] 33\t\t\t public stakedBalance;\\n \n  DUP2 \t\t\tnce;\\n\n  PUSH [tag] 17\t\t\t public stakedBalance;\\n \n  JUMP \t\t\t public stakedBalance;\\n \ntag 33\t\t\t public stakedBalance;\\n \n  JUMPDEST \t\t\t public stakedBalance;\\n \n  DUP2 \t\t\tint25\n  EQ \t\t\t> uint256) public stakedBalanc...\n  PUSH [tag] 34\t\t\t(address => uint256) public st...\n  JUMPI \t\t\t(address => uint256) public st...\n  PUSH 0\t\t\ti\n  PUSH 0\t\t\ta\n  REVERT \t\t\t   // Mappin\ntag 34\t\t\t(address => uint256) public st...\n  JUMPDEST \t\t\t(address => uint256) public st...\n  POP \t\t\to track each user's staked tok...\n  JUMP \t\t\to track each user's staked tok...\ntag 19\t\t\th user's deposited tokenB bala...\n  JUMPDEST \t\t\th user's deposited tokenB bala...\n  PUSH 0\t\t\t  map\n  DUP2 \t\t\tublic \n  MLOAD \t\t\t256) public d\n  SWAP1 \t\t\ts => uint256) public d\n  POP \t\t\ts => uint256) public d\n  PUSH [tag] 36\t\t\talance;\\n    \\n    // Total am...\n  DUP2 \t\t\tmount\n  PUSH [tag] 18\t\t\talance;\\n    \\n    // Total am...\n  JUMP \t\t\talance;\\n    \\n    // Total am...\ntag 36\t\t\talance;\\n    \\n    // Total am...\n  JUMPDEST \t\t\talance;\\n    \\n    // Total am...\n  SWAP3 \t\t\th user's deposited tokenB bala...\n  SWAP2 \t\t\th user's deposited tokenB bala...\n  POP \t\t\th user's deposited tokenB bala...\n  POP \t\t\th user's deposited tokenB bala...\n  JUMP \t\t\th user's deposited tokenB bala...\ntag 3\t\t\taked\\n    uint256 public total...\n  JUMPDEST \t\t\taked\\n    uint256 public total...\n  PUSH 0\t\t\ted for\n  PUSH 0\t\t\twaps\\n \n  PUSH 40\t\t\t//\n  DUP4 \t\t\td;\\n    \\n \n  DUP6 \t\t\tlDeposi\n  SUB \t\t\ttotalDeposited;\\n    \\n  \n  SLT \t\t\tlic totalDeposited;\\n    \\n   ...\n  ISZERO \t\t\tpublic totalDeposited;\\n    \\n...\n  PUSH [tag] 38\t\t\tpublic totalDeposited;\\n    \\n...\n  JUMPI \t\t\tpublic totalDeposited;\\n    \\n...\n  PUSH [tag] 39\t\t\tnts\\n    event Staked(address ...\n  PUSH [tag] 14\t\t\tnts\\n    event Staked(address ...\n  JUMP \t\t\tnts\\n    event Staked(address ...\ntag 39\t\t\tnts\\n    event Staked(address ...\n  JUMPDEST \t\t\tnts\\n    event Staked(address ...\ntag 38\t\t\tpublic totalDeposited;\\n    \\n...\n  JUMPDEST \t\t\tpublic totalDeposited;\\n    \\n...\n  PUSH 0\t\t\t \n  PUSH [tag] 40\t\t\ts indexed user, uint256 amount...\n  DUP6 \t\t\tss inde\n  DUP3 \t\t\tped(ad\n  DUP7 \t\t\t event Sw\n  ADD \t\t\t\\n    event Swapped(add\n  PUSH [tag] 19\t\t\ts indexed user, uint256 amount...\n  JUMP \t\t\ts indexed user, uint256 amount...\ntag 40\t\t\ts indexed user, uint256 amount...\n  JUMPDEST \t\t\ts indexed user, uint256 amount...\n  SWAP3 \t\t\tted(address indexed user, uint...\n  POP \t\t\tted(address indexed user, uint...\n  POP \t\t\texed user, uint256 amount);\\n ...\n  PUSH 20\t\t\t  \n  PUSH [tag] 41\t\t\tstructor to set token addresse...\n  DUP6 \t\t\tdress o\n  DUP3 \t\t\ttokenA\n  DUP7 \t\t\t * @param\n  ADD \t\t\t     * @param _tokenA \n  PUSH [tag] 19\t\t\tstructor to set token addresse...\n  JUMP \t\t\tstructor to set token addresse...\ntag 41\t\t\tstructor to set token addresse...\n  JUMPDEST \t\t\tstructor to set token addresse...\n  SWAP2 \t\t\t* @dev Constructor to set toke...\n  POP \t\t\t* @dev Constructor to set toke...\n  POP \t\t\tuntIn, uint256 amountOut);\\n  ...\n  SWAP3 \t\t\taked\\n    uint256 public total...\n  POP \t\t\taked\\n    uint256 public total...\n  SWAP3 \t\t\taked\\n    uint256 public total...\n  SWAP1 \t\t\taked\\n    uint256 public total...\n  POP \t\t\taked\\n    uint256 public total...\n  JUMP \t\t\taked\\n    uint256 public total...\ntag 20\t\t\t_tokenB Address of token B\\n  ...\n  JUMPDEST \t\t\t_tokenB Address of token B\\n  ...\n  PUSH 0\t\t\t {\\n        \n  DUP3 \t\t\tess(0)\n  DUP3 \t\t\t ad\n  MSTORE \t\t\tkenA != address(0),\n  PUSH 20\t\t\t   r\n  DUP3 \t\t\t   \n  ADD \t\t\t\");\\n        re\n  SWAP1 \t\t\t tokenA address\");\\n        re\n  POP \t\t\t tokenA address\");\\n        re\n  SWAP3 \t\t\t_tokenB Address of token B\\n  ...\n  SWAP2 \t\t\t_tokenB Address of token B\\n  ...\n  POP \t\t\t_tokenB Address of token B\\n  ...\n  POP \t\t\t_tokenB Address of token B\\n  ...\n  JUMP \t\t\t_tokenB Address of token B\\n  ...\ntag 21\t\t\tB != address(0), \"Invalid toke...\n  JUMPDEST \t\t\tB != address(0), \"Invalid toke...\n  PUSH 496E76616C696420746F6B656E41206164647265737300000000000000000000\t\t\tB into the contract to p\n  PUSH 0\t\t\to\n  DUP3 \t\t\teposit\n  ADD \t\t\tev Deposit tok\n  MSTORE \t\t\t   * @dev Deposit tokenB into ...\n  POP \t\t\tB != address(0), \"Invalid toke...\n  JUMP \t\t\tB != address(0), \"Invalid toke...\ntag 22\t\t\tquidity\\n     * @param amount ...\n  JUMPDEST \t\t\tquidity\\n     * @param amount ...\n  PUSH 0\t\t\t0, \n  PUSH [tag] 45\t\t\t than 0\");\\n        \\n        ...\n  PUSH 16\t\t\tra\n  DUP4 \t\t\t co\n  PUSH [tag] 20\t\t\t than 0\");\\n        \\n        ...\n  JUMP \t\t\t than 0\");\\n        \\n        ...\ntag 45\t\t\t than 0\");\\n        \\n        ...\n  JUMPDEST \t\t\t than 0\");\\n        \\n        ...\n  SWAP2 \t\t\tit more than 0\");\\n        \\n ...\n  POP \t\t\tit more than 0\");\\n        \\n ...\n  PUSH [tag] 46\t\t\t require(\\n            IERC20(...\n  DUP3 \t\t\t   \n  PUSH [tag] 21\t\t\t require(\\n            IERC20(...\n  JUMP \t\t\t require(\\n            IERC20(...\ntag 46\t\t\t require(\\n            IERC20(...\n  JUMPDEST \t\t\t require(\\n            IERC20(...\n  PUSH 20\t\t\tle\n  DUP3 \t\t\tr f\n  ADD \t\t\tnsfer failed\n  SWAP1 \t\t\tenB transfer failed\n  POP \t\t\tenB transfer failed\n  SWAP2 \t\t\tquidity\\n     * @param amount ...\n  SWAP1 \t\t\tquidity\\n     * @param amount ...\n  POP \t\t\tquidity\\n     * @param amount ...\n  JUMP \t\t\tquidity\\n     * @param amount ...\ntag 8\t\t\t\\n        \\n        depositedB...\n  JUMPDEST \t\t\t\\n        \\n        depositedB...\n  PUSH 0\t\t\t   *\n  PUSH 20\t\t\tct\n  DUP3 \t\t\t the cont\n  ADD \t\t\tinto the contract\\n\n  SWAP1 \t\t\t tokenB into the contract\\n\n  POP \t\t\t tokenB into the contract\\n\n  DUP2 \t\t\ttake\\n    \n  DUP2 \t\t\tB to\n  SUB \t\t\tokenB to stake\\n     \n  PUSH 0\t\t\to\n  DUP4 \t\t\tThe amoun\n  ADD \t\t\tunt The amount of\n  MSTORE \t\t\tram amount The amount of token...\n  PUSH [tag] 48\t\t\take(uint256 amount) external {...\n  DUP2 \t\t\t use\n  PUSH [tag] 22\t\t\take(uint256 amount) external {...\n  JUMP \t\t\take(uint256 amount) external {...\ntag 48\t\t\take(uint256 amount) external {...\n  JUMPDEST \t\t\take(uint256 amount) external {...\n  SWAP1 \t\t\tction stake(uint256 amount) ex...\n  POP \t\t\tction stake(uint256 amount) ex...\n  SWAP2 \t\t\t\\n        \\n        depositedB...\n  SWAP1 \t\t\t\\n        \\n        depositedB...\n  POP \t\t\t\\n        \\n        depositedB...\n  JUMP \t\t\t\\n        \\n        depositedB...\ntag 23\t\t\t        require(\\n            ...\n  JUMPDEST \t\t\t        require(\\n            ...\n  PUSH 496E76616C696420746F6B656E42206164647265737300000000000000000000\t\t\t\\n        \\n        staked\n  PUSH 0\t\t\t \n  DUP3 \t\t\t\"\\n    \n  ADD \t\t\tiled\"\\n        \n  MSTORE \t\t\tsfer failed\"\\n        );\\n    ...\n  POP \t\t\t        require(\\n            ...\n  JUMP \t\t\t        require(\\n            ...\ntag 24\t\t\tnder] += amount;\\n        tota...\n  JUMPDEST \t\t\tnder] += amount;\\n        tota...\n  PUSH 0\t\t\ted \n  PUSH [tag] 51\t\t\tam amount The amount to withdr...\n  PUSH 16\t\t\tin\n  DUP4 \t\t\traw\n  PUSH [tag] 20\t\t\tam amount The amount to withdr...\n  JUMP \t\t\tam amount The amount to withdr...\ntag 51\t\t\tam amount The amount to withdr...\n  JUMPDEST \t\t\tam amount The amount to withdr...\n  SWAP2 \t\t\t * @param amount The amount to...\n  POP \t\t\t * @param amount The amount to...\n  PUSH [tag] 52\t\t\tt) external {\\n        require...\n  DUP3 \t\t\ttak\n  PUSH [tag] 23\t\t\tt) external {\\n        require...\n  JUMP \t\t\tt) external {\\n        require...\ntag 52\t\t\tt) external {\\n        require...\n  JUMPDEST \t\t\tt) external {\\n        require...\n  PUSH 20\t\t\tmo\n  DUP3 \t\t\t >=\n  ADD \t\t\tder] >= amou\n  SWAP1 \t\t\tmsg.sender] >= amou\n  POP \t\t\tmsg.sender] >= amou\n  SWAP2 \t\t\tnder] += amount;\\n        tota...\n  SWAP1 \t\t\tnder] += amount;\\n        tota...\n  POP \t\t\tnder] += amount;\\n        tota...\n  JUMP \t\t\tnder] += amount;\\n        tota...\ntag 11\t\t\tcient staked balance\");\\n     ...\n  JUMPDEST \t\t\tcient staked balance\");\\n     ...\n  PUSH 0\t\t\t use\n  PUSH 20\t\t\tC2\n  DUP3 \t\t\t        I\n  ADD \t\t\t            IERC20\n  SWAP1 \t\t\tequire(\\n            IERC20\n  POP \t\t\tequire(\\n            IERC20\n  DUP2 \t\t\t     \"Tok\n  DUP2 \t\t\t    \n  SUB \t\t\t),\\n            \"Toke\n  PUSH 0\t\t\to\n  DUP4 \t\t\t.sender, \n  ADD \t\t\t(msg.sender, amou\n  MSTORE \t\t\transfer(msg.sender, amount),\\n...\n  PUSH [tag] 54\t\t\t\"\\n        );\\n        \\n     ...\n  DUP2 \t\t\tatio\n  PUSH [tag] 24\t\t\t\"\\n        );\\n        \\n     ...\n  JUMP \t\t\t\"\\n        );\\n        \\n     ...\ntag 54\t\t\t\"\\n        );\\n        \\n     ...\n  JUMPDEST \t\t\t\"\\n        );\\n        \\n     ...\n  SWAP1 \t\t\tr failed\"\\n        );\\n       ...\n  POP \t\t\tr failed\"\\n        );\\n       ...\n  SWAP2 \t\t\tcient staked balance\");\\n     ...\n  SWAP1 \t\t\tcient staked balance\");\\n     ...\n  POP \t\t\tcient staked balance\");\\n     ...\n  JUMP \t\t\tcient staked balance\");\\n     ...\ntag 12\t\t\tcontract SimpleStaking {\\n    ...\n  JUMPDEST \t\t\tcontract SimpleStaking {\\n    ...\n  PUSH #[$] 0000000000000000000000000000000000000000000000000000000000000000\t\t\tcontract SimpleStaking {\\n    ...\n  DUP1 \t\t\tcontract SimpleStaking {\\n    ...\n  PUSH [$] 0000000000000000000000000000000000000000000000000000000000000000\t\t\tcontract SimpleStaking {\\n    ...\n  PUSH 0\t\t\tcontract SimpleStaking {\\n    ...\n  CODECOPY \t\t\tcontract SimpleStaking {\\n    ...\n  PUSH 0\t\t\tcontract SimpleStaking {\\n    ...\n  RETURN \t\t\tcontract SimpleStaking {\\n    ...\n.data\n  0:\n    .code\n      PUSH 80\t\t\tcontract SimpleStaking {\\n    ...\n      PUSH 40\t\t\tcontract SimpleStaking {\\n    ...\n      MSTORE \t\t\tcontract SimpleStaking {\\n    ...\n      CALLVALUE \t\t\tcontract SimpleStaking {\\n    ...\n      DUP1 \t\t\tcontract SimpleStaking {\\n    ...\n      ISZERO \t\t\tcontract SimpleStaking {\\n    ...\n      PUSH [tag] 1\t\t\tcontract SimpleStaking {\\n    ...\n      JUMPI \t\t\tcontract SimpleStaking {\\n    ...\n      PUSH 0\t\t\tcontract SimpleStaking {\\n    ...\n      PUSH 0\t\t\tcontract SimpleStaking {\\n    ...\n      REVERT \t\t\tcontract SimpleStaking {\\n    ...\n    tag 1\t\t\tcontract SimpleStaking {\\n    ...\n      JUMPDEST \t\t\tcontract SimpleStaking {\\n    ...\n      POP \t\t\tcontract SimpleStaking {\\n    ...\n      PUSH 4\t\t\tcontract SimpleStaking {\\n    ...\n      CALLDATASIZE \t\t\tcontract SimpleStaking {\\n    ...\n      LT \t\t\tcontract SimpleStaking {\\n    ...\n      PUSH [tag] 2\t\t\tcontract SimpleStaking {\\n    ...\n      JUMPI \t\t\tcontract SimpleStaking {\\n    ...\n      PUSH 0\t\t\tcontract SimpleStaking {\\n    ...\n      CALLDATALOAD \t\t\tcontract SimpleStaking {\\n    ...\n      PUSH E0\t\t\tcontract SimpleStaking {\\n    ...\n      SHR \t\t\tcontract SimpleStaking {\\n    ...\n      DUP1 \t\t\tcontract SimpleStaking {\\n    ...\n      PUSH 60217267\t\t\tcontract SimpleStaking {\\n    ...\n      GT \t\t\tcontract SimpleStaking {\\n    ...\n      PUSH [tag] 16\t\t\tcontract SimpleStaking {\\n    ...\n      JUMPI \t\t\tcontract SimpleStaking {\\n    ...\n      DUP1 \t\t\tcontract SimpleStaking {\\n    ...\n      PUSH A694FC3A\t\t\tcontract SimpleStaking {\\n    ...\n      GT \t\t\tcontract SimpleStaking {\\n    ...\n      PUSH [tag] 17\t\t\tcontract SimpleStaking {\\n    ...\n      JUMPI \t\t\tcontract SimpleStaking {\\n    ...\n      DUP1 \t\t\tcontract SimpleStaking {\\n    ...\n      PUSH A694FC3A\t\t\tcontract SimpleStaking {\\n    ...\n      EQ \t\t\tcontract SimpleStaking {\\n    ...\n      PUSH [tag] 12\t\t\tcontract SimpleStaking {\\n    ...\n      JUMPI \t\t\tcontract SimpleStaking {\\n    ...\n      DUP1 \t\t\tcontract SimpleStaking {\\n    ...\n      PUSH B6B55F25\t\t\tcontract SimpleStaking {\\n    ...\n      EQ \t\t\tcontract SimpleStaking {\\n    ...\n      PUSH [tag] 13\t\t\tcontract SimpleStaking {\\n    ...\n      JUMPI \t\t\tcontract SimpleStaking {\\n    ...\n      DUP1 \t\t\tcontract SimpleStaking {\\n    ...\n      PUSH CFE69A05\t\t\tcontract SimpleStaking {\\n    ...\n      EQ \t\t\tcontract SimpleStaking {\\n    ...\n      PUSH [tag] 14\t\t\tcontract SimpleStaking {\\n    ...\n      JUMPI \t\t\tcontract SimpleStaking {\\n    ...\n      DUP1 \t\t\tcontract SimpleStaking {\\n    ...\n      PUSH FF50ABDC\t\t\tcontract SimpleStaking {\\n    ...\n      EQ \t\t\tcontract SimpleStaking {\\n    ...\n      PUSH [tag] 15\t\t\tcontract SimpleStaking {\\n    ...\n      JUMPI \t\t\tcontract SimpleStaking {\\n    ...\n      PUSH [tag] 2\t\t\tcontract SimpleStaking {\\n    ...\n      JUMP \t\t\tcontract SimpleStaking {\\n    ...\n    tag 17\t\t\tcontract SimpleStaking {\\n    ...\n      JUMPDEST \t\t\tcontract SimpleStaking {\\n    ...\n      DUP1 \t\t\tcontract SimpleStaking {\\n    ...\n      PUSH 60217267\t\t\tcontract SimpleStaking {\\n    ...\n      EQ \t\t\tcontract SimpleStaking {\\n    ...\n      PUSH [tag] 9\t\t\tcontract SimpleStaking {\\n    ...\n      JUMPI \t\t\tcontract SimpleStaking {\\n    ...\n      DUP1 \t\t\tcontract SimpleStaking {\\n    ...\n      PUSH 817B1CD2\t\t\tcontract SimpleStaking {\\n    ...\n      EQ \t\t\tcontract SimpleStaking {\\n    ...\n      PUSH [tag] 10\t\t\tcontract SimpleStaking {\\n    ...\n      JUMPI \t\t\tcontract SimpleStaking {\\n    ...\n      DUP1 \t\t\tcontract SimpleStaking {\\n    ...\n      PUSH 94B918DE\t\t\tcontract SimpleStaking {\\n    ...\n      EQ \t\t\tcontract SimpleStaking {\\n    ...\n      PUSH [tag] 11\t\t\tcontract SimpleStaking {\\n    ...\n      JUMPI \t\t\tcontract SimpleStaking {\\n    ...\n      PUSH [tag] 2\t\t\tcontract SimpleStaking {\\n    ...\n      JUMP \t\t\tcontract SimpleStaking {\\n    ...\n    tag 16\t\t\tcontract SimpleStaking {\\n    ...\n      JUMPDEST \t\t\tcontract SimpleStaking {\\n    ...\n      DUP1 \t\t\tcontract SimpleStaking {\\n    ...\n      PUSH FC63D10\t\t\tcontract SimpleStaking {\\n    ...\n      EQ \t\t\tcontract SimpleStaking {\\n    ...\n      PUSH [tag] 3\t\t\tcontract SimpleStaking {\\n    ...\n      JUMPI \t\t\tcontract SimpleStaking {\\n    ...\n      DUP1 \t\t\tcontract SimpleStaking {\\n    ...\n      PUSH 2A973DAF\t\t\tcontract SimpleStaking {\\n    ...\n      EQ \t\t\tcontract SimpleStaking {\\n    ...\n      PUSH [tag] 4\t\t\tcontract SimpleStaking {\\n    ...\n      JUMPI \t\t\tcontract SimpleStaking {\\n    ...\n      DUP1 \t\t\tcontract SimpleStaking {\\n    ...\n      PUSH 2E1A7D4D\t\t\tcontract SimpleStaking {\\n    ...\n      EQ \t\t\tcontract SimpleStaking {\\n    ...\n      PUSH [tag] 5\t\t\tcontract SimpleStaking {\\n    ...\n      JUMPI \t\t\tcontract SimpleStaking {\\n    ...\n      DUP1 \t\t\tcontract SimpleStaking {\\n    ...\n      PUSH 3A02A42D\t\t\tcontract SimpleStaking {\\n    ...\n      EQ \t\t\tcontract SimpleStaking {\\n    ...\n      PUSH [tag] 6\t\t\tcontract SimpleStaking {\\n    ...\n      JUMPI \t\t\tcontract SimpleStaking {\\n    ...\n      DUP1 \t\t\tcontract SimpleStaking {\\n    ...\n      PUSH 3AECD0E3\t\t\tcontract SimpleStaking {\\n    ...\n      EQ \t\t\tcontract SimpleStaking {\\n    ...\n      PUSH [tag] 7\t\t\tcontract SimpleStaking {\\n    ...\n      JUMPI \t\t\tcontract SimpleStaking {\\n    ...\n      DUP1 \t\t\tcontract SimpleStaking {\\n    ...\n      PUSH 5F64B55B\t\t\tcontract SimpleStaking {\\n    ...\n      EQ \t\t\tcontract SimpleStaking {\\n    ...\n      PUSH [tag] 8\t\t\tcontract SimpleStaking {\\n    ...\n      JUMPI \t\t\tcontract SimpleStaking {\\n    ...\n    tag 2\t\t\tcontract SimpleStaking {\\n    ...\n      JUMPDEST \t\t\tcontract SimpleStaking {\\n    ...\n      PUSH 0\t\t\tcontract SimpleStaking {\\n    ...\n      PUSH 0\t\t\tcontract SimpleStaking {\\n    ...\n      REVERT \t\t\tcontract SimpleStaking {\\n    ...\n    tag 3\t\t\taddress public tokenA\n      JUMPDEST \t\t\taddress public tokenA\n      PUSH [tag] 18\t\t\taddress public tokenA\n      PUSH [tag] 19\t\t\taddress public tokenA\n      JUMP \t\t\taddress public tokenA\n    tag 18\t\t\taddress public tokenA\n      JUMPDEST \t\t\taddress public tokenA\n      PUSH 40\t\t\taddress public tokenA\n      MLOAD \t\t\taddress public tokenA\n      PUSH [tag] 20\t\t\taddress public tokenA\n      SWAP2 \t\t\taddress public tokenA\n      SWAP1 \t\t\taddress public tokenA\n      PUSH [tag] 21\t\t\taddress public tokenA\n      JUMP \t\t\taddress public tokenA\n    tag 20\t\t\taddress public tokenA\n      JUMPDEST \t\t\taddress public tokenA\n      PUSH 40\t\t\taddress public tokenA\n      MLOAD \t\t\taddress public tokenA\n      DUP1 \t\t\taddress public tokenA\n      SWAP2 \t\t\taddress public tokenA\n      SUB \t\t\taddress public tokenA\n      SWAP1 \t\t\taddress public tokenA\n      RETURN \t\t\taddress public tokenA\n    tag 4\t\t\tfunction getDepositedBalance(a...\n      JUMPDEST \t\t\tfunction getDepositedBalance(a...\n      PUSH [tag] 22\t\t\tfunction getDepositedBalance(a...\n      PUSH 4\t\t\tfunction getDepositedBalance(a...\n      DUP1 \t\t\tfunction getDepositedBalance(a...\n      CALLDATASIZE \t\t\tfunction getDepositedBalance(a...\n      SUB \t\t\tfunction getDepositedBalance(a...\n      DUP2 \t\t\tfunction getDepositedBalance(a...\n      ADD \t\t\tfunction getDepositedBalance(a...\n      SWAP1 \t\t\tfunction getDepositedBalance(a...\n      PUSH [tag] 23\t\t\tfunction getDepositedBalance(a...\n      SWAP2 \t\t\tfunction getDepositedBalance(a...\n      SWAP1 \t\t\tfunction getDepositedBalance(a...\n      PUSH [tag] 24\t\t\tfunction getDepositedBalance(a...\n      JUMP \t\t\tfunction getDepositedBalance(a...\n    tag 23\t\t\tfunction getDepositedBalance(a...\n      JUMPDEST \t\t\tfunction getDepositedBalance(a...\n      PUSH [tag] 25\t\t\tfunction getDepositedBalance(a...\n      JUMP \t\t\tfunction getDepositedBalance(a...\n    tag 22\t\t\tfunction getDepositedBalance(a...\n      JUMPDEST \t\t\tfunction getDepositedBalance(a...\n      PUSH 40\t\t\tfunction getDepositedBalance(a...\n      MLOAD \t\t\tfunction getDepositedBalance(a...\n      PUSH [tag] 26\t\t\tfunction getDepositedBalance(a...\n      SWAP2 \t\t\tfunction getDepositedBalance(a...\n      SWAP1 \t\t\tfunction getDepositedBalance(a...\n      PUSH [tag] 27\t\t\tfunction getDepositedBalance(a...\n      JUMP \t\t\tfunction getDepositedBalance(a...\n    tag 26\t\t\tfunction getDepositedBalance(a...\n      JUMPDEST \t\t\tfunction getDepositedBalance(a...\n      PUSH 40\t\t\tfunction getDepositedBalance(a...\n      MLOAD \t\t\tfunction getDepositedBalance(a...\n      DUP1 \t\t\tfunction getDepositedBalance(a...\n      SWAP2 \t\t\tfunction getDepositedBalance(a...\n      SUB \t\t\tfunction getDepositedBalance(a...\n      SWAP1 \t\t\tfunction getDepositedBalance(a...\n      RETURN \t\t\tfunction getDepositedBalance(a...\n    tag 5\t\t\tfunction withdraw(uint256 amou...\n      JUMPDEST \t\t\tfunction withdraw(uint256 amou...\n      PUSH [tag] 28\t\t\tfunction withdraw(uint256 amou...\n      PUSH 4\t\t\tfunction withdraw(uint256 amou...\n      DUP1 \t\t\tfunction withdraw(uint256 amou...\n      CALLDATASIZE \t\t\tfunction withdraw(uint256 amou...\n      SUB \t\t\tfunction withdraw(uint256 amou...\n      DUP2 \t\t\tfunction withdraw(uint256 amou...\n      ADD \t\t\tfunction withdraw(uint256 amou...\n      SWAP1 \t\t\tfunction withdraw(uint256 amou...\n      PUSH [tag] 29\t\t\tfunction withdraw(uint256 amou...\n      SWAP2 \t\t\tfunction withdraw(uint256 amou...\n      SWAP1 \t\t\tfunction withdraw(uint256 amou...\n      PUSH [tag] 30\t\t\tfunction withdraw(uint256 amou...\n      JUMP \t\t\tfunction withdraw(uint256 amou...\n    tag 29\t\t\tfunction withdraw(uint256 amou...\n      JUMPDEST \t\t\tfunction withdraw(uint256 amou...\n      PUSH [tag] 31\t\t\tfunction withdraw(uint256 amou...\n      JUMP \t\t\tfunction withdraw(uint256 amou...\n    tag 28\t\t\tfunction withdraw(uint256 amou...\n      JUMPDEST \t\t\tfunction withdraw(uint256 amou...\n      STOP \t\t\tfunction withdraw(uint256 amou...\n    tag 6\t\t\tfunction getStakedBalance(addr...\n      JUMPDEST \t\t\tfunction getStakedBalance(addr...\n      PUSH [tag] 32\t\t\tfunction getStakedBalance(addr...\n      PUSH 4\t\t\tfunction getStakedBalance(addr...\n      DUP1 \t\t\tfunction getStakedBalance(addr...\n      CALLDATASIZE \t\t\tfunction getStakedBalance(addr...\n      SUB \t\t\tfunction getStakedBalance(addr...\n      DUP2 \t\t\tfunction getStakedBalance(addr...\n      ADD \t\t\tfunction getStakedBalance(addr...\n      SWAP1 \t\t\tfunction getStakedBalance(addr...\n      PUSH [tag] 33\t\t\tfunction getStakedBalance(addr...\n      SWAP2 \t\t\tfunction getStakedBalance(addr...\n      SWAP1 \t\t\tfunction getStakedBalance(addr...\n      PUSH [tag] 24\t\t\tfunction getStakedBalance(addr...\n      JUMP \t\t\tfunction getStakedBalance(addr...\n    tag 33\t\t\tfunction getStakedBalance(addr...\n      JUMPDEST \t\t\tfunction getStakedBalance(addr...\n      PUSH [tag] 34\t\t\tfunction getStakedBalance(addr...\n      JUMP \t\t\tfunction getStakedBalance(addr...\n    tag 32\t\t\tfunction getStakedBalance(addr...\n      JUMPDEST \t\t\tfunction getStakedBalance(addr...\n      PUSH 40\t\t\tfunction getStakedBalance(addr...\n      MLOAD \t\t\tfunction getStakedBalance(addr...\n      PUSH [tag] 35\t\t\tfunction getStakedBalance(addr...\n      SWAP2 \t\t\tfunction getStakedBalance(addr...\n      SWAP1 \t\t\tfunction getStakedBalance(addr...\n      PUSH [tag] 27\t\t\tfunction getStakedBalance(addr...\n      JUMP \t\t\tfunction getStakedBalance(addr...\n    tag 35\t\t\tfunction getStakedBalance(addr...\n      JUMPDEST \t\t\tfunction getStakedBalance(addr...\n      PUSH 40\t\t\tfunction getStakedBalance(addr...\n      MLOAD \t\t\tfunction getStakedBalance(addr...\n      DUP1 \t\t\tfunction getStakedBalance(addr...\n      SWAP2 \t\t\tfunction getStakedBalance(addr...\n      SUB \t\t\tfunction getStakedBalance(addr...\n      SWAP1 \t\t\tfunction getStakedBalance(addr...\n      RETURN \t\t\tfunction getStakedBalance(addr...\n    tag 7\t\t\tfunction getTokenBalance(addre...\n      JUMPDEST \t\t\tfunction getTokenBalance(addre...\n      PUSH [tag] 36\t\t\tfunction getTokenBalance(addre...\n      PUSH 4\t\t\tfunction getTokenBalance(addre...\n      DUP1 \t\t\tfunction getTokenBalance(addre...\n      CALLDATASIZE \t\t\tfunction getTokenBalance(addre...\n      SUB \t\t\tfunction getTokenBalance(addre...\n      DUP2 \t\t\tfunction getTokenBalance(addre...\n      ADD \t\t\tfunction getTokenBalance(addre...\n      SWAP1 \t\t\tfunction getTokenBalance(addre...\n      PUSH [tag] 37\t\t\tfunction getTokenBalance(addre...\n      SWAP2 \t\t\tfunction getTokenBalance(addre...\n      SWAP1 \t\t\tfunction getTokenBalance(addre...\n      PUSH [tag] 24\t\t\tfunction getTokenBalance(addre...\n      JUMP \t\t\tfunction getTokenBalance(addre...\n    tag 37\t\t\tfunction getTokenBalance(addre...\n      JUMPDEST \t\t\tfunction getTokenBalance(addre...\n      PUSH [tag] 38\t\t\tfunction getTokenBalance(addre...\n      JUMP \t\t\tfunction getTokenBalance(addre...\n    tag 36\t\t\tfunction getTokenBalance(addre...\n      JUMPDEST \t\t\tfunction getTokenBalance(addre...\n      PUSH 40\t\t\tfunction getTokenBalance(addre...\n      MLOAD \t\t\tfunction getTokenBalance(addre...\n      PUSH [tag] 39\t\t\tfunction getTokenBalance(addre...\n      SWAP2 \t\t\tfunction getTokenBalance(addre...\n      SWAP1 \t\t\tfunction getTokenBalance(addre...\n      PUSH [tag] 27\t\t\tfunction getTokenBalance(addre...\n      JUMP \t\t\tfunction getTokenBalance(addre...\n    tag 39\t\t\tfunction getTokenBalance(addre...\n      JUMPDEST \t\t\tfunction getTokenBalance(addre...\n      PUSH 40\t\t\tfunction getTokenBalance(addre...\n      MLOAD \t\t\tfunction getTokenBalance(addre...\n      DUP1 \t\t\tfunction getTokenBalance(addre...\n      SWAP2 \t\t\tfunction getTokenBalance(addre...\n      SUB \t\t\tfunction getTokenBalance(addre...\n      SWAP1 \t\t\tfunction getTokenBalance(addre...\n      RETURN \t\t\tfunction getTokenBalance(addre...\n    tag 8\t\t\taddress public tokenB\n      JUMPDEST \t\t\taddress public tokenB\n      PUSH [tag] 40\t\t\taddress public tokenB\n      PUSH [tag] 41\t\t\taddress public tokenB\n      JUMP \t\t\taddress public tokenB\n    tag 40\t\t\taddress public tokenB\n      JUMPDEST \t\t\taddress public tokenB\n      PUSH 40\t\t\taddress public tokenB\n      MLOAD \t\t\taddress public tokenB\n      PUSH [tag] 42\t\t\taddress public tokenB\n      SWAP2 \t\t\taddress public tokenB\n      SWAP1 \t\t\taddress public tokenB\n      PUSH [tag] 21\t\t\taddress public tokenB\n      JUMP \t\t\taddress public tokenB\n    tag 42\t\t\taddress public tokenB\n      JUMPDEST \t\t\taddress public tokenB\n      PUSH 40\t\t\taddress public tokenB\n      MLOAD \t\t\taddress public tokenB\n      DUP1 \t\t\taddress public tokenB\n      SWAP2 \t\t\taddress public tokenB\n      SUB \t\t\taddress public tokenB\n      SWAP1 \t\t\taddress public tokenB\n      RETURN \t\t\taddress public tokenB\n    tag 9\t\t\tmapping(address => uint256) pu...\n      JUMPDEST \t\t\tmapping(address => uint256) pu...\n      PUSH [tag] 43\t\t\tmapping(address => uint256) pu...\n      PUSH 4\t\t\tmapping(address => uint256) pu...\n      DUP1 \t\t\tmapping(address => uint256) pu...\n      CALLDATASIZE \t\t\tmapping(address => uint256) pu...\n      SUB \t\t\tmapping(address => uint256) pu...\n      DUP2 \t\t\tmapping(address => uint256) pu...\n      ADD \t\t\tmapping(address => uint256) pu...\n      SWAP1 \t\t\tmapping(address => uint256) pu...\n      PUSH [tag] 44\t\t\tmapping(address => uint256) pu...\n      SWAP2 \t\t\tmapping(address => uint256) pu...\n      SWAP1 \t\t\tmapping(address => uint256) pu...\n      PUSH [tag] 24\t\t\tmapping(address => uint256) pu...\n      JUMP \t\t\tmapping(address => uint256) pu...\n    tag 44\t\t\tmapping(address => uint256) pu...\n      JUMPDEST \t\t\tmapping(address => uint256) pu...\n      PUSH [tag] 45\t\t\tmapping(address => uint256) pu...\n      JUMP \t\t\tmapping(address => uint256) pu...\n    tag 43\t\t\tmapping(address => uint256) pu...\n      JUMPDEST \t\t\tmapping(address => uint256) pu...\n      PUSH 40\t\t\tmapping(address => uint256) pu...\n      MLOAD \t\t\tmapping(address => uint256) pu...\n      PUSH [tag] 46\t\t\tmapping(address => uint256) pu...\n      SWAP2 \t\t\tmapping(address => uint256) pu...\n      SWAP1 \t\t\tmapping(address => uint256) pu...\n      PUSH [tag] 27\t\t\tmapping(address => uint256) pu...\n      JUMP \t\t\tmapping(address => uint256) pu...\n    tag 46\t\t\tmapping(address => uint256) pu...\n      JUMPDEST \t\t\tmapping(address => uint256) pu...\n      PUSH 40\t\t\tmapping(address => uint256) pu...\n      MLOAD \t\t\tmapping(address => uint256) pu...\n      DUP1 \t\t\tmapping(address => uint256) pu...\n      SWAP2 \t\t\tmapping(address => uint256) pu...\n      SUB \t\t\tmapping(address => uint256) pu...\n      SWAP1 \t\t\tmapping(address => uint256) pu...\n      RETURN \t\t\tmapping(address => uint256) pu...\n    tag 10\t\t\tuint256 public totalStaked\n      JUMPDEST \t\t\tuint256 public totalStaked\n      PUSH [tag] 47\t\t\tuint256 public totalStaked\n      PUSH [tag] 48\t\t\tuint256 public totalStaked\n      JUMP \t\t\tuint256 public totalStaked\n    tag 47\t\t\tuint256 public totalStaked\n      JUMPDEST \t\t\tuint256 public totalStaked\n      PUSH 40\t\t\tuint256 public totalStaked\n      MLOAD \t\t\tuint256 public totalStaked\n      PUSH [tag] 49\t\t\tuint256 public totalStaked\n      SWAP2 \t\t\tuint256 public totalStaked\n      SWAP1 \t\t\tuint256 public totalStaked\n      PUSH [tag] 27\t\t\tuint256 public totalStaked\n      JUMP \t\t\tuint256 public totalStaked\n    tag 49\t\t\tuint256 public totalStaked\n      JUMPDEST \t\t\tuint256 public totalStaked\n      PUSH 40\t\t\tuint256 public totalStaked\n      MLOAD \t\t\tuint256 public totalStaked\n      DUP1 \t\t\tuint256 public totalStaked\n      SWAP2 \t\t\tuint256 public totalStaked\n      SUB \t\t\tuint256 public totalStaked\n      SWAP1 \t\t\tuint256 public totalStaked\n      RETURN \t\t\tuint256 public totalStaked\n    tag 11\t\t\tfunction swap(uint256 amount) ...\n      JUMPDEST \t\t\tfunction swap(uint256 amount) ...\n      PUSH [tag] 50\t\t\tfunction swap(uint256 amount) ...\n      PUSH 4\t\t\tfunction swap(uint256 amount) ...\n      DUP1 \t\t\tfunction swap(uint256 amount) ...\n      CALLDATASIZE \t\t\tfunction swap(uint256 amount) ...\n      SUB \t\t\tfunction swap(uint256 amount) ...\n      DUP2 \t\t\tfunction swap(uint256 amount) ...\n      ADD \t\t\tfunction swap(uint256 amount) ...\n      SWAP1 \t\t\tfunction swap(uint256 amount) ...\n      PUSH [tag] 51\t\t\tfunction swap(uint256 amount) ...\n      SWAP2 \t\t\tfunction swap(uint256 amount) ...\n      SWAP1 \t\t\tfunction swap(uint256 amount) ...\n      PUSH [tag] 30\t\t\tfunction swap(uint256 amount) ...\n      JUMP \t\t\tfunction swap(uint256 amount) ...\n    tag 51\t\t\tfunction swap(uint256 amount) ...\n      JUMPDEST \t\t\tfunction swap(uint256 amount) ...\n      PUSH [tag] 52\t\t\tfunction swap(uint256 amount) ...\n      JUMP \t\t\tfunction swap(uint256 amount) ...\n    tag 50\t\t\tfunction swap(uint256 amount) ...\n      JUMPDEST \t\t\tfunction swap(uint256 amount) ...\n      STOP \t\t\tfunction swap(uint256 amount) ...\n    tag 12\t\t\tfunction stake(uint256 amount)...\n      JUMPDEST \t\t\tfunction stake(uint256 amount)...\n      PUSH [tag] 53\t\t\tfunction stake(uint256 amount)...\n      PUSH 4\t\t\tfunction stake(uint256 amount)...\n      DUP1 \t\t\tfunction stake(uint256 amount)...\n      CALLDATASIZE \t\t\tfunction stake(uint256 amount)...\n      SUB \t\t\tfunction stake(uint256 amount)...\n      DUP2 \t\t\tfunction stake(uint256 amount)...\n      ADD \t\t\tfunction stake(uint256 amount)...\n      SWAP1 \t\t\tfunction stake(uint256 amount)...\n      PUSH [tag] 54\t\t\tfunction stake(uint256 amount)...\n      SWAP2 \t\t\tfunction stake(uint256 amount)...\n      SWAP1 \t\t\tfunction stake(uint256 amount)...\n      PUSH [tag] 30\t\t\tfunction stake(uint256 amount)...\n      JUMP \t\t\tfunction stake(uint256 amount)...\n    tag 54\t\t\tfunction stake(uint256 amount)...\n      JUMPDEST \t\t\tfunction stake(uint256 amount)...\n      PUSH [tag] 55\t\t\tfunction stake(uint256 amount)...\n      JUMP \t\t\tfunction stake(uint256 amount)...\n    tag 53\t\t\tfunction stake(uint256 amount)...\n      JUMPDEST \t\t\tfunction stake(uint256 amount)...\n      STOP \t\t\tfunction stake(uint256 amount)...\n    tag 13\t\t\tfunction deposit(uint256 amoun...\n      JUMPDEST \t\t\tfunction deposit(uint256 amoun...\n      PUSH [tag] 56\t\t\tfunction deposit(uint256 amoun...\n      PUSH 4\t\t\tfunction deposit(uint256 amoun...\n      DUP1 \t\t\tfunction deposit(uint256 amoun...\n      CALLDATASIZE \t\t\tfunction deposit(uint256 amoun...\n      SUB \t\t\tfunction deposit(uint256 amoun...\n      DUP2 \t\t\tfunction deposit(uint256 amoun...\n      ADD \t\t\tfunction deposit(uint256 amoun...\n      SWAP1 \t\t\tfunction deposit(uint256 amoun...\n      PUSH [tag] 57\t\t\tfunction deposit(uint256 amoun...\n      SWAP2 \t\t\tfunction deposit(uint256 amoun...\n      SWAP1 \t\t\tfunction deposit(uint256 amoun...\n      PUSH [tag] 30\t\t\tfunction deposit(uint256 amoun...\n      JUMP \t\t\tfunction deposit(uint256 amoun...\n    tag 57\t\t\tfunction deposit(uint256 amoun...\n      JUMPDEST \t\t\tfunction deposit(uint256 amoun...\n      PUSH [tag] 58\t\t\tfunction deposit(uint256 amoun...\n      JUMP \t\t\tfunction deposit(uint256 amoun...\n    tag 56\t\t\tfunction deposit(uint256 amoun...\n      JUMPDEST \t\t\tfunction deposit(uint256 amoun...\n      STOP \t\t\tfunction deposit(uint256 amoun...\n    tag 14\t\t\tmapping(address => uint256) pu...\n      JUMPDEST \t\t\tmapping(address => uint256) pu...\n      PUSH [tag] 59\t\t\tmapping(address => uint256) pu...\n      PUSH 4\t\t\tmapping(address => uint256) pu...\n      DUP1 \t\t\tmapping(address => uint256) pu...\n      CALLDATASIZE \t\t\tmapping(address => uint256) pu...\n      SUB \t\t\tmapping(address => uint256) pu...\n      DUP2 \t\t\tmapping(address => uint256) pu...\n      ADD \t\t\tmapping(address => uint256) pu...\n      SWAP1 \t\t\tmapping(address => uint256) pu...\n      PUSH [tag] 60\t\t\tmapping(address => uint256) pu...\n      SWAP2 \t\t\tmapping(address => uint256) pu...\n      SWAP1 \t\t\tmapping(address => uint256) pu...\n      PUSH [tag] 24\t\t\tmapping(address => uint256) pu...\n      JUMP \t\t\tmapping(address => uint256) pu...\n    tag 60\t\t\tmapping(address => uint256) pu...\n      JUMPDEST \t\t\tmapping(address => uint256) pu...\n      PUSH [tag] 61\t\t\tmapping(address => uint256) pu...\n      JUMP \t\t\tmapping(address => uint256) pu...\n    tag 59\t\t\tmapping(address => uint256) pu...\n      JUMPDEST \t\t\tmapping(address => uint256) pu...\n      PUSH 40\t\t\tmapping(address => uint256) pu...\n      MLOAD \t\t\tmapping(address => uint256) pu...\n      PUSH [tag] 62\t\t\tmapping(address => uint256) pu...\n      SWAP2 \t\t\tmapping(address => uint256) pu...\n      SWAP1 \t\t\tmapping(address => uint256) pu...\n      PUSH [tag] 27\t\t\tmapping(address => uint256) pu...\n      JUMP \t\t\tmapping(address => uint256) pu...\n    tag 62\t\t\tmapping(address => uint256) pu...\n      JUMPDEST \t\t\tmapping(address => uint256) pu...\n      PUSH 40\t\t\tmapping(address => uint256) pu...\n      MLOAD \t\t\tmapping(address => uint256) pu...\n      DUP1 \t\t\tmapping(address => uint256) pu...\n      SWAP2 \t\t\tmapping(address => uint256) pu...\n      SUB \t\t\tmapping(address => uint256) pu...\n      SWAP1 \t\t\tmapping(address => uint256) pu...\n      RETURN \t\t\tmapping(address => uint256) pu...\n    tag 15\t\t\tuint256 public totalDeposited\n      JUMPDEST \t\t\tuint256 public totalDeposited\n      PUSH [tag] 63\t\t\tuint256 public totalDeposited\n      PUSH [tag] 64\t\t\tuint256 public totalDeposited\n      JUMP \t\t\tuint256 public totalDeposited\n    tag 63\t\t\tuint256 public totalDeposited\n      JUMPDEST \t\t\tuint256 public totalDeposited\n      PUSH 40\t\t\tuint256 public totalDeposited\n      MLOAD \t\t\tuint256 public totalDeposited\n      PUSH [tag] 65\t\t\tuint256 public totalDeposited\n      SWAP2 \t\t\tuint256 public totalDeposited\n      SWAP1 \t\t\tuint256 public totalDeposited\n      PUSH [tag] 27\t\t\tuint256 public totalDeposited\n      JUMP \t\t\tuint256 public totalDeposited\n    tag 65\t\t\tuint256 public totalDeposited\n      JUMPDEST \t\t\tuint256 public totalDeposited\n      PUSH 40\t\t\tuint256 public totalDeposited\n      MLOAD \t\t\tuint256 public totalDeposited\n      DUP1 \t\t\tuint256 public totalDeposited\n      SWAP2 \t\t\tuint256 public totalDeposited\n      SUB \t\t\tuint256 public totalDeposited\n      SWAP1 \t\t\tuint256 public totalDeposited\n      RETURN \t\t\tuint256 public totalDeposited\n    tag 19\t\t\taddress public tokenA\n      JUMPDEST \t\t\taddress public tokenA\n      PUSH 0\t\t\taddress public tokenA\n      PUSH 0\t\t\taddress public tokenA\n      SWAP1 \t\t\taddress public tokenA\n      SLOAD \t\t\taddress public tokenA\n      SWAP1 \t\t\taddress public tokenA\n      PUSH 100\t\t\taddress public tokenA\n      EXP \t\t\taddress public tokenA\n      SWAP1 \t\t\taddress public tokenA\n      DIV \t\t\taddress public tokenA\n      PUSH FFFFFFFFFFFFFFFFFFFFFFFFFFFFFFFFFFFFFFFF\t\t\taddress public tokenA\n      AND \t\t\taddress public tokenA\n      DUP2 \t\t\taddress public tokenA\n      JUMP \t\t\taddress public tokenA\n    tag 25\t\t\tfunction getDepositedBalance(a...\n      JUMPDEST \t\t\tfunction getDepositedBalance(a...\n      PUSH 0\t\t\tuint256\n      PUSH 3\t\t\tdepositedBalance\n      PUSH 0\t\t\tdepositedBalance[user]\n      DUP4 \t\t\tuser\n      PUSH FFFFFFFFFFFFFFFFFFFFFFFFFFFFFFFFFFFFFFFF\t\t\tdepositedBalance[user]\n      AND \t\t\tdepositedBalance[user]\n      PUSH FFFFFFFFFFFFFFFFFFFFFFFFFFFFFFFFFFFFFFFF\t\t\tdepositedBalance[user]\n      AND \t\t\tdepositedBalance[user]\n      DUP2 \t\t\tdepositedBalance[user]\n      MSTORE \t\t\tdepositedBalance[user]\n      PUSH 20\t\t\tdepositedBalance[user]\n      ADD \t\t\tdepositedBalance[user]\n      SWAP1 \t\t\tdepositedBalance[user]\n      DUP2 \t\t\tdepositedBalance[user]\n      MSTORE \t\t\tdepositedBalance[user]\n      PUSH 20\t\t\tdepositedBalance[user]\n      ADD \t\t\tdepositedBalance[user]\n      PUSH 0\t\t\tdepositedBalance[user]\n      KECCAK256 \t\t\tdepositedBalance[user]\n      SLOAD \t\t\tdepositedBalance[user]\n      SWAP1 \t\t\treturn depositedBalance[user]\n      POP \t\t\treturn depositedBalance[user]\n      SWAP2 \t\t\tfunction getDepositedBalance(a...\n      SWAP1 \t\t\tfunction getDepositedBalance(a...\n      POP \t\t\tfunction getDepositedBalance(a...\n      JUMP \t\t\tfunction getDepositedBalance(a...\n    tag 31\t\t\tfunction withdraw(uint256 amou...\n      JUMPDEST \t\t\tfunction withdraw(uint256 amou...\n      PUSH 0\t\t\t0\n      DUP2 \t\t\tamount\n      GT \t\t\tamount > 0\n      PUSH [tag] 68\t\t\trequire(amount > 0, \"Must with...\n      JUMPI \t\t\trequire(amount > 0, \"Must with...\n      PUSH 40\t\t\trequire(amount > 0, \"Must with...\n      MLOAD \t\t\trequire(amount > 0, \"Must with...\n      PUSH 8C379A000000000000000000000000000000000000000000000000000000000\t\t\trequire(amount > 0, \"Must with...\n      DUP2 \t\t\trequire(amount > 0, \"Must with...\n      MSTORE \t\t\trequire(amount > 0, \"Must with...\n      PUSH 4\t\t\trequire(amount > 0, \"Must with...\n      ADD \t\t\trequire(amount > 0, \"Must with...\n      PUSH [tag] 69\t\t\trequire(amount > 0, \"Must with...\n      SWAP1 \t\t\trequire(amount > 0, \"Must with...\n      PUSH [tag] 70\t\t\trequire(amount > 0, \"Must with...\n      JUMP \t\t\trequire(amount > 0, \"Must with...\n    tag 69\t\t\trequire(amount > 0, \"Must with...\n      JUMPDEST \t\t\trequire(amount > 0, \"Must with...\n      PUSH 40\t\t\trequire(amount > 0, \"Must with...\n      MLOAD \t\t\trequire(amount > 0, \"Must with...\n      DUP1 \t\t\trequire(amount > 0, \"Must with...\n      SWAP2 \t\t\trequire(amount > 0, \"Must with...\n      SUB \t\t\trequire(amount > 0, \"Must with...\n      SWAP1 \t\t\trequire(amount > 0, \"Must with...\n      REVERT \t\t\trequire(amount > 0, \"Must with...\n    tag 68\t\t\trequire(amount > 0, \"Must with...\n      JUMPDEST \t\t\trequire(amount > 0, \"Must with...\n      DUP1 \t\t\tamount\n      PUSH 2\t\t\tstakedBalance\n      PUSH 0\t\t\tstakedBalance[msg.sender]\n      CALLER \t\t\tmsg.sender\n      PUSH FFFFFFFFFFFFFFFFFFFFFFFFFFFFFFFFFFFFFFFF\t\t\tstakedBalance[msg.sender]\n      AND \t\t\tstakedBalance[msg.sender]\n      PUSH FFFFFFFFFFFFFFFFFFFFFFFFFFFFFFFFFFFFFFFF\t\t\tstakedBalance[msg.sender]\n      AND \t\t\tstakedBalance[msg.sender]\n      DUP2 \t\t\tstakedBalance[msg.sender]\n      MSTORE \t\t\tstakedBalance[msg.sender]\n      PUSH 20\t\t\tstakedBalance[msg.sender]\n      ADD \t\t\tstakedBalance[msg.sender]\n      SWAP1 \t\t\tstakedBalance[msg.sender]\n      DUP2 \t\t\tstakedBalance[msg.sender]\n      MSTORE \t\t\tstakedBalance[msg.sender]\n      PUSH 20\t\t\tstakedBalance[msg.sender]\n      ADD \t\t\tstakedBalance[msg.sender]\n      PUSH 0\t\t\tstakedBalance[msg.sender]\n      KECCAK256 \t\t\tstakedBalance[msg.sender]\n      SLOAD \t\t\tstakedBalance[msg.sender]\n      LT \t\t\tstakedBalance[msg.sender] >= a...\n      ISZERO \t\t\tstakedBalance[msg.sender] >= a...\n      PUSH [tag] 71\t\t\trequire(stakedBalance[msg.send...\n      JUMPI \t\t\trequire(stakedBalance[msg.send...\n      PUSH 40\t\t\trequire(stakedBalance[msg.send...\n      MLOAD \t\t\trequire(stakedBalance[msg.send...\n      PUSH 8C379A000000000000000000000000000000000000000000000000000000000\t\t\trequire(stakedBalance[msg.send...\n      DUP2 \t\t\trequire(stakedBalance[msg.send...\n      MSTORE \t\t\trequire(stakedBalance[msg.send...\n      PUSH 4\t\t\trequire(stakedBalance[msg.send...\n      ADD \t\t\trequire(stakedBalance[msg.send...\n      PUSH [tag] 72\t\t\trequire(stakedBalance[msg.send...\n      SWAP1 \t\t\trequire(stakedBalance[msg.send...\n      PUSH [tag] 73\t\t\trequire(stakedBalance[msg.send...\n      JUMP \t\t\trequire(stakedBalance[msg.send...\n    tag 72\t\t\trequire(stakedBalance[msg.send...\n      JUMPDEST \t\t\trequire(stakedBalance[msg.send...\n      PUSH 40\t\t\trequire(stakedBalance[msg.send...\n      MLOAD \t\t\trequire(stakedBalance[msg.send...\n      DUP1 \t\t\trequire(stakedBalance[msg.send...\n      SWAP2 \t\t\trequire(stakedBalance[msg.send...\n      SUB \t\t\trequire(stakedBalance[msg.send...\n      SWAP1 \t\t\trequire(stakedBalance[msg.send...\n      REVERT \t\t\trequire(stakedBalance[msg.send...\n    tag 71\t\t\trequire(stakedBalance[msg.send...\n      JUMPDEST \t\t\trequire(stakedBalance[msg.send...\n      DUP1 \t\t\tamount\n      PUSH 2\t\t\tstakedBalance\n      PUSH 0\t\t\tstakedBalance[msg.sender]\n      CALLER \t\t\tmsg.sender\n      PUSH FFFFFFFFFFFFFFFFFFFFFFFFFFFFFFFFFFFFFFFF\t\t\tstakedBalance[msg.sender]\n      AND \t\t\tstakedBalance[msg.sender]\n      PUSH FFFFFFFFFFFFFFFFFFFFFFFFFFFFFFFFFFFFFFFF\t\t\tstakedBalance[msg.sender]\n      AND \t\t\tstakedBalance[msg.sender]\n      DUP2 \t\t\tstakedBalance[msg.sender]\n      MSTORE \t\t\tstakedBalance[msg.sender]\n      PUSH 20\t\t\tstakedBalance[msg.sender]\n      ADD \t\t\tstakedBalance[msg.sender]\n      SWAP1 \t\t\tstakedBalance[msg.sender]\n      DUP2 \t\t\tstakedBalance[msg.sender]\n      MSTORE \t\t\tstakedBalance[msg.sender]\n      PUSH 20\t\t\tstakedBalance[msg.sender]\n      ADD \t\t\tstakedBalance[msg.sender]\n      PUSH 0\t\t\tstakedBalance[msg.sender]\n      KECCAK256 \t\t\tstakedBalance[msg.sender]\n      PUSH 0\t\t\tstakedBalance[msg.sender]\n      DUP3 \t\t\tstakedBalance[msg.sender] -= a...\n      DUP3 \t\t\tstakedBalance[msg.sender] -= a...\n      SLOAD \t\t\tstakedBalance[msg.sender] -= a...\n      PUSH [tag] 74\t\t\tstakedBalance[msg.sender] -= a...\n      SWAP2 \t\t\tstakedBalance[msg.sender] -= a...\n      SWAP1 \t\t\tstakedBalance[msg.sender] -= a...\n      PUSH [tag] 75\t\t\tstakedBalance[msg.sender] -= a...\n      JUMP \t\t\tstakedBalance[msg.sender] -= a...\n    tag 74\t\t\tstakedBalance[msg.sender] -= a...\n      JUMPDEST \t\t\tstakedBalance[msg.sender] -= a...\n      SWAP3 \t\t\tstakedBalance[msg.sender] -= a...\n      POP \t\t\tstakedBalance[msg.sender] -= a...\n      POP \t\t\tstakedBalance[msg.sender] -= a...\n      DUP2 \t\t\tstakedBalance[msg.sender] -= a...\n      SWAP1 \t\t\tstakedBalance[msg.sender] -= a...\n      SSTORE \t\t\tstakedBalance[msg.sender] -= a...\n      POP \t\t\tstakedBalance[msg.sender] -= a...\n      DUP1 \t\t\tamount\n      PUSH 4\t\t\ttotalStaked\n      PUSH 0\t\t\ttotalStaked\n      DUP3 \t\t\ttotalStaked -= amount\n      DUP3 \t\t\ttotalStaked -= amount\n      SLOAD \t\t\ttotalStaked -= amount\n      PUSH [tag] 76\t\t\ttotalStaked -= amount\n      SWAP2 \t\t\ttotalStaked -= amount\n      SWAP1 \t\t\ttotalStaked -= amount\n      PUSH [tag] 75\t\t\ttotalStaked -= amount\n      JUMP \t\t\ttotalStaked -= amount\n    tag 76\t\t\ttotalStaked -= amount\n      JUMPDEST \t\t\ttotalStaked -= amount\n      SWAP3 \t\t\ttotalStaked -= amount\n      POP \t\t\ttotalStaked -= amount\n      POP \t\t\ttotalStaked -= amount\n      DUP2 \t\t\ttotalStaked -= amount\n      SWAP1 \t\t\ttotalStaked -= amount\n      SSTORE \t\t\ttotalStaked -= amount\n      POP \t\t\ttotalStaked -= amount\n      PUSH 1\t\t\ttokenB\n      PUSH 0\t\t\ttokenB\n      SWAP1 \t\t\ttokenB\n      SLOAD \t\t\ttokenB\n      SWAP1 \t\t\ttokenB\n      PUSH 100\t\t\ttokenB\n      EXP \t\t\ttokenB\n      SWAP1 \t\t\ttokenB\n      DIV \t\t\ttokenB\n      PUSH FFFFFFFFFFFFFFFFFFFFFFFFFFFFFFFFFFFFFFFF\t\t\ttokenB\n      AND \t\t\ttokenB\n      PUSH FFFFFFFFFFFFFFFFFFFFFFFFFFFFFFFFFFFFFFFF\t\t\tIERC20(tokenB).transfer\n      AND \t\t\tIERC20(tokenB).transfer\n      PUSH A9059CBB\t\t\tIERC20(tokenB).transfer\n      CALLER \t\t\tmsg.sender\n      DUP4 \t\t\tamount\n      PUSH 40\t\t\tIERC20(tokenB).transfer(msg.se...\n      MLOAD \t\t\tIERC20(tokenB).transfer(msg.se...\n      DUP4 \t\t\tIERC20(tokenB).transfer(msg.se...\n      PUSH FFFFFFFF\t\t\tIERC20(tokenB).transfer(msg.se...\n      AND \t\t\tIERC20(tokenB).transfer(msg.se...\n      PUSH E0\t\t\tIERC20(tokenB).transfer(msg.se...\n      SHL \t\t\tIERC20(tokenB).transfer(msg.se...\n      DUP2 \t\t\tIERC20(tokenB).transfer(msg.se...\n      MSTORE \t\t\tIERC20(tokenB).transfer(msg.se...\n      PUSH 4\t\t\tIERC20(tokenB).transfer(msg.se...\n      ADD \t\t\tIERC20(tokenB).transfer(msg.se...\n      PUSH [tag] 77\t\t\tIERC20(tokenB).transfer(msg.se...\n      SWAP3 \t\t\tIERC20(tokenB).transfer(msg.se...\n      SWAP2 \t\t\tIERC20(tokenB).transfer(msg.se...\n      SWAP1 \t\t\tIERC20(tokenB).transfer(msg.se...\n      PUSH [tag] 78\t\t\tIERC20(tokenB).transfer(msg.se...\n      JUMP \t\t\tIERC20(tokenB).transfer(msg.se...\n    tag 77\t\t\tIERC20(tokenB).transfer(msg.se...\n      JUMPDEST \t\t\tIERC20(tokenB).transfer(msg.se...\n      PUSH 20\t\t\tIERC20(tokenB).transfer(msg.se...\n      PUSH 40\t\t\tIERC20(tokenB).transfer(msg.se...\n      MLOAD \t\t\tIERC20(tokenB).transfer(msg.se...\n      DUP1 \t\t\tIERC20(tokenB).transfer(msg.se...\n      DUP4 \t\t\tIERC20(tokenB).transfer(msg.se...\n      SUB \t\t\tIERC20(tokenB).transfer(msg.se...\n      DUP2 \t\t\tIERC20(tokenB).transfer(msg.se...\n      PUSH 0\t\t\tIERC20(tokenB).transfer(msg.se...\n      DUP8 \t\t\tIERC20(tokenB).transfer(msg.se...\n      GAS \t\t\tIERC20(tokenB).transfer(msg.se...\n      CALL \t\t\tIERC20(tokenB).transfer(msg.se...\n      ISZERO \t\t\tIERC20(tokenB).transfer(msg.se...\n      DUP1 \t\t\tIERC20(tokenB).transfer(msg.se...\n      ISZERO \t\t\tIERC20(tokenB).transfer(msg.se...\n      PUSH [tag] 80\t\t\tIERC20(tokenB).transfer(msg.se...\n      JUMPI \t\t\tIERC20(tokenB).transfer(msg.se...\n      RETURNDATASIZE \t\t\tIERC20(tokenB).transfer(msg.se...\n      PUSH 0\t\t\tIERC20(tokenB).transfer(msg.se...\n      PUSH 0\t\t\tIERC20(tokenB).transfer(msg.se...\n      RETURNDATACOPY \t\t\tIERC20(tokenB).transfer(msg.se...\n      RETURNDATASIZE \t\t\tIERC20(tokenB).transfer(msg.se...\n      PUSH 0\t\t\tIERC20(tokenB).transfer(msg.se...\n      REVERT \t\t\tIERC20(tokenB).transfer(msg.se...\n    tag 80\t\t\tIERC20(tokenB).transfer(msg.se...\n      JUMPDEST \t\t\tIERC20(tokenB).transfer(msg.se...\n      POP \t\t\tIERC20(tokenB).transfer(msg.se...\n      POP \t\t\tIERC20(tokenB).transfer(msg.se...\n      POP \t\t\tIERC20(tokenB).transfer(msg.se...\n      POP \t\t\tIERC20(tokenB).transfer(msg.se...\n      PUSH 40\t\t\tIERC20(tokenB).transfer(msg.se...\n      MLOAD \t\t\tIERC20(tokenB).transfer(msg.se...\n      RETURNDATASIZE \t\t\tIERC20(tokenB).transfer(msg.se...\n      PUSH 1F\t\t\tIERC20(tokenB).transfer(msg.se...\n      NOT \t\t\tIERC20(tokenB).transfer(msg.se...\n      PUSH 1F\t\t\tIERC20(tokenB).transfer(msg.se...\n      DUP3 \t\t\tIERC20(tokenB).transfer(msg.se...\n      ADD \t\t\tIERC20(tokenB).transfer(msg.se...\n      AND \t\t\tIERC20(tokenB).transfer(msg.se...\n      DUP3 \t\t\tIERC20(tokenB).transfer(msg.se...\n      ADD \t\t\tIERC20(tokenB).transfer(msg.se...\n      DUP1 \t\t\tIERC20(tokenB).transfer(msg.se...\n      PUSH 40\t\t\tIERC20(tokenB).transfer(msg.se...\n      MSTORE \t\t\tIERC20(tokenB).transfer(msg.se...\n      POP \t\t\tIERC20(tokenB).transfer(msg.se...\n      DUP2 \t\t\tIERC20(tokenB).transfer(msg.se...\n      ADD \t\t\tIERC20(tokenB).transfer(msg.se...\n      SWAP1 \t\t\tIERC20(tokenB).transfer(msg.se...\n      PUSH [tag] 81\t\t\tIERC20(tokenB).transfer(msg.se...\n      SWAP2 \t\t\tIERC20(tokenB).transfer(msg.se...\n      SWAP1 \t\t\tIERC20(tokenB).transfer(msg.se...\n      PUSH [tag] 82\t\t\tIERC20(tokenB).transfer(msg.se...\n      JUMP \t\t\tIERC20(tokenB).transfer(msg.se...\n    tag 81\t\t\tIERC20(tokenB).transfer(msg.se...\n      JUMPDEST \t\t\tIERC20(tokenB).transfer(msg.se...\n      PUSH [tag] 83\t\t\trequire(\\n            IERC20(t...\n      JUMPI \t\t\trequire(\\n            IERC20(t...\n      PUSH 40\t\t\trequire(\\n            IERC20(t...\n      MLOAD \t\t\trequire(\\n            IERC20(t...\n      PUSH 8C379A000000000000000000000000000000000000000000000000000000000\t\t\trequire(\\n            IERC20(t...\n      DUP2 \t\t\trequire(\\n            IERC20(t...\n      MSTORE \t\t\trequire(\\n            IERC20(t...\n      PUSH 4\t\t\trequire(\\n            IERC20(t...\n      ADD \t\t\trequire(\\n            IERC20(t...\n      PUSH [tag] 84\t\t\trequire(\\n            IERC20(t...\n      SWAP1 \t\t\trequire(\\n            IERC20(t...\n      PUSH [tag] 85\t\t\trequire(\\n            IERC20(t...\n      JUMP \t\t\trequire(\\n            IERC20(t...\n    tag 84\t\t\trequire(\\n            IERC20(t...\n      JUMPDEST \t\t\trequire(\\n            IERC20(t...\n      PUSH 40\t\t\trequire(\\n            IERC20(t...\n      MLOAD \t\t\trequire(\\n            IERC20(t...\n      DUP1 \t\t\trequire(\\n            IERC20(t...\n      SWAP2 \t\t\trequire(\\n            IERC20(t...\n      SUB \t\t\trequire(\\n            IERC20(t...\n      SWAP1 \t\t\trequire(\\n            IERC20(t...\n      REVERT \t\t\trequire(\\n            IERC20(t...\n    tag 83\t\t\trequire(\\n            IERC20(t...\n      JUMPDEST \t\t\trequire(\\n            IERC20(t...\n      CALLER \t\t\tmsg.sender\n      PUSH FFFFFFFFFFFFFFFFFFFFFFFFFFFFFFFFFFFFFFFF\t\t\tWithdrawn(msg.sender, amount)\n      AND \t\t\tWithdrawn(msg.sender, amount)\n      PUSH 7084F5476618D8E60B11EF0D7D3F06914655ADB8793E28FF7F018D4C76D505D5\t\t\tWithdrawn(msg.sender, amount)\n      DUP3 \t\t\tamount\n      PUSH 40\t\t\tWithdrawn(msg.sender, amount)\n      MLOAD \t\t\tWithdrawn(msg.sender, amount)\n      PUSH [tag] 86\t\t\tWithdrawn(msg.sender, amount)\n      SWAP2 \t\t\tWithdrawn(msg.sender, amount)\n      SWAP1 \t\t\tWithdrawn(msg.sender, amount)\n      PUSH [tag] 27\t\t\tWithdrawn(msg.sender, amount)\n      JUMP \t\t\tWithdrawn(msg.sender, amount)\n    tag 86\t\t\tWithdrawn(msg.sender, amount)\n      JUMPDEST \t\t\tWithdrawn(msg.sender, amount)\n      PUSH 40\t\t\tWithdrawn(msg.sender, amount)\n      MLOAD \t\t\tWithdrawn(msg.sender, amount)\n      DUP1 \t\t\tWithdrawn(msg.sender, amount)\n      SWAP2 \t\t\tWithdrawn(msg.sender, amount)\n      SUB \t\t\tWithdrawn(msg.sender, amount)\n      SWAP1 \t\t\tWithdrawn(msg.sender, amount)\n      LOG2 \t\t\tWithdrawn(msg.sender, amount)\n      POP \t\t\tfunction withdraw(uint256 amou...\n      JUMP \t\t\tfunction withdraw(uint256 amou...\n    tag 34\t\t\tfunction getStakedBalance(addr...\n      JUMPDEST \t\t\tfunction getStakedBalance(addr...\n      PUSH 0\t\t\tuint256\n      PUSH 2\t\t\tstakedBalance\n      PUSH 0\t\t\tstakedBalance[user]\n      DUP4 \t\t\tuser\n      PUSH FFFFFFFFFFFFFFFFFFFFFFFFFFFFFFFFFFFFFFFF\t\t\tstakedBalance[user]\n      AND \t\t\tstakedBalance[user]\n      PUSH FFFFFFFFFFFFFFFFFFFFFFFFFFFFFFFFFFFFFFFF\t\t\tstakedBalance[user]\n      AND \t\t\tstakedBalance[user]\n      DUP2 \t\t\tstakedBalance[user]\n      MSTORE \t\t\tstakedBalance[user]\n      PUSH 20\t\t\tstakedBalance[user]\n      ADD \t\t\tstakedBalance[user]\n      SWAP1 \t\t\tstakedBalance[user]\n      DUP2 \t\t\tstakedBalance[user]\n      MSTORE \t\t\tstakedBalance[user]\n      PUSH 20\t\t\tstakedBalance[user]\n      ADD \t\t\tstakedBalance[user]\n      PUSH 0\t\t\tstakedBalance[user]\n      KECCAK256 \t\t\tstakedBalance[user]\n      SLOAD \t\t\tstakedBalance[user]\n      SWAP1 \t\t\treturn stakedBalance[user]\n      POP \t\t\treturn stakedBalance[user]\n      SWAP2 \t\t\tfunction getStakedBalance(addr...\n      SWAP1 \t\t\tfunction getStakedBalance(addr...\n      POP \t\t\tfunction getStakedBalance(addr...\n      JUMP \t\t\tfunction getStakedBalance(addr...\n    tag 38\t\t\tfunction getTokenBalance(addre...\n      JUMPDEST \t\t\tfunction getTokenBalance(addre...\n      PUSH 0\t\t\tuint256\n      DUP2 \t\t\ttoken\n      PUSH FFFFFFFFFFFFFFFFFFFFFFFFFFFFFFFFFFFFFFFF\t\t\tIERC20(token).balanceOf\n      AND \t\t\tIERC20(token).balanceOf\n      PUSH 70A08231\t\t\tIERC20(token).balanceOf\n      ADDRESS \t\t\tthis\n      PUSH 40\t\t\tIERC20(token).balanceOf(addres...\n      MLOAD \t\t\tIERC20(token).balanceOf(addres...\n      DUP3 \t\t\tIERC20(token).balanceOf(addres...\n      PUSH FFFFFFFF\t\t\tIERC20(token).balanceOf(addres...\n      AND \t\t\tIERC20(token).balanceOf(addres...\n      PUSH E0\t\t\tIERC20(token).balanceOf(addres...\n      SHL \t\t\tIERC20(token).balanceOf(addres...\n      DUP2 \t\t\tIERC20(token).balanceOf(addres...\n      MSTORE \t\t\tIERC20(token).balanceOf(addres...\n      PUSH 4\t\t\tIERC20(token).balanceOf(addres...\n      ADD \t\t\tIERC20(token).balanceOf(addres...\n      PUSH [tag] 89\t\t\tIERC20(token).balanceOf(addres...\n      SWAP2 \t\t\tIERC20(token).balanceOf(addres...\n      SWAP1 \t\t\tIERC20(token).balanceOf(addres...\n      PUSH [tag] 21\t\t\tIERC20(token).balanceOf(addres...\n      JUMP \t\t\tIERC20(token).balanceOf(addres...\n    tag 89\t\t\tIERC20(token).balanceOf(addres...\n      JUMPDEST \t\t\tIERC20(token).balanceOf(addres...\n      PUSH 20\t\t\tIERC20(token).balanceOf(addres...\n      PUSH 40\t\t\tIERC20(token).balanceOf(addres...\n      MLOAD \t\t\tIERC20(token).balanceOf(addres...\n      DUP1 \t\t\tIERC20(token).balanceOf(addres...\n      DUP4 \t\t\tIERC20(token).balanceOf(addres...\n      SUB \t\t\tIERC20(token).balanceOf(addres...\n      DUP2 \t\t\tIERC20(token).balanceOf(addres...\n      DUP7 \t\t\tIERC20(token).balanceOf(addres...\n      GAS \t\t\tIERC20(token).balanceOf(addres...\n      STATICCALL \t\t\tIERC20(token).balanceOf(addres...\n      ISZERO \t\t\tIERC20(token).balanceOf(addres...\n      DUP1 \t\t\tIERC20(token).balanceOf(addres...\n      ISZERO \t\t\tIERC20(token).balanceOf(addres...\n      PUSH [tag] 91\t\t\tIERC20(token).balanceOf(addres...\n      JUMPI \t\t\tIERC20(token).balanceOf(addres...\n      RETURNDATASIZE \t\t\tIERC20(token).balanceOf(addres...\n      PUSH 0\t\t\tIERC20(token).balanceOf(addres...\n      PUSH 0\t\t\tIERC20(token).balanceOf(addres...\n      RETURNDATACOPY \t\t\tIERC20(token).balanceOf(addres...\n      RETURNDATASIZE \t\t\tIERC20(token).balanceOf(addres...\n      PUSH 0\t\t\tIERC20(token).balanceOf(addres...\n      REVERT \t\t\tIERC20(token).balanceOf(addres...\n    tag 91\t\t\tIERC20(token).balanceOf(addres...\n      JUMPDEST \t\t\tIERC20(token).balanceOf(addres...\n      POP \t\t\tIERC20(token).balanceOf(addres...\n      POP \t\t\tIERC20(token).balanceOf(addres...\n      POP \t\t\tIERC20(token).balanceOf(addres...\n      POP \t\t\tIERC20(token).balanceOf(addres...\n      PUSH 40\t\t\tIERC20(token).balanceOf(addres...\n      MLOAD \t\t\tIERC20(token).balanceOf(addres...\n      RETURNDATASIZE \t\t\tIERC20(token).balanceOf(addres...\n      PUSH 1F\t\t\tIERC20(token).balanceOf(addres...\n      NOT \t\t\tIERC20(token).balanceOf(addres...\n      PUSH 1F\t\t\tIERC20(token).balanceOf(addres...\n      DUP3 \t\t\tIERC20(token).balanceOf(addres...\n      ADD \t\t\tIERC20(token).balanceOf(addres...\n      AND \t\t\tIERC20(token).balanceOf(addres...\n      DUP3 \t\t\tIERC20(token).balanceOf(addres...\n      ADD \t\t\tIERC20(token).balanceOf(addres...\n      DUP1 \t\t\tIERC20(token).balanceOf(addres...\n      PUSH 40\t\t\tIERC20(token).balanceOf(addres...\n      MSTORE \t\t\tIERC20(token).balanceOf(addres...\n      POP \t\t\tIERC20(token).balanceOf(addres...\n      DUP2 \t\t\tIERC20(token).balanceOf(addres...\n      ADD \t\t\tIERC20(token).balanceOf(addres...\n      SWAP1 \t\t\tIERC20(token).balanceOf(addres...\n      PUSH [tag] 92\t\t\tIERC20(token).balanceOf(addres...\n      SWAP2 \t\t\tIERC20(token).balanceOf(addres...\n      SWAP1 \t\t\tIERC20(token).balanceOf(addres...\n      PUSH [tag] 93\t\t\tIERC20(token).balanceOf(addres...\n      JUMP \t\t\tIERC20(token).balanceOf(addres...\n    tag 92\t\t\tIERC20(token).balanceOf(addres...\n      JUMPDEST \t\t\tIERC20(token).balanceOf(addres...\n      SWAP1 \t\t\treturn IERC20(token).balanceOf...\n      POP \t\t\treturn IERC20(token).balanceOf...\n      SWAP2 \t\t\tfunction getTokenBalance(addre...\n      SWAP1 \t\t\tfunction getTokenBalance(addre...\n      POP \t\t\tfunction getTokenBalance(addre...\n      JUMP \t\t\tfunction getTokenBalance(addre...\n    tag 41\t\t\taddress public tokenB\n      JUMPDEST \t\t\taddress public tokenB\n      PUSH 1\t\t\taddress public tokenB\n      PUSH 0\t\t\taddress public tokenB\n      SWAP1 \t\t\taddress public tokenB\n      SLOAD \t\t\taddress public tokenB\n      SWAP1 \t\t\taddress public tokenB\n      PUSH 100\t\t\taddress public tokenB\n      EXP \t\t\taddress public tokenB\n      SWAP1 \t\t\taddress public tokenB\n      DIV \t\t\taddress public tokenB\n      PUSH FFFFFFFFFFFFFFFFFFFFFFFFFFFFFFFFFFFFFFFF\t\t\taddress public tokenB\n      AND \t\t\taddress public tokenB\n      DUP2 \t\t\taddress public tokenB\n      JUMP \t\t\taddress public tokenB\n    tag 45\t\t\tmapping(address => uint256) pu...\n      JUMPDEST \t\t\tmapping(address => uint256) pu...\n      PUSH 2\t\t\tmapping(address => uint256) pu...\n      PUSH 20\t\t\tmapping(address => uint256) pu...\n      MSTORE \t\t\tmapping(address => uint256) pu...\n      DUP1 \t\t\tmapping(address => uint256) pu...\n      PUSH 0\t\t\tmapping(address => uint256) pu...\n      MSTORE \t\t\tmapping(address => uint256) pu...\n      PUSH 40\t\t\tmapping(address => uint256) pu...\n      PUSH 0\t\t\tmapping(address => uint256) pu...\n      KECCAK256 \t\t\tmapping(address => uint256) pu...\n      PUSH 0\t\t\tmapping(address => uint256) pu...\n      SWAP2 \t\t\tmapping(address => uint256) pu...\n      POP \t\t\tmapping(address => uint256) pu...\n      SWAP1 \t\t\tmapping(address => uint256) pu...\n      POP \t\t\tmapping(address => uint256) pu...\n      SLOAD \t\t\tmapping(address => uint256) pu...\n      DUP2 \t\t\tmapping(address => uint256) pu...\n      JUMP \t\t\tmapping(address => uint256) pu...\n    tag 48\t\t\tuint256 public totalStaked\n      JUMPDEST \t\t\tuint256 public totalStaked\n      PUSH 4\t\t\tuint256 public totalStaked\n      SLOAD \t\t\tuint256 public totalStaked\n      DUP2 \t\t\tuint256 public totalStaked\n      JUMP \t\t\tuint256 public totalStaked\n    tag 52\t\t\tfunction swap(uint256 amount) ...\n      JUMPDEST \t\t\tfunction swap(uint256 amount) ...\n      PUSH 0\t\t\t0\n      DUP2 \t\t\tamount\n      GT \t\t\tamount > 0\n      PUSH [tag] 95\t\t\trequire(amount > 0, \"Must swap...\n      JUMPI \t\t\trequire(amount > 0, \"Must swap...\n      PUSH 40\t\t\trequire(amount > 0, \"Must swap...\n      MLOAD \t\t\trequire(amount > 0, \"Must swap...\n      PUSH 8C379A000000000000000000000000000000000000000000000000000000000\t\t\trequire(amount > 0, \"Must swap...\n      DUP2 \t\t\trequire(amount > 0, \"Must swap...\n      MSTORE \t\t\trequire(amount > 0, \"Must swap...\n      PUSH 4\t\t\trequire(amount > 0, \"Must swap...\n      ADD \t\t\trequire(amount > 0, \"Must swap...\n      PUSH [tag] 96\t\t\trequire(amount > 0, \"Must swap...\n      SWAP1 \t\t\trequire(amount > 0, \"Must swap...\n      PUSH [tag] 97\t\t\trequire(amount > 0, \"Must swap...\n      JUMP \t\t\trequire(amount > 0, \"Must swap...\n    tag 96\t\t\trequire(amount > 0, \"Must swap...\n      JUMPDEST \t\t\trequire(amount > 0, \"Must swap...\n      PUSH 40\t\t\trequire(amount > 0, \"Must swap...\n      MLOAD \t\t\trequire(amount > 0, \"Must swap...\n      DUP1 \t\t\trequire(amount > 0, \"Must swap...\n      SWAP2 \t\t\trequire(amount > 0, \"Must swap...\n      SUB \t\t\trequire(amount > 0, \"Must swap...\n      SWAP1 \t\t\trequire(amount > 0, \"Must swap...\n      REVERT \t\t\trequire(amount > 0, \"Must swap...\n    tag 95\t\t\trequire(amount > 0, \"Must swap...\n      JUMPDEST \t\t\trequire(amount > 0, \"Must swap...\n      DUP1 \t\t\tamount\n      PUSH 5\t\t\ttotalDeposited\n      SLOAD \t\t\ttotalDeposited\n      LT \t\t\ttotalDeposited >= amount\n      ISZERO \t\t\ttotalDeposited >= amount\n      PUSH [tag] 98\t\t\trequire(totalDeposited >= amou...\n      JUMPI \t\t\trequire(totalDeposited >= amou...\n      PUSH 40\t\t\trequire(totalDeposited >= amou...\n      MLOAD \t\t\trequire(totalDeposited >= amou...\n      PUSH 8C379A000000000000000000000000000000000000000000000000000000000\t\t\trequire(totalDeposited >= amou...\n      DUP2 \t\t\trequire(totalDeposited >= amou...\n      MSTORE \t\t\trequire(totalDeposited >= amou...\n      PUSH 4\t\t\trequire(totalDeposited >= amou...\n      ADD \t\t\trequire(totalDeposited >= amou...\n      PUSH [tag] 99\t\t\trequire(totalDeposited >= amou...\n      SWAP1 \t\t\trequire(totalDeposited >= amou...\n      PUSH [tag] 100\t\t\trequire(totalDeposited >= amou...\n      JUMP \t\t\trequire(totalDeposited >= amou...\n    tag 99\t\t\trequire(totalDeposited >= amou...\n      JUMPDEST \t\t\trequire(totalDeposited >= amou...\n      PUSH 40\t\t\trequire(totalDeposited >= amou...\n      MLOAD \t\t\trequire(totalDeposited >= amou...\n      DUP1 \t\t\trequire(totalDeposited >= amou...\n      SWAP2 \t\t\trequire(totalDeposited >= amou...\n      SUB \t\t\trequire(totalDeposited >= amou...\n      SWAP1 \t\t\trequire(totalDeposited >= amou...\n      REVERT \t\t\trequire(totalDeposited >= amou...\n    tag 98\t\t\trequire(totalDeposited >= amou...\n      JUMPDEST \t\t\trequire(totalDeposited >= amou...\n      PUSH 0\t\t\ttokenA\n      PUSH 0\t\t\ttokenA\n      SWAP1 \t\t\ttokenA\n      SLOAD \t\t\ttokenA\n      SWAP1 \t\t\ttokenA\n      PUSH 100\t\t\ttokenA\n      EXP \t\t\ttokenA\n      SWAP1 \t\t\ttokenA\n      DIV \t\t\ttokenA\n      PUSH FFFFFFFFFFFFFFFFFFFFFFFFFFFFFFFFFFFFFFFF\t\t\ttokenA\n      AND \t\t\ttokenA\n      PUSH FFFFFFFFFFFFFFFFFFFFFFFFFFFFFFFFFFFFFFFF\t\t\tIERC20(tokenA).transferFrom\n      AND \t\t\tIERC20(tokenA).transferFrom\n      PUSH 23B872DD\t\t\tIERC20(tokenA).transferFrom\n      CALLER \t\t\tmsg.sender\n      ADDRESS \t\t\tthis\n      DUP5 \t\t\tamount\n      PUSH 40\t\t\tIERC20(tokenA).transferFrom(ms...\n      MLOAD \t\t\tIERC20(tokenA).transferFrom(ms...\n      DUP5 \t\t\tIERC20(tokenA).transferFrom(ms...\n      PUSH FFFFFFFF\t\t\tIERC20(tokenA).transferFrom(ms...\n      AND \t\t\tIERC20(tokenA).transferFrom(ms...\n      PUSH E0\t\t\tIERC20(tokenA).transferFrom(ms...\n      SHL \t\t\tIERC20(tokenA).transferFrom(ms...\n      DUP2 \t\t\tIERC20(tokenA).transferFrom(ms...\n      MSTORE \t\t\tIERC20(tokenA).transferFrom(ms...\n      PUSH 4\t\t\tIERC20(tokenA).transferFrom(ms...\n      ADD \t\t\tIERC20(tokenA).transferFrom(ms...\n      PUSH [tag] 101\t\t\tIERC20(tokenA).transferFrom(ms...\n      SWAP4 \t\t\tIERC20(tokenA).transferFrom(ms...\n      SWAP3 \t\t\tIERC20(tokenA).transferFrom(ms...\n      SWAP2 \t\t\tIERC20(tokenA).transferFrom(ms...\n      SWAP1 \t\t\tIERC20(tokenA).transferFrom(ms...\n      PUSH [tag] 102\t\t\tIERC20(tokenA).transferFrom(ms...\n      JUMP \t\t\tIERC20(tokenA).transferFrom(ms...\n    tag 101\t\t\tIERC20(tokenA).transferFrom(ms...\n      JUMPDEST \t\t\tIERC20(tokenA).transferFrom(ms...\n      PUSH 20\t\t\tIERC20(tokenA).transferFrom(ms...\n      PUSH 40\t\t\tIERC20(tokenA).transferFrom(ms...\n      MLOAD \t\t\tIERC20(tokenA).transferFrom(ms...\n      DUP1 \t\t\tIERC20(tokenA).transferFrom(ms...\n      DUP4 \t\t\tIERC20(tokenA).transferFrom(ms...\n      SUB \t\t\tIERC20(tokenA).transferFrom(ms...\n      DUP2 \t\t\tIERC20(tokenA).transferFrom(ms...\n      PUSH 0\t\t\tIERC20(tokenA).transferFrom(ms...\n      DUP8 \t\t\tIERC20(tokenA).transferFrom(ms...\n      GAS \t\t\tIERC20(tokenA).transferFrom(ms...\n      CALL \t\t\tIERC20(tokenA).transferFrom(ms...\n      ISZERO \t\t\tIERC20(tokenA).transferFrom(ms...\n      DUP1 \t\t\tIERC20(tokenA).transferFrom(ms...\n      ISZERO \t\t\tIERC20(tokenA).transferFrom(ms...\n      PUSH [tag] 104\t\t\tIERC20(tokenA).transferFrom(ms...\n      JUMPI \t\t\tIERC20(tokenA).transferFrom(ms...\n      RETURNDATASIZE \t\t\tIERC20(tokenA).transferFrom(ms...\n      PUSH 0\t\t\tIERC20(tokenA).transferFrom(ms...\n      PUSH 0\t\t\tIERC20(tokenA).transferFrom(ms...\n      RETURNDATACOPY \t\t\tIERC20(tokenA).transferFrom(ms...\n      RETURNDATASIZE \t\t\tIERC20(tokenA).transferFrom(ms...\n      PUSH 0\t\t\tIERC20(tokenA).transferFrom(ms...\n      REVERT \t\t\tIERC20(tokenA).transferFrom(ms...\n    tag 104\t\t\tIERC20(tokenA).transferFrom(ms...\n      JUMPDEST \t\t\tIERC20(tokenA).transferFrom(ms...\n      POP \t\t\tIERC20(tokenA).transferFrom(ms...\n      POP \t\t\tIERC20(tokenA).transferFrom(ms...\n      POP \t\t\tIERC20(tokenA).transferFrom(ms...\n      POP \t\t\tIERC20(tokenA).transferFrom(ms...\n      PUSH 40\t\t\tIERC20(tokenA).transferFrom(ms...\n      MLOAD \t\t\tIERC20(tokenA).transferFrom(ms...\n      RETURNDATASIZE \t\t\tIERC20(tokenA).transferFrom(ms...\n      PUSH 1F\t\t\tIERC20(tokenA).transferFrom(ms...\n      NOT \t\t\tIERC20(tokenA).transferFrom(ms...\n      PUSH 1F\t\t\tIERC20(tokenA).transferFrom(ms...\n      DUP3 \t\t\tIERC20(tokenA).transferFrom(ms...\n      ADD \t\t\tIERC20(tokenA).transferFrom(ms...\n      AND \t\t\tIERC20(tokenA).transferFrom(ms...\n      DUP3 \t\t\tIERC20(tokenA).transferFrom(ms...\n      ADD \t\t\tIERC20(tokenA).transferFrom(ms...\n      DUP1 \t\t\tIERC20(tokenA).transferFrom(ms...\n      PUSH 40\t\t\tIERC20(tokenA).transferFrom(ms...\n      MSTORE \t\t\tIERC20(tokenA).transferFrom(ms...\n      POP \t\t\tIERC20(tokenA).transferFrom(ms...\n      DUP2 \t\t\tIERC20(tokenA).transferFrom(ms...\n      ADD \t\t\tIERC20(tokenA).transferFrom(ms...\n      SWAP1 \t\t\tIERC20(tokenA).transferFrom(ms...\n      PUSH [tag] 105\t\t\tIERC20(tokenA).transferFrom(ms...\n      SWAP2 \t\t\tIERC20(tokenA).transferFrom(ms...\n      SWAP1 \t\t\tIERC20(tokenA).transferFrom(ms...\n      PUSH [tag] 82\t\t\tIERC20(tokenA).transferFrom(ms...\n      JUMP \t\t\tIERC20(tokenA).transferFrom(ms...\n    tag 105\t\t\tIERC20(tokenA).transferFrom(ms...\n      JUMPDEST \t\t\tIERC20(tokenA).transferFrom(ms...\n      PUSH [tag] 106\t\t\trequire(\\n            IERC20(t...\n      JUMPI \t\t\trequire(\\n            IERC20(t...\n      PUSH 40\t\t\trequire(\\n            IERC20(t...\n      MLOAD \t\t\trequire(\\n            IERC20(t...\n      PUSH 8C379A000000000000000000000000000000000000000000000000000000000\t\t\trequire(\\n            IERC20(t...\n      DUP2 \t\t\trequire(\\n            IERC20(t...\n      MSTORE \t\t\trequire(\\n            IERC20(t...\n      PUSH 4\t\t\trequire(\\n            IERC20(t...\n      ADD \t\t\trequire(\\n            IERC20(t...\n      PUSH [tag] 107\t\t\trequire(\\n            IERC20(t...\n      SWAP1 \t\t\trequire(\\n            IERC20(t...\n      PUSH [tag] 108\t\t\trequire(\\n            IERC20(t...\n      JUMP \t\t\trequire(\\n            IERC20(t...\n    tag 107\t\t\trequire(\\n            IERC20(t...\n      JUMPDEST \t\t\trequire(\\n            IERC20(t...\n      PUSH 40\t\t\trequire(\\n            IERC20(t...\n      MLOAD \t\t\trequire(\\n            IERC20(t...\n      DUP1 \t\t\trequire(\\n            IERC20(t...\n      SWAP2 \t\t\trequire(\\n            IERC20(t...\n      SUB \t\t\trequire(\\n            IERC20(t...\n      SWAP1 \t\t\trequire(\\n            IERC20(t...\n      REVERT \t\t\trequire(\\n            IERC20(t...\n    tag 106\t\t\trequire(\\n            IERC20(t...\n      JUMPDEST \t\t\trequire(\\n            IERC20(t...\n      PUSH 1\t\t\ttokenB\n      PUSH 0\t\t\ttokenB\n      SWAP1 \t\t\ttokenB\n      SLOAD \t\t\ttokenB\n      SWAP1 \t\t\ttokenB\n      PUSH 100\t\t\ttokenB\n      EXP \t\t\ttokenB\n      SWAP1 \t\t\ttokenB\n      DIV \t\t\ttokenB\n      PUSH FFFFFFFFFFFFFFFFFFFFFFFFFFFFFFFFFFFFFFFF\t\t\ttokenB\n      AND \t\t\ttokenB\n      PUSH FFFFFFFFFFFFFFFFFFFFFFFFFFFFFFFFFFFFFFFF\t\t\tIERC20(tokenB).transfer\n      AND \t\t\tIERC20(tokenB).transfer\n      PUSH A9059CBB\t\t\tIERC20(tokenB).transfer\n      CALLER \t\t\tmsg.sender\n      DUP4 \t\t\tamount\n      PUSH 40\t\t\tIERC20(tokenB).transfer(msg.se...\n      MLOAD \t\t\tIERC20(tokenB).transfer(msg.se...\n      DUP4 \t\t\tIERC20(tokenB).transfer(msg.se...\n      PUSH FFFFFFFF\t\t\tIERC20(tokenB).transfer(msg.se...\n      AND \t\t\tIERC20(tokenB).transfer(msg.se...\n      PUSH E0\t\t\tIERC20(tokenB).transfer(msg.se...\n      SHL \t\t\tIERC20(tokenB).transfer(msg.se...\n      DUP2 \t\t\tIERC20(tokenB).transfer(msg.se...\n      MSTORE \t\t\tIERC20(tokenB).transfer(msg.se...\n      PUSH 4\t\t\tIERC20(tokenB).transfer(msg.se...\n      ADD \t\t\tIERC20(tokenB).transfer(msg.se...\n      PUSH [tag] 109\t\t\tIERC20(tokenB).transfer(msg.se...\n      SWAP3 \t\t\tIERC20(tokenB).transfer(msg.se...\n      SWAP2 \t\t\tIERC20(tokenB).transfer(msg.se...\n      SWAP1 \t\t\tIERC20(tokenB).transfer(msg.se...\n      PUSH [tag] 78\t\t\tIERC20(tokenB).transfer(msg.se...\n      JUMP \t\t\tIERC20(tokenB).transfer(msg.se...\n    tag 109\t\t\tIERC20(tokenB).transfer(msg.se...\n      JUMPDEST \t\t\tIERC20(tokenB).transfer(msg.se...\n      PUSH 20\t\t\tIERC20(tokenB).transfer(msg.se...\n      PUSH 40\t\t\tIERC20(tokenB).transfer(msg.se...\n      MLOAD \t\t\tIERC20(tokenB).transfer(msg.se...\n      DUP1 \t\t\tIERC20(tokenB).transfer(msg.se...\n      DUP4 \t\t\tIERC20(tokenB).transfer(msg.se...\n      SUB \t\t\tIERC20(tokenB).transfer(msg.se...\n      DUP2 \t\t\tIERC20(tokenB).transfer(msg.se...\n      PUSH 0\t\t\tIERC20(tokenB).transfer(msg.se...\n      DUP8 \t\t\tIERC20(tokenB).transfer(msg.se...\n      GAS \t\t\tIERC20(tokenB).transfer(msg.se...\n      CALL \t\t\tIERC20(tokenB).transfer(msg.se...\n      ISZERO \t\t\tIERC20(tokenB).transfer(msg.se...\n      DUP1 \t\t\tIERC20(tokenB).transfer(msg.se...\n      ISZERO \t\t\tIERC20(tokenB).transfer(msg.se...\n      PUSH [tag] 111\t\t\tIERC20(tokenB).transfer(msg.se...\n      JUMPI \t\t\tIERC20(tokenB).transfer(msg.se...\n      RETURNDATASIZE \t\t\tIERC20(tokenB).transfer(msg.se...\n      PUSH 0\t\t\tIERC20(tokenB).transfer(msg.se...\n      PUSH 0\t\t\tIERC20(tokenB).transfer(msg.se...\n      RETURNDATACOPY \t\t\tIERC20(tokenB).transfer(msg.se...\n      RETURNDATASIZE \t\t\tIERC20(tokenB).transfer(msg.se...\n      PUSH 0\t\t\tIERC20(tokenB).transfer(msg.se...\n      REVERT \t\t\tIERC20(tokenB).transfer(msg.se...\n    tag 111\t\t\tIERC20(tokenB).transfer(msg.se...\n      JUMPDEST \t\t\tIERC20(tokenB).transfer(msg.se...\n      POP \t\t\tIERC20(tokenB).transfer(msg.se...\n      POP \t\t\tIERC20(tokenB).transfer(msg.se...\n      POP \t\t\tIERC20(tokenB).transfer(msg.se...\n      POP \t\t\tIERC20(tokenB).transfer(msg.se...\n      PUSH 40\t\t\tIERC20(tokenB).transfer(msg.se...\n      MLOAD \t\t\tIERC20(tokenB).transfer(msg.se...\n      RETURNDATASIZE \t\t\tIERC20(tokenB).transfer(msg.se...\n      PUSH 1F\t\t\tIERC20(tokenB).transfer(msg.se...\n      NOT \t\t\tIERC20(tokenB).transfer(msg.se...\n      PUSH 1F\t\t\tIERC20(tokenB).transfer(msg.se...\n      DUP3 \t\t\tIERC20(tokenB).transfer(msg.se...\n      ADD \t\t\tIERC20(tokenB).transfer(msg.se...\n      AND \t\t\tIERC20(tokenB).transfer(msg.se...\n      DUP3 \t\t\tIERC20(tokenB).transfer(msg.se...\n      ADD \t\t\tIERC20(tokenB).transfer(msg.se...\n      DUP1 \t\t\tIERC20(tokenB).transfer(msg.se...\n      PUSH 40\t\t\tIERC20(tokenB).transfer(msg.se...\n      MSTORE \t\t\tIERC20(tokenB).transfer(msg.se...\n      POP \t\t\tIERC20(tokenB).transfer(msg.se...\n      DUP2 \t\t\tIERC20(tokenB).transfer(msg.se...\n      ADD \t\t\tIERC20(tokenB).transfer(msg.se...\n      SWAP1 \t\t\tIERC20(tokenB).transfer(msg.se...\n      PUSH [tag] 112\t\t\tIERC20(tokenB).transfer(msg.se...\n      SWAP2 \t\t\tIERC20(tokenB).transfer(msg.se...\n      SWAP1 \t\t\tIERC20(tokenB).transfer(msg.se...\n      PUSH [tag] 82\t\t\tIERC20(tokenB).transfer(msg.se...\n      JUMP \t\t\tIERC20(tokenB).transfer(msg.se...\n    tag 112\t\t\tIERC20(tokenB).transfer(msg.se...\n      JUMPDEST \t\t\tIERC20(tokenB).transfer(msg.se...\n      PUSH [tag] 113\t\t\trequire(\\n            IERC20(t...\n      JUMPI \t\t\trequire(\\n            IERC20(t...\n      PUSH 40\t\t\trequire(\\n            IERC20(t...\n      MLOAD \t\t\trequire(\\n            IERC20(t...\n      PUSH 8C379A000000000000000000000000000000000000000000000000000000000\t\t\trequire(\\n            IERC20(t...\n      DUP2 \t\t\trequire(\\n            IERC20(t...\n      MSTORE \t\t\trequire(\\n            IERC20(t...\n      PUSH 4\t\t\trequire(\\n            IERC20(t...\n      ADD \t\t\trequire(\\n            IERC20(t...\n      PUSH [tag] 114\t\t\trequire(\\n            IERC20(t...\n      SWAP1 \t\t\trequire(\\n            IERC20(t...\n      PUSH [tag] 85\t\t\trequire(\\n            IERC20(t...\n      JUMP \t\t\trequire(\\n            IERC20(t...\n    tag 114\t\t\trequire(\\n            IERC20(t...\n      JUMPDEST \t\t\trequire(\\n            IERC20(t...\n      PUSH 40\t\t\trequire(\\n            IERC20(t...\n      MLOAD \t\t\trequire(\\n            IERC20(t...\n      DUP1 \t\t\trequire(\\n            IERC20(t...\n      SWAP2 \t\t\trequire(\\n            IERC20(t...\n      SUB \t\t\trequire(\\n            IERC20(t...\n      SWAP1 \t\t\trequire(\\n            IERC20(t...\n      REVERT \t\t\trequire(\\n            IERC20(t...\n    tag 113\t\t\trequire(\\n            IERC20(t...\n      JUMPDEST \t\t\trequire(\\n            IERC20(t...\n      DUP1 \t\t\tamount\n      PUSH 5\t\t\ttotalDeposited\n      PUSH 0\t\t\ttotalDeposited\n      DUP3 \t\t\ttotalDeposited -= amount\n      DUP3 \t\t\ttotalDeposited -= amount\n      SLOAD \t\t\ttotalDeposited -= amount\n      PUSH [tag] 115\t\t\ttotalDeposited -= amount\n      SWAP2 \t\t\ttotalDeposited -= amount\n      SWAP1 \t\t\ttotalDeposited -= amount\n      PUSH [tag] 75\t\t\ttotalDeposited -= amount\n      JUMP \t\t\ttotalDeposited -= amount\n    tag 115\t\t\ttotalDeposited -= amount\n      JUMPDEST \t\t\ttotalDeposited -= amount\n      SWAP3 \t\t\ttotalDeposited -= amount\n      POP \t\t\ttotalDeposited -= amount\n      POP \t\t\ttotalDeposited -= amount\n      DUP2 \t\t\ttotalDeposited -= amount\n      SWAP1 \t\t\ttotalDeposited -= amount\n      SSTORE \t\t\ttotalDeposited -= amount\n      POP \t\t\ttotalDeposited -= amount\n      CALLER \t\t\tmsg.sender\n      PUSH FFFFFFFFFFFFFFFFFFFFFFFFFFFFFFFFFFFFFFFF\t\t\tSwapped(msg.sender, amount, am...\n      AND \t\t\tSwapped(msg.sender, amount, am...\n      PUSH 3A9A9F34F5831E9C8ECB66AB3AA308B2FF31EACA434615F6C9CADC656A9AF71C\t\t\tSwapped(msg.sender, amount, am...\n      DUP3 \t\t\tamount\n      DUP4 \t\t\tamount\n      PUSH 40\t\t\tSwapped(msg.sender, amount, am...\n      MLOAD \t\t\tSwapped(msg.sender, amount, am...\n      PUSH [tag] 116\t\t\tSwapped(msg.sender, amount, am...\n      SWAP3 \t\t\tSwapped(msg.sender, amount, am...\n      SWAP2 \t\t\tSwapped(msg.sender, amount, am...\n      SWAP1 \t\t\tSwapped(msg.sender, amount, am...\n      PUSH [tag] 117\t\t\tSwapped(msg.sender, amount, am...\n      JUMP \t\t\tSwapped(msg.sender, amount, am...\n    tag 116\t\t\tSwapped(msg.sender, amount, am...\n      JUMPDEST \t\t\tSwapped(msg.sender, amount, am...\n      PUSH 40\t\t\tSwapped(msg.sender, amount, am...\n      MLOAD \t\t\tSwapped(msg.sender, amount, am...\n      DUP1 \t\t\tSwapped(msg.sender, amount, am...\n      SWAP2 \t\t\tSwapped(msg.sender, amount, am...\n      SUB \t\t\tSwapped(msg.sender, amount, am...\n      SWAP1 \t\t\tSwapped(msg.sender, amount, am...\n      LOG2 \t\t\tSwapped(msg.sender, amount, am...\n      POP \t\t\tfunction swap(uint256 amount) ...\n      JUMP \t\t\tfunction swap(uint256 amount) ...\n    tag 55\t\t\tfunction stake(uint256 amount)...\n      JUMPDEST \t\t\tfunction stake(uint256 amount)...\n      PUSH 0\t\t\t0\n      DUP2 \t\t\tamount\n      GT \t\t\tamount > 0\n      PUSH [tag] 119\t\t\trequire(amount > 0, \"Must stak...\n      JUMPI \t\t\trequire(amount > 0, \"Must stak...\n      PUSH 40\t\t\trequire(amount > 0, \"Must stak...\n      MLOAD \t\t\trequire(amount > 0, \"Must stak...\n      PUSH 8C379A000000000000000000000000000000000000000000000000000000000\t\t\trequire(amount > 0, \"Must stak...\n      DUP2 \t\t\trequire(amount > 0, \"Must stak...\n      MSTORE \t\t\trequire(amount > 0, \"Must stak...\n      PUSH 4\t\t\trequire(amount > 0, \"Must stak...\n      ADD \t\t\trequire(amount > 0, \"Must stak...\n      PUSH [tag] 120\t\t\trequire(amount > 0, \"Must stak...\n      SWAP1 \t\t\trequire(amount > 0, \"Must stak...\n      PUSH [tag] 121\t\t\trequire(amount > 0, \"Must stak...\n      JUMP \t\t\trequire(amount > 0, \"Must stak...\n    tag 120\t\t\trequire(amount > 0, \"Must stak...\n      JUMPDEST \t\t\trequire(amount > 0, \"Must stak...\n      PUSH 40\t\t\trequire(amount > 0, \"Must stak...\n      MLOAD \t\t\trequire(amount > 0, \"Must stak...\n      DUP1 \t\t\trequire(amount > 0, \"Must stak...\n      SWAP2 \t\t\trequire(amount > 0, \"Must stak...\n      SUB \t\t\trequire(amount > 0, \"Must stak...\n      SWAP1 \t\t\trequire(amount > 0, \"Must stak...\n      REVERT \t\t\trequire(amount > 0, \"Must stak...\n    tag 119\t\t\trequire(amount > 0, \"Must stak...\n      JUMPDEST \t\t\trequire(amount > 0, \"Must stak...\n      PUSH 1\t\t\ttokenB\n      PUSH 0\t\t\ttokenB\n      SWAP1 \t\t\ttokenB\n      SLOAD \t\t\ttokenB\n      SWAP1 \t\t\ttokenB\n      PUSH 100\t\t\ttokenB\n      EXP \t\t\ttokenB\n      SWAP1 \t\t\ttokenB\n      DIV \t\t\ttokenB\n      PUSH FFFFFFFFFFFFFFFFFFFFFFFFFFFFFFFFFFFFFFFF\t\t\ttokenB\n      AND \t\t\ttokenB\n      PUSH FFFFFFFFFFFFFFFFFFFFFFFFFFFFFFFFFFFFFFFF\t\t\tIERC20(tokenB).transferFrom\n      AND \t\t\tIERC20(tokenB).transferFrom\n      PUSH 23B872DD\t\t\tIERC20(tokenB).transferFrom\n      CALLER \t\t\tmsg.sender\n      ADDRESS \t\t\tthis\n      DUP5 \t\t\tamount\n      PUSH 40\t\t\tIERC20(tokenB).transferFrom(ms...\n      MLOAD \t\t\tIERC20(tokenB).transferFrom(ms...\n      DUP5 \t\t\tIERC20(tokenB).transferFrom(ms...\n      PUSH FFFFFFFF\t\t\tIERC20(tokenB).transferFrom(ms...\n      AND \t\t\tIERC20(tokenB).transferFrom(ms...\n      PUSH E0\t\t\tIERC20(tokenB).transferFrom(ms...\n      SHL \t\t\tIERC20(tokenB).transferFrom(ms...\n      DUP2 \t\t\tIERC20(tokenB).transferFrom(ms...\n      MSTORE \t\t\tIERC20(tokenB).transferFrom(ms...\n      PUSH 4\t\t\tIERC20(tokenB).transferFrom(ms...\n      ADD \t\t\tIERC20(tokenB).transferFrom(ms...\n      PUSH [tag] 122\t\t\tIERC20(tokenB).transferFrom(ms...\n      SWAP4 \t\t\tIERC20(tokenB).transferFrom(ms...\n      SWAP3 \t\t\tIERC20(tokenB).transferFrom(ms...\n      SWAP2 \t\t\tIERC20(tokenB).transferFrom(ms...\n      SWAP1 \t\t\tIERC20(tokenB).transferFrom(ms...\n      PUSH [tag] 102\t\t\tIERC20(tokenB).transferFrom(ms...\n      JUMP \t\t\tIERC20(tokenB).transferFrom(ms...\n    tag 122\t\t\tIERC20(tokenB).transferFrom(ms...\n      JUMPDEST \t\t\tIERC20(tokenB).transferFrom(ms...\n      PUSH 20\t\t\tIERC20(tokenB).transferFrom(ms...\n      PUSH 40\t\t\tIERC20(tokenB).transferFrom(ms...\n      MLOAD \t\t\tIERC20(tokenB).transferFrom(ms...\n      DUP1 \t\t\tIERC20(tokenB).transferFrom(ms...\n      DUP4 \t\t\tIERC20(tokenB).transferFrom(ms...\n      SUB \t\t\tIERC20(tokenB).transferFrom(ms...\n      DUP2 \t\t\tIERC20(tokenB).transferFrom(ms...\n      PUSH 0\t\t\tIERC20(tokenB).transferFrom(ms...\n      DUP8 \t\t\tIERC20(tokenB).transferFrom(ms...\n      GAS \t\t\tIERC20(tokenB).transferFrom(ms...\n      CALL \t\t\tIERC20(tokenB).transferFrom(ms...\n      ISZERO \t\t\tIERC20(tokenB).transferFrom(ms...\n      DUP1 \t\t\tIERC20(tokenB).transferFrom(ms...\n      ISZERO \t\t\tIERC20(tokenB).transferFrom(ms...\n      PUSH [tag] 124\t\t\tIERC20(tokenB).transferFrom(ms...\n      JUMPI \t\t\tIERC20(tokenB).transferFrom(ms...\n      RETURNDATASIZE \t\t\tIERC20(tokenB).transferFrom(ms...\n      PUSH 0\t\t\tIERC20(tokenB).transferFrom(ms...\n      PUSH 0\t\t\tIERC20(tokenB).transferFrom(ms...\n      RETURNDATACOPY \t\t\tIERC20(tokenB).transferFrom(ms...\n      RETURNDATASIZE \t\t\tIERC20(tokenB).transferFrom(ms...\n      PUSH 0\t\t\tIERC20(tokenB).transferFrom(ms...\n      REVERT \t\t\tIERC20(tokenB).transferFrom(ms...\n    tag 124\t\t\tIERC20(tokenB).transferFrom(ms...\n      JUMPDEST \t\t\tIERC20(tokenB).transferFrom(ms...\n      POP \t\t\tIERC20(tokenB).transferFrom(ms...\n      POP \t\t\tIERC20(tokenB).transferFrom(ms...\n      POP \t\t\tIERC20(tokenB).transferFrom(ms...\n      POP \t\t\tIERC20(tokenB).transferFrom(ms...\n      PUSH 40\t\t\tIERC20(tokenB).transferFrom(ms...\n      MLOAD \t\t\tIERC20(tokenB).transferFrom(ms...\n      RETURNDATASIZE \t\t\tIERC20(tokenB).transferFrom(ms...\n      PUSH 1F\t\t\tIERC20(tokenB).transferFrom(ms...\n      NOT \t\t\tIERC20(tokenB).transferFrom(ms...\n      PUSH 1F\t\t\tIERC20(tokenB).transferFrom(ms...\n      DUP3 \t\t\tIERC20(tokenB).transferFrom(ms...\n      ADD \t\t\tIERC20(tokenB).transferFrom(ms...\n      AND \t\t\tIERC20(tokenB).transferFrom(ms...\n      DUP3 \t\t\tIERC20(tokenB).transferFrom(ms...\n      ADD \t\t\tIERC20(tokenB).transferFrom(ms...\n      DUP1 \t\t\tIERC20(tokenB).transferFrom(ms...\n      PUSH 40\t\t\tIERC20(tokenB).transferFrom(ms...\n      MSTORE \t\t\tIERC20(tokenB).transferFrom(ms...\n      POP \t\t\tIERC20(tokenB).transferFrom(ms...\n      DUP2 \t\t\tIERC20(tokenB).transferFrom(ms...\n      ADD \t\t\tIERC20(tokenB).transferFrom(ms...\n      SWAP1 \t\t\tIERC20(tokenB).transferFrom(ms...\n      PUSH [tag] 125\t\t\tIERC20(tokenB).transferFrom(ms...\n      SWAP2 \t\t\tIERC20(tokenB).transferFrom(ms...\n      SWAP1 \t\t\tIERC20(tokenB).transferFrom(ms...\n      PUSH [tag] 82\t\t\tIERC20(tokenB).transferFrom(ms...\n      JUMP \t\t\tIERC20(tokenB).transferFrom(ms...\n    tag 125\t\t\tIERC20(tokenB).transferFrom(ms...\n      JUMPDEST \t\t\tIERC20(tokenB).transferFrom(ms...\n      PUSH [tag] 126\t\t\trequire(\\n            IERC20(t...\n      JUMPI \t\t\trequire(\\n            IERC20(t...\n      PUSH 40\t\t\trequire(\\n            IERC20(t...\n      MLOAD \t\t\trequire(\\n            IERC20(t...\n      PUSH 8C379A000000000000000000000000000000000000000000000000000000000\t\t\trequire(\\n            IERC20(t...\n      DUP2 \t\t\trequire(\\n            IERC20(t...\n      MSTORE \t\t\trequire(\\n            IERC20(t...\n      PUSH 4\t\t\trequire(\\n            IERC20(t...\n      ADD \t\t\trequire(\\n            IERC20(t...\n      PUSH [tag] 127\t\t\trequire(\\n            IERC20(t...\n      SWAP1 \t\t\trequire(\\n            IERC20(t...\n      PUSH [tag] 85\t\t\trequire(\\n            IERC20(t...\n      JUMP \t\t\trequire(\\n            IERC20(t...\n    tag 127\t\t\trequire(\\n            IERC20(t...\n      JUMPDEST \t\t\trequire(\\n            IERC20(t...\n      PUSH 40\t\t\trequire(\\n            IERC20(t...\n      MLOAD \t\t\trequire(\\n            IERC20(t...\n      DUP1 \t\t\trequire(\\n            IERC20(t...\n      SWAP2 \t\t\trequire(\\n            IERC20(t...\n      SUB \t\t\trequire(\\n            IERC20(t...\n      SWAP1 \t\t\trequire(\\n            IERC20(t...\n      REVERT \t\t\trequire(\\n            IERC20(t...\n    tag 126\t\t\trequire(\\n            IERC20(t...\n      JUMPDEST \t\t\trequire(\\n            IERC20(t...\n      DUP1 \t\t\tamount\n      PUSH 2\t\t\tstakedBalance\n      PUSH 0\t\t\tstakedBalance[msg.sender]\n      CALLER \t\t\tmsg.sender\n      PUSH FFFFFFFFFFFFFFFFFFFFFFFFFFFFFFFFFFFFFFFF\t\t\tstakedBalance[msg.sender]\n      AND \t\t\tstakedBalance[msg.sender]\n      PUSH FFFFFFFFFFFFFFFFFFFFFFFFFFFFFFFFFFFFFFFF\t\t\tstakedBalance[msg.sender]\n      AND \t\t\tstakedBalance[msg.sender]\n      DUP2 \t\t\tstakedBalance[msg.sender]\n      MSTORE \t\t\tstakedBalance[msg.sender]\n      PUSH 20\t\t\tstakedBalance[msg.sender]\n      ADD \t\t\tstakedBalance[msg.sender]\n      SWAP1 \t\t\tstakedBalance[msg.sender]\n      DUP2 \t\t\tstakedBalance[msg.sender]\n      MSTORE \t\t\tstakedBalance[msg.sender]\n      PUSH 20\t\t\tstakedBalance[msg.sender]\n      ADD \t\t\tstakedBalance[msg.sender]\n      PUSH 0\t\t\tstakedBalance[msg.sender]\n      KECCAK256 \t\t\tstakedBalance[msg.sender]\n      PUSH 0\t\t\tstakedBalance[msg.sender]\n      DUP3 \t\t\tstakedBalance[msg.sender] += a...\n      DUP3 \t\t\tstakedBalance[msg.sender] += a...\n      SLOAD \t\t\tstakedBalance[msg.sender] += a...\n      PUSH [tag] 128\t\t\tstakedBalance[msg.sender] += a...\n      SWAP2 \t\t\tstakedBalance[msg.sender] += a...\n      SWAP1 \t\t\tstakedBalance[msg.sender] += a...\n      PUSH [tag] 129\t\t\tstakedBalance[msg.sender] += a...\n      JUMP \t\t\tstakedBalance[msg.sender] += a...\n    tag 128\t\t\tstakedBalance[msg.sender] += a...\n      JUMPDEST \t\t\tstakedBalance[msg.sender] += a...\n      SWAP3 \t\t\tstakedBalance[msg.sender] += a...\n      POP \t\t\tstakedBalance[msg.sender] += a...\n      POP \t\t\tstakedBalance[msg.sender] += a...\n      DUP2 \t\t\tstakedBalance[msg.sender] += a...\n      SWAP1 \t\t\tstakedBalance[msg.sender] += a...\n      SSTORE \t\t\tstakedBalance[msg.sender] += a...\n      POP \t\t\tstakedBalance[msg.sender] += a...\n      DUP1 \t\t\tamount\n      PUSH 4\t\t\ttotalStaked\n      PUSH 0\t\t\ttotalStaked\n      DUP3 \t\t\ttotalStaked += amount\n      DUP3 \t\t\ttotalStaked += amount\n      SLOAD \t\t\ttotalStaked += amount\n      PUSH [tag] 130\t\t\ttotalStaked += amount\n      SWAP2 \t\t\ttotalStaked += amount\n      SWAP1 \t\t\ttotalStaked += amount\n      PUSH [tag] 129\t\t\ttotalStaked += amount\n      JUMP \t\t\ttotalStaked += amount\n    tag 130\t\t\ttotalStaked += amount\n      JUMPDEST \t\t\ttotalStaked += amount\n      SWAP3 \t\t\ttotalStaked += amount\n      POP \t\t\ttotalStaked += amount\n      POP \t\t\ttotalStaked += amount\n      DUP2 \t\t\ttotalStaked += amount\n      SWAP1 \t\t\ttotalStaked += amount\n      SSTORE \t\t\ttotalStaked += amount\n      POP \t\t\ttotalStaked += amount\n      CALLER \t\t\tmsg.sender\n      PUSH FFFFFFFFFFFFFFFFFFFFFFFFFFFFFFFFFFFFFFFF\t\t\tStaked(msg.sender, amount)\n      AND \t\t\tStaked(msg.sender, amount)\n      PUSH 9E71BC8EEA02A63969F509818F2DAFB9254532904319F9DBDA79B67BD34A5F3D\t\t\tStaked(msg.sender, amount)\n      DUP3 \t\t\tamount\n      PUSH 40\t\t\tStaked(msg.sender, amount)\n      MLOAD \t\t\tStaked(msg.sender, amount)\n      PUSH [tag] 131\t\t\tStaked(msg.sender, amount)\n      SWAP2 \t\t\tStaked(msg.sender, amount)\n      SWAP1 \t\t\tStaked(msg.sender, amount)\n      PUSH [tag] 27\t\t\tStaked(msg.sender, amount)\n      JUMP \t\t\tStaked(msg.sender, amount)\n    tag 131\t\t\tStaked(msg.sender, amount)\n      JUMPDEST \t\t\tStaked(msg.sender, amount)\n      PUSH 40\t\t\tStaked(msg.sender, amount)\n      MLOAD \t\t\tStaked(msg.sender, amount)\n      DUP1 \t\t\tStaked(msg.sender, amount)\n      SWAP2 \t\t\tStaked(msg.sender, amount)\n      SUB \t\t\tStaked(msg.sender, amount)\n      SWAP1 \t\t\tStaked(msg.sender, amount)\n      LOG2 \t\t\tStaked(msg.sender, amount)\n      POP \t\t\tfunction stake(uint256 amount)...\n      JUMP \t\t\tfunction stake(uint256 amount)...\n    tag 58\t\t\tfunction deposit(uint256 amoun...\n      JUMPDEST \t\t\tfunction deposit(uint256 amoun...\n      PUSH 0\t\t\t0\n      DUP2 \t\t\tamount\n      GT \t\t\tamount > 0\n      PUSH [tag] 133\t\t\trequire(amount > 0, \"Must depo...\n      JUMPI \t\t\trequire(amount > 0, \"Must depo...\n      PUSH 40\t\t\trequire(amount > 0, \"Must depo...\n      MLOAD \t\t\trequire(amount > 0, \"Must depo...\n      PUSH 8C379A000000000000000000000000000000000000000000000000000000000\t\t\trequire(amount > 0, \"Must depo...\n      DUP2 \t\t\trequire(amount > 0, \"Must depo...\n      MSTORE \t\t\trequire(amount > 0, \"Must depo...\n      PUSH 4\t\t\trequire(amount > 0, \"Must depo...\n      ADD \t\t\trequire(amount > 0, \"Must depo...\n      PUSH [tag] 134\t\t\trequire(amount > 0, \"Must depo...\n      SWAP1 \t\t\trequire(amount > 0, \"Must depo...\n      PUSH [tag] 135\t\t\trequire(amount > 0, \"Must depo...\n      JUMP \t\t\trequire(amount > 0, \"Must depo...\n    tag 134\t\t\trequire(amount > 0, \"Must depo...\n      JUMPDEST \t\t\trequire(amount > 0, \"Must depo...\n      PUSH 40\t\t\trequire(amount > 0, \"Must depo...\n      MLOAD \t\t\trequire(amount > 0, \"Must depo...\n      DUP1 \t\t\trequire(amount > 0, \"Must depo...\n      SWAP2 \t\t\trequire(amount > 0, \"Must depo...\n      SUB \t\t\trequire(amount > 0, \"Must depo...\n      SWAP1 \t\t\trequire(amount > 0, \"Must depo...\n      REVERT \t\t\trequire(amount > 0, \"Must depo...\n    tag 133\t\t\trequire(amount > 0, \"Must depo...\n      JUMPDEST \t\t\trequire(amount > 0, \"Must depo...\n      PUSH 1\t\t\ttokenB\n      PUSH 0\t\t\ttokenB\n      SWAP1 \t\t\ttokenB\n      SLOAD \t\t\ttokenB\n      SWAP1 \t\t\ttokenB\n      PUSH 100\t\t\ttokenB\n      EXP \t\t\ttokenB\n      SWAP1 \t\t\ttokenB\n      DIV \t\t\ttokenB\n      PUSH FFFFFFFFFFFFFFFFFFFFFFFFFFFFFFFFFFFFFFFF\t\t\ttokenB\n      AND \t\t\ttokenB\n      PUSH FFFFFFFFFFFFFFFFFFFFFFFFFFFFFFFFFFFFFFFF\t\t\tIERC20(tokenB).transferFrom\n      AND \t\t\tIERC20(tokenB).transferFrom\n      PUSH 23B872DD\t\t\tIERC20(tokenB).transferFrom\n      CALLER \t\t\tmsg.sender\n      ADDRESS \t\t\tthis\n      DUP5 \t\t\tamount\n      PUSH 40\t\t\tIERC20(tokenB).transferFrom(ms...\n      MLOAD \t\t\tIERC20(tokenB).transferFrom(ms...\n      DUP5 \t\t\tIERC20(tokenB).transferFrom(ms...\n      PUSH FFFFFFFF\t\t\tIERC20(tokenB).transferFrom(ms...\n      AND \t\t\tIERC20(tokenB).transferFrom(ms...\n      PUSH E0\t\t\tIERC20(tokenB).transferFrom(ms...\n      SHL \t\t\tIERC20(tokenB).transferFrom(ms...\n      DUP2 \t\t\tIERC20(tokenB).transferFrom(ms...\n      MSTORE \t\t\tIERC20(tokenB).transferFrom(ms...\n      PUSH 4\t\t\tIERC20(tokenB).transferFrom(ms...\n      ADD \t\t\tIERC20(tokenB).transferFrom(ms...\n      PUSH [tag] 136\t\t\tIERC20(tokenB).transferFrom(ms...\n      SWAP4 \t\t\tIERC20(tokenB).transferFrom(ms...\n      SWAP3 \t\t\tIERC20(tokenB).transferFrom(ms...\n      SWAP2 \t\t\tIERC20(tokenB).transferFrom(ms...\n      SWAP1 \t\t\tIERC20(tokenB).transferFrom(ms...\n      PUSH [tag] 102\t\t\tIERC20(tokenB).transferFrom(ms...\n      JUMP \t\t\tIERC20(tokenB).transferFrom(ms...\n    tag 136\t\t\tIERC20(tokenB).transferFrom(ms...\n      JUMPDEST \t\t\tIERC20(tokenB).transferFrom(ms...\n      PUSH 20\t\t\tIERC20(tokenB).transferFrom(ms...\n      PUSH 40\t\t\tIERC20(tokenB).transferFrom(ms...\n      MLOAD \t\t\tIERC20(tokenB).transferFrom(ms...\n      DUP1 \t\t\tIERC20(tokenB).transferFrom(ms...\n      DUP4 \t\t\tIERC20(tokenB).transferFrom(ms...\n      SUB \t\t\tIERC20(tokenB).transferFrom(ms...\n      DUP2 \t\t\tIERC20(tokenB).transferFrom(ms...\n      PUSH 0\t\t\tIERC20(tokenB).transferFrom(ms...\n      DUP8 \t\t\tIERC20(tokenB).transferFrom(ms...\n      GAS \t\t\tIERC20(tokenB).transferFrom(ms...\n      CALL \t\t\tIERC20(tokenB).transferFrom(ms...\n      ISZERO \t\t\tIERC20(tokenB).transferFrom(ms...\n      DUP1 \t\t\tIERC20(tokenB).transferFrom(ms...\n      ISZERO \t\t\tIERC20(tokenB).transferFrom(ms...\n      PUSH [tag] 138\t\t\tIERC20(tokenB).transferFrom(ms...\n      JUMPI \t\t\tIERC20(tokenB).transferFrom(ms...\n      RETURNDATASIZE \t\t\tIERC20(tokenB).transferFrom(ms...\n      PUSH 0\t\t\tIERC20(tokenB).transferFrom(ms...\n      PUSH 0\t\t\tIERC20(tokenB).transferFrom(ms...\n      RETURNDATACOPY \t\t\tIERC20(tokenB).transferFrom(ms...\n      RETURNDATASIZE \t\t\tIERC20(tokenB).transferFrom(ms...\n      PUSH 0\t\t\tIERC20(tokenB).transferFrom(ms...\n      REVERT \t\t\tIERC20(tokenB).transferFrom(ms...\n    tag 138\t\t\tIERC20(tokenB).transferFrom(ms...\n      JUMPDEST \t\t\tIERC20(tokenB).transferFrom(ms...\n      POP \t\t\tIERC20(tokenB).transferFrom(ms...\n      POP \t\t\tIERC20(tokenB).transferFrom(ms...\n      POP \t\t\tIERC20(tokenB).transferFrom(ms...\n      POP \t\t\tIERC20(tokenB).transferFrom(ms...\n      PUSH 40\t\t\tIERC20(tokenB).transferFrom(ms...\n      MLOAD \t\t\tIERC20(tokenB).transferFrom(ms...\n      RETURNDATASIZE \t\t\tIERC20(tokenB).transferFrom(ms...\n      PUSH 1F\t\t\tIERC20(tokenB).transferFrom(ms...\n      NOT \t\t\tIERC20(tokenB).transferFrom(ms...\n      PUSH 1F\t\t\tIERC20(tokenB).transferFrom(ms...\n      DUP3 \t\t\tIERC20(tokenB).transferFrom(ms...\n      ADD \t\t\tIERC20(tokenB).transferFrom(ms...\n      AND \t\t\tIERC20(tokenB).transferFrom(ms...\n      DUP3 \t\t\tIERC20(tokenB).transferFrom(ms...\n      ADD \t\t\tIERC20(tokenB).transferFrom(ms...\n      DUP1 \t\t\tIERC20(tokenB).transferFrom(ms...\n      PUSH 40\t\t\tIERC20(tokenB).transferFrom(ms...\n      MSTORE \t\t\tIERC20(tokenB).transferFrom(ms...\n      POP \t\t\tIERC20(tokenB).transferFrom(ms...\n      DUP2 \t\t\tIERC20(tokenB).transferFrom(ms...\n      ADD \t\t\tIERC20(tokenB).transferFrom(ms...\n      SWAP1 \t\t\tIERC20(tokenB).transferFrom(ms...\n      PUSH [tag] 139\t\t\tIERC20(tokenB).transferFrom(ms...\n      SWAP2 \t\t\tIERC20(tokenB).transferFrom(ms...\n      SWAP1 \t\t\tIERC20(tokenB).transferFrom(ms...\n      PUSH [tag] 82\t\t\tIERC20(tokenB).transferFrom(ms...\n      JUMP \t\t\tIERC20(tokenB).transferFrom(ms...\n    tag 139\t\t\tIERC20(tokenB).transferFrom(ms...\n      JUMPDEST \t\t\tIERC20(tokenB).transferFrom(ms...\n      PUSH [tag] 140\t\t\trequire(\\n            IERC20(t...\n      JUMPI \t\t\trequire(\\n            IERC20(t...\n      PUSH 40\t\t\trequire(\\n            IERC20(t...\n      MLOAD \t\t\trequire(\\n            IERC20(t...\n      PUSH 8C379A000000000000000000000000000000000000000000000000000000000\t\t\trequire(\\n            IERC20(t...\n      DUP2 \t\t\trequire(\\n            IERC20(t...\n      MSTORE \t\t\trequire(\\n            IERC20(t...\n      PUSH 4\t\t\trequire(\\n            IERC20(t...\n      ADD \t\t\trequire(\\n            IERC20(t...\n      PUSH [tag] 141\t\t\trequire(\\n            IERC20(t...\n      SWAP1 \t\t\trequire(\\n            IERC20(t...\n      PUSH [tag] 85\t\t\trequire(\\n            IERC20(t...\n      JUMP \t\t\trequire(\\n            IERC20(t...\n    tag 141\t\t\trequire(\\n            IERC20(t...\n      JUMPDEST \t\t\trequire(\\n            IERC20(t...\n      PUSH 40\t\t\trequire(\\n            IERC20(t...\n      MLOAD \t\t\trequire(\\n            IERC20(t...\n      DUP1 \t\t\trequire(\\n            IERC20(t...\n      SWAP2 \t\t\trequire(\\n            IERC20(t...\n      SUB \t\t\trequire(\\n            IERC20(t...\n      SWAP1 \t\t\trequire(\\n            IERC20(t...\n      REVERT \t\t\trequire(\\n            IERC20(t...\n    tag 140\t\t\trequire(\\n            IERC20(t...\n      JUMPDEST \t\t\trequire(\\n            IERC20(t...\n      DUP1 \t\t\tamount\n      PUSH 3\t\t\tdepositedBalance\n      PUSH 0\t\t\tdepositedBalance[msg.sender]\n      CALLER \t\t\tmsg.sender\n      PUSH FFFFFFFFFFFFFFFFFFFFFFFFFFFFFFFFFFFFFFFF\t\t\tdepositedBalance[msg.sender]\n      AND \t\t\tdepositedBalance[msg.sender]\n      PUSH FFFFFFFFFFFFFFFFFFFFFFFFFFFFFFFFFFFFFFFF\t\t\tdepositedBalance[msg.sender]\n      AND \t\t\tdepositedBalance[msg.sender]\n      DUP2 \t\t\tdepositedBalance[msg.sender]\n      MSTORE \t\t\tdepositedBalance[msg.sender]\n      PUSH 20\t\t\tdepositedBalance[msg.sender]\n      ADD \t\t\tdepositedBalance[msg.sender]\n      SWAP1 \t\t\tdepositedBalance[msg.sender]\n      DUP2 \t\t\tdepositedBalance[msg.sender]\n      MSTORE \t\t\tdepositedBalance[msg.sender]\n      PUSH 20\t\t\tdepositedBalance[msg.sender]\n      ADD \t\t\tdepositedBalance[msg.sender]\n      PUSH 0\t\t\tdepositedBalance[msg.sender]\n      KECCAK256 \t\t\tdepositedBalance[msg.sender]\n      PUSH 0\t\t\tdepositedBalance[msg.sender]\n      DUP3 \t\t\tdepositedBalance[msg.sender] +...\n      DUP3 \t\t\tdepositedBalance[msg.sender] +...\n      SLOAD \t\t\tdepositedBalance[msg.sender] +...\n      PUSH [tag] 142\t\t\tdepositedBalance[msg.sender] +...\n      SWAP2 \t\t\tdepositedBalance[msg.sender] +...\n      SWAP1 \t\t\tdepositedBalance[msg.sender] +...\n      PUSH [tag] 129\t\t\tdepositedBalance[msg.sender] +...\n      JUMP \t\t\tdepositedBalance[msg.sender] +...\n    tag 142\t\t\tdepositedBalance[msg.sender] +...\n      JUMPDEST \t\t\tdepositedBalance[msg.sender] +...\n      SWAP3 \t\t\tdepositedBalance[msg.sender] +...\n      POP \t\t\tdepositedBalance[msg.sender] +...\n      POP \t\t\tdepositedBalance[msg.sender] +...\n      DUP2 \t\t\tdepositedBalance[msg.sender] +...\n      SWAP1 \t\t\tdepositedBalance[msg.sender] +...\n      SSTORE \t\t\tdepositedBalance[msg.sender] +...\n      POP \t\t\tdepositedBalance[msg.sender] +...\n      DUP1 \t\t\tamount\n      PUSH 5\t\t\ttotalDeposited\n      PUSH 0\t\t\ttotalDeposited\n      DUP3 \t\t\ttotalDeposited += amount\n      DUP3 \t\t\ttotalDeposited += amount\n      SLOAD \t\t\ttotalDeposited += amount\n      PUSH [tag] 143\t\t\ttotalDeposited += amount\n      SWAP2 \t\t\ttotalDeposited += amount\n      SWAP1 \t\t\ttotalDeposited += amount\n      PUSH [tag] 129\t\t\ttotalDeposited += amount\n      JUMP \t\t\ttotalDeposited += amount\n    tag 143\t\t\ttotalDeposited += amount\n      JUMPDEST \t\t\ttotalDeposited += amount\n      SWAP3 \t\t\ttotalDeposited += amount\n      POP \t\t\ttotalDeposited += amount\n      POP \t\t\ttotalDeposited += amount\n      DUP2 \t\t\ttotalDeposited += amount\n      SWAP1 \t\t\ttotalDeposited += amount\n      SSTORE \t\t\ttotalDeposited += amount\n      POP \t\t\ttotalDeposited += amount\n      CALLER \t\t\tmsg.sender\n      PUSH FFFFFFFFFFFFFFFFFFFFFFFFFFFFFFFFFFFFFFFF\t\t\tDeposited(msg.sender, amount)\n      AND \t\t\tDeposited(msg.sender, amount)\n      PUSH 2DA466A7B24304F47E87FA2E1E5A81B9831CE54FEC19055CE277CA2F39BA42C4\t\t\tDeposited(msg.sender, amount)\n      DUP3 \t\t\tamount\n      PUSH 40\t\t\tDeposited(msg.sender, amount)\n      MLOAD \t\t\tDeposited(msg.sender, amount)\n      PUSH [tag] 144\t\t\tDeposited(msg.sender, amount)\n      SWAP2 \t\t\tDeposited(msg.sender, amount)\n      SWAP1 \t\t\tDeposited(msg.sender, amount)\n      PUSH [tag] 27\t\t\tDeposited(msg.sender, amount)\n      JUMP \t\t\tDeposited(msg.sender, amount)\n    tag 144\t\t\tDeposited(msg.sender, amount)\n      JUMPDEST \t\t\tDeposited(msg.sender, amount)\n      PUSH 40\t\t\tDeposited(msg.sender, amount)\n      MLOAD \t\t\tDeposited(msg.sender, amount)\n      DUP1 \t\t\tDeposited(msg.sender, amount)\n      SWAP2 \t\t\tDeposited(msg.sender, amount)\n      SUB \t\t\tDeposited(msg.sender, amount)\n      SWAP1 \t\t\tDeposited(msg.sender, amount)\n      LOG2 \t\t\tDeposited(msg.sender, amount)\n      POP \t\t\tfunction deposit(uint256 amoun...\n      JUMP \t\t\tfunction deposit(uint256 amoun...\n    tag 61\t\t\tmapping(address => uint256) pu...\n      JUMPDEST \t\t\tmapping(address => uint256) pu...\n      PUSH 3\t\t\tmapping(address => uint256) pu...\n      PUSH 20\t\t\tmapping(address => uint256) pu...\n      MSTORE \t\t\tmapping(address => uint256) pu...\n      DUP1 \t\t\tmapping(address => uint256) pu...\n      PUSH 0\t\t\tmapping(address => uint256) pu...\n      MSTORE \t\t\tmapping(address => uint256) pu...\n      PUSH 40\t\t\tmapping(address => uint256) pu...\n      PUSH 0\t\t\tmapping(address => uint256) pu...\n      KECCAK256 \t\t\tmapping(address => uint256) pu...\n      PUSH 0\t\t\tmapping(address => uint256) pu...\n      SWAP2 \t\t\tmapping(address => uint256) pu...\n      POP \t\t\tmapping(address => uint256) pu...\n      SWAP1 \t\t\tmapping(address => uint256) pu...\n      POP \t\t\tmapping(address => uint256) pu...\n      SLOAD \t\t\tmapping(address => uint256) pu...\n      DUP2 \t\t\tmapping(address => uint256) pu...\n      JUMP \t\t\tmapping(address => uint256) pu...\n    tag 64\t\t\tuint256 public totalDeposited\n      JUMPDEST \t\t\tuint256 public totalDeposited\n      PUSH 5\t\t\tuint256 public totalDeposited\n      SLOAD \t\t\tuint256 public totalDeposited\n      DUP2 \t\t\tuint256 public totalDeposited\n      JUMP \t\t\tuint256 public totalDeposited\n    tag 145\t\t\t-License-Identifier: MIT\\nprag...\n      JUMPDEST \t\t\t-License-Identifier: MIT\\nprag...\n      PUSH 0\t\t\tity ^0.\n      PUSH FFFFFFFFFFFFFFFFFFFFFFFFFFFFFFFFFFFFFFFF\t\t\tction transferFrom(address sen...\n      DUP3 \t\t\t    f\n      AND \t\t\t0 {\\n    function transferFrom...\n      SWAP1 \t\t\trface IERC20 {\\n    function t...\n      POP \t\t\trface IERC20 {\\n    function t...\n      SWAP2 \t\t\t-License-Identifier: MIT\\nprag...\n      SWAP1 \t\t\t-License-Identifier: MIT\\nprag...\n      POP \t\t\t-License-Identifier: MIT\\nprag...\n      JUMP \t\t\t-License-Identifier: MIT\\nprag...\n    tag 146\t\t\tint256 amount) external return...\n      JUMPDEST \t\t\tint256 amount) external return...\n      PUSH 0\t\t\t);\\n    \n      PUSH [tag] 182\t\t\tess recipient, uint256 a\n      DUP3 \t\t\tt256 \n      PUSH [tag] 145\t\t\tess recipient, uint256 a\n      JUMP \t\t\tess recipient, uint256 a\n    tag 182\t\t\tess recipient, uint256 a\n      JUMPDEST \t\t\tess recipient, uint256 a\n      SWAP1 \t\t\tansfer(address recipient, uint...\n      POP \t\t\tansfer(address recipient, uint...\n      SWAP2 \t\t\tint256 amount) external return...\n      SWAP1 \t\t\tint256 amount) external return...\n      POP \t\t\tint256 amount) external return...\n      JUMP \t\t\tint256 amount) external return...\n    tag 147\t\t\tnal returns (bool);\\n    funct...\n      JUMPDEST \t\t\tnal returns (bool);\\n    funct...\n      PUSH [tag] 184\t\t\t256);\\n}\\n\\n/**\\n * @title S\n      DUP2 \t\t\title \n      PUSH [tag] 146\t\t\t256);\\n}\\n\\n/**\\n * @title S\n      JUMP \t\t\t256);\\n}\\n\\n/**\\n * @title S\n    tag 184\t\t\t256);\\n}\\n\\n/**\\n * @title S\n      JUMPDEST \t\t\t256);\\n}\\n\\n/**\\n * @title S\n      DUP3 \t\t\t(ui\n      MSTORE \t\t\teturns (uint256);\\n}\\n\\n/**\\n ...\n      POP \t\t\tnal returns (bool);\\n    funct...\n      POP \t\t\tnal returns (bool);\\n    funct...\n      JUMP \t\t\tnal returns (bool);\\n    funct...\n    tag 21\t\t\t * @dev A contract with tokenB...\n      JUMPDEST \t\t\t * @dev A contract with tokenB...\n      PUSH 0\t\t\tleSt\n      PUSH 20\t\t\t a\n      DUP3 \t\t\tdresses\\n \n      ADD \t\t\tn addresses\\n    ad\n      SWAP1 \t\t\t // Token addresses\\n    ad\n      POP \t\t\t // Token addresses\\n    ad\n      PUSH [tag] 186\t\t\tic tokenA;\\n    address public...\n      PUSH 0\t\t\ta\n      DUP4 \t\t\t to track\n      ADD \t\t\tping to track eac\n      DUP5 \t\t\t   // \n      PUSH [tag] 147\t\t\tic tokenA;\\n    address public...\n      JUMP \t\t\tic tokenA;\\n    address public...\n    tag 186\t\t\tic tokenA;\\n    address public...\n      JUMPDEST \t\t\tic tokenA;\\n    address public...\n      SWAP3 \t\t\t * @dev A contract with tokenB...\n      SWAP2 \t\t\t * @dev A contract with tokenB...\n      POP \t\t\t * @dev A contract with tokenB...\n      POP \t\t\t * @dev A contract with tokenB...\n      JUMP \t\t\t * @dev A contract with tokenB...\n    tag 149\t\t\t/ Mapping to track each user's...\n      JUMPDEST \t\t\t/ Mapping to track each user's...\n      PUSH 0\t\t\tp\n      PUSH 0\t\t\t6\n      REVERT \t\t\t uint256) pu\n    tag 151\t\t\tosited for swaps\\n    uint256 ...\n      JUMPDEST \t\t\tosited for swaps\\n    uint256 ...\n      PUSH [tag] 191\t\t\t  event Staked(address i\n      DUP2 \t\t\tress \n      PUSH [tag] 146\t\t\t  event Staked(address i\n      JUMP \t\t\t  event Staked(address i\n    tag 191\t\t\t  event Staked(address i\n      JUMPDEST \t\t\t  event Staked(address i\n      DUP2 \t\t\tents\\n\n      EQ \t\t\t Events\\n    event Staked(addr...\n      PUSH [tag] 192\t\t\t   \\n    // Events\\n    event ...\n      JUMPI \t\t\t   \\n    // Events\\n    event ...\n      PUSH 0\t\t\tn\n      PUSH 0\t\t\t \n      REVERT \t\t\td user, uint\n    tag 192\t\t\t   \\n    // Events\\n    event ...\n      JUMPDEST \t\t\t   \\n    // Events\\n    event ...\n      POP \t\t\tosited for swaps\\n    uint256 ...\n      JUMP \t\t\tosited for swaps\\n    uint256 ...\n    tag 152\t\t\t   event Withdrawn(address ind...\n      JUMPDEST \t\t\t   event Withdrawn(address ind...\n      PUSH 0\t\t\t56 am\n      DUP2 \t\t\ts inde\n      CALLDATALOAD \t\t\tosited(address index\n      SWAP1 \t\t\tevent Deposited(address index\n      POP \t\t\tevent Deposited(address index\n      PUSH [tag] 194\t\t\tuint256 amount);\\n    event Sw...\n      DUP2 \t\t\tSwapp\n      PUSH [tag] 151\t\t\tuint256 amount);\\n    event Sw...\n      JUMP \t\t\tuint256 amount);\\n    event Sw...\n    tag 194\t\t\tuint256 amount);\\n    event Sw...\n      JUMPDEST \t\t\tuint256 amount);\\n    event Sw...\n      SWAP3 \t\t\t   event Withdrawn(address ind...\n      SWAP2 \t\t\t   event Withdrawn(address ind...\n      POP \t\t\t   event Withdrawn(address ind...\n      POP \t\t\t   event Withdrawn(address ind...\n      JUMP \t\t\t   event Withdrawn(address ind...\n    tag 24\t\t\tdexed user, uint256 amountIn, ...\n      JUMPDEST \t\t\tdexed user, uint256 amountIn, ...\n      PUSH 0\t\t\t/**\\n  \n      PUSH 20\t\t\ts\\n\n      DUP3 \t\t\tken addre\n      DUP5 \t\t\tto set \n      SUB \t\t\ttor to set token addres\n      SLT \t\t\ttructor to set token addresses...\n      ISZERO \t\t\tonstructor to set token addres...\n      PUSH [tag] 196\t\t\tonstructor to set token addres...\n      JUMPI \t\t\tonstructor to set token addres...\n      PUSH [tag] 197\t\t\t * @param _tokenA Address of t...\n      PUSH [tag] 149\t\t\t * @param _tokenA Address of t...\n      JUMP \t\t\t * @param _tokenA Address of t...\n    tag 197\t\t\t * @param _tokenA Address of t...\n      JUMPDEST \t\t\t * @param _tokenA Address of t...\n    tag 196\t\t\tonstructor to set token addres...\n      JUMPDEST \t\t\tonstructor to set token addres...\n      PUSH 0\t\t\td\n      PUSH [tag] 198\t\t\t require(_tokenA != address(0)...\n      DUP5 \t\t\tnA addr\n      DUP3 \t\t\talid t\n      DUP6 \t\t\tss(0), \"I\n      ADD \t\t\tddress(0), \"Invalid to\n      PUSH [tag] 152\t\t\t require(_tokenA != address(0)...\n      JUMP \t\t\t require(_tokenA != address(0)...\n    tag 198\t\t\t require(_tokenA != address(0)...\n      JUMPDEST \t\t\t require(_tokenA != address(0)...\n      SWAP2 \t\t\t {\\n        require(_tokenA !=...\n      POP \t\t\t {\\n        require(_tokenA !=...\n      POP \t\t\tonstructor(address _tokenA, ad...\n      SWAP3 \t\t\tdexed user, uint256 amountIn, ...\n      SWAP2 \t\t\tdexed user, uint256 amountIn, ...\n      POP \t\t\tdexed user, uint256 amountIn, ...\n      POP \t\t\tdexed user, uint256 amountIn, ...\n      JUMP \t\t\tdexed user, uint256 amountIn, ...\n    tag 153\t\t\ttokenB != address(0), \"Invalid...\n      JUMPDEST \t\t\ttokenB != address(0), \"Invalid...\n      PUSH 0\t\t\t addres\n      DUP2 \t\t\t_toke\n      SWAP1 \t\t\t  tokenA = _toke\n      POP \t\t\t  tokenA = _toke\n      SWAP2 \t\t\ttokenB != address(0), \"Invalid...\n      SWAP1 \t\t\ttokenB != address(0), \"Invalid...\n      POP \t\t\ttokenB != address(0), \"Invalid...\n      JUMP \t\t\ttokenB != address(0), \"Invalid...\n    tag 154\t\t\ttokenB = _tokenB;\\n    }\\n    ...\n      JUMPDEST \t\t\ttokenB = _tokenB;\\n    }\\n    ...\n      PUSH [tag] 201\t\t\tovide swap liquidity\\n   \n      DUP2 \t\t\tty\\n  \n      PUSH [tag] 153\t\t\tovide swap liquidity\\n   \n      JUMP \t\t\tovide swap liquidity\\n   \n    tag 201\t\t\tovide swap liquidity\\n   \n      JUMPDEST \t\t\tovide swap liquidity\\n   \n      DUP3 \t\t\tto \n      MSTORE \t\t\tntract to provide swap liquidi...\n      POP \t\t\ttokenB = _tokenB;\\n    }\\n    ...\n      POP \t\t\ttokenB = _tokenB;\\n    }\\n    ...\n      JUMP \t\t\ttokenB = _tokenB;\\n    }\\n    ...\n    tag 27\t\t\tount The amount of tokenB to d...\n      JUMPDEST \t\t\tount The amount of tokenB to d...\n      PUSH 0\t\t\t    \n      PUSH 20\t\t\tsi\n      DUP3 \t\t\t \"Must de\n      ADD \t\t\t> 0, \"Must deposit\n      SWAP1 \t\t\t(amount > 0, \"Must deposit\n      POP \t\t\t(amount > 0, \"Must deposit\n      PUSH [tag] 203\t\t\t 0\");\\n        \\n        // Tr...\n      PUSH 0\t\t\t \n      DUP4 \t\t\tntract\\n  \n      ADD \t\t\to contract\\n      \n      DUP5 \t\t\tom use\n      PUSH [tag] 154\t\t\t 0\");\\n        \\n        // Tr...\n      JUMP \t\t\t 0\");\\n        \\n        // Tr...\n    tag 203\t\t\t 0\");\\n        \\n        // Tr...\n      JUMPDEST \t\t\t 0\");\\n        \\n        // Tr...\n      SWAP3 \t\t\tount The amount of tokenB to d...\n      SWAP2 \t\t\tount The amount of tokenB to d...\n      POP \t\t\tount The amount of tokenB to d...\n      POP \t\t\tount The amount of tokenB to d...\n      JUMP \t\t\tount The amount of tokenB to d...\n    tag 155\t\t\t         IERC20(tokenB).transf...\n      JUMPDEST \t\t\t         IERC20(tokenB).transf...\n      PUSH [tag] 205\t\t\t            \"TokenB tran\n      DUP2 \t\t\tB tra\n      PUSH [tag] 153\t\t\t            \"TokenB tran\n      JUMP \t\t\t            \"TokenB tran\n    tag 205\t\t\t            \"TokenB tran\n      JUMPDEST \t\t\t            \"TokenB tran\n      DUP2 \t\t\tount)\n      EQ \t\t\t amount),\\n            \"TokenB...\n      PUSH [tag] 206\t\t\tess(this), amount),\\n         ...\n      JUMPI \t\t\tess(this), amount),\\n         ...\n      PUSH 0\t\t\t \n      PUSH 0\t\t\t\\n\n      REVERT \t\t\tfailed\"\\n    \n    tag 206\t\t\tess(this), amount),\\n         ...\n      JUMPDEST \t\t\tess(this), amount),\\n         ...\n      POP \t\t\t         IERC20(tokenB).transf...\n      JUMP \t\t\t         IERC20(tokenB).transf...\n    tag 156\t\t\t \\n        depositedBalance[ms...\n      JUMPDEST \t\t\t \\n        depositedBalance[ms...\n      PUSH 0\t\t\tnt;\\n \n      DUP2 \t\t\t      \n      CALLDATALOAD \t\t\td += amount;\\n       \n      SWAP1 \t\t\tlDeposited += amount;\\n       \n      POP \t\t\tlDeposited += amount;\\n       \n      PUSH [tag] 208\t\t\t emit Deposited(msg.sender, am...\n      DUP2 \t\t\t amou\n      PUSH [tag] 155\t\t\t emit Deposited(msg.sender, am...\n      JUMP \t\t\t emit Deposited(msg.sender, am...\n    tag 208\t\t\t emit Deposited(msg.sender, am...\n      JUMPDEST \t\t\t emit Deposited(msg.sender, am...\n      SWAP3 \t\t\t \\n        depositedBalance[ms...\n      SWAP2 \t\t\t \\n        depositedBalance[ms...\n      POP \t\t\t \\n        depositedBalance[ms...\n      POP \t\t\t \\n        depositedBalance[ms...\n      JUMP \t\t\t \\n        depositedBalance[ms...\n    tag 30\t\t\t  \\n    /**\\n     * @dev Stake...\n      JUMPDEST \t\t\t  \\n    /**\\n     * @dev Stake...\n      PUSH 0\t\t\t* @par\n      PUSH 20\t\t\t  \n      DUP3 \t\t\tto stake\\n\n      DUP5 \t\t\tf token\n      SUB \t\t\tnt of tokenB to stake\\n \n      SLT \t\t\tamount of tokenB to stake\\n   ...\n      ISZERO \t\t\the amount of tokenB to stake\\n...\n      PUSH [tag] 210\t\t\the amount of tokenB to stake\\n...\n      JUMPI \t\t\the amount of tokenB to stake\\n...\n      PUSH [tag] 211\t\t\t   function stake(uint256 amou...\n      PUSH [tag] 149\t\t\t   function stake(uint256 amou...\n      JUMP \t\t\t   function stake(uint256 amou...\n    tag 211\t\t\t   function stake(uint256 amou...\n      JUMPDEST \t\t\t   function stake(uint256 amou...\n    tag 210\t\t\the amount of tokenB to stake\\n...\n      JUMPDEST \t\t\the amount of tokenB to stake\\n...\n      PUSH 0\t\t\tT\n      PUSH [tag] 212\t\t\t to contract\\n        require(...\n      DUP5 \t\t\tC20(tok\n      DUP3 \t\t\t      \n      DUP6 \t\t\tire(\\n    \n      ADD \t\t\trequire(\\n            I\n      PUSH [tag] 156\t\t\t to contract\\n        require(...\n      JUMP \t\t\t to contract\\n        require(...\n    tag 212\t\t\t to contract\\n        require(...\n      JUMPDEST \t\t\t to contract\\n        require(...\n      SWAP2 \t\t\t from user to contract\\n      ...\n      POP \t\t\t from user to contract\\n      ...\n      POP \t\t\than 0\");\\n        \\n        //...\n      SWAP3 \t\t\t  \\n    /**\\n     * @dev Stake...\n      SWAP2 \t\t\t  \\n    /**\\n     * @dev Stake...\n      POP \t\t\t  \\n    /**\\n     * @dev Stake...\n      POP \t\t\t  \\n    /**\\n     * @dev Stake...\n      JUMP \t\t\t  \\n    /**\\n     * @dev Stake...\n    tag 157\t\t\tnder, address(this), amount),\\...\n      JUMPDEST \t\t\tnder, address(this), amount),\\...\n      PUSH 0\t\t\t  \\n        \n      DUP3 \t\t\tr] += \n      DUP3 \t\t\tsen\n      MSTORE \t\t\tce[msg.sender] += a\n      PUSH 20\t\t\tunt;\n      DUP3 \t\t\t= a\n      ADD \t\t\ted += amount;\\n\n      SWAP1 \t\t\t      totalStaked += amount;\\n\n      POP \t\t\t      totalStaked += amount;\\n\n      SWAP3 \t\t\tnder, address(this), amount),\\...\n      SWAP2 \t\t\tnder, address(this), amount),\\...\n      POP \t\t\tnder, address(this), amount),\\...\n      POP \t\t\tnder, address(this), amount),\\...\n      JUMP \t\t\tnder, address(this), amount),\\...\n    tag 158\t\t\t     emit Staked(msg.sender, a...\n      JUMPDEST \t\t\t     emit Staked(msg.sender, a...\n      PUSH 4D757374207769746864726177206D6F7265207468616E203000000000000000\t\t\t */\\n    function withdraw(u\n      PUSH 0\t\t\t \n      DUP3 \t\t\tithdra\n      ADD \t\t\tto withdraw\\n  \n      MSTORE \t\t\tamount to withdraw\\n     */\\n ...\n      POP \t\t\t     emit Staked(msg.sender, a...\n      JUMP \t\t\t     emit Staked(msg.sender, a...\n    tag 159\t\t\t external {\\n        require(a...\n      JUMPDEST \t\t\t external {\\n        require(a...\n      PUSH 0\t\t\td b\n      PUSH [tag] 216\t\t\t\\n        stakedBalance[msg.se...\n      PUSH 19\t\t\td \n      DUP4 \t\t\tSta\n      PUSH [tag] 157\t\t\t\\n        stakedBalance[msg.se...\n      JUMP \t\t\t\\n        stakedBalance[msg.se...\n    tag 216\t\t\t\\n        stakedBalance[msg.se...\n      JUMPDEST \t\t\t\\n        stakedBalance[msg.se...\n      SWAP2 \t\t\t       \\n        stakedBalance...\n      POP \t\t\t       \\n        stakedBalance...\n      PUSH [tag] 217\t\t\t\\n        \\n        // Transfe...\n      DUP3 \t\t\t   \n      PUSH [tag] 158\t\t\t\\n        \\n        // Transfe...\n      JUMP \t\t\t\\n        \\n        // Transfe...\n    tag 217\t\t\t\\n        \\n        // Transfe...\n      JUMPDEST \t\t\t\\n        \\n        // Transfe...\n      PUSH 20\t\t\tsg\n      DUP3 \t\t\tfer\n      ADD \t\t\transfer(msg.\n      SWAP1 \t\t\tkenB).transfer(msg.\n      POP \t\t\tkenB).transfer(msg.\n      SWAP2 \t\t\t external {\\n        require(a...\n      SWAP1 \t\t\t external {\\n        require(a...\n      POP \t\t\t external {\\n        require(a...\n      JUMP \t\t\t external {\\n        require(a...\n    tag 70\t\t\tnt),\\n            \"TokenB tran...\n      JUMPDEST \t\t\tnt),\\n            \"TokenB tran...\n      PUSH 0\t\t\tatio\n      PUSH 20\t\t\tei\n      DUP3 \t\t\tenA and r\n      ADD \t\t\t tokenA and receiv\n      SWAP1 \t\t\ter sends tokenA and receiv\n      POP \t\t\ter sends tokenA and receiv\n      DUP2 \t\t\tam amount\n      DUP2 \t\t\t* @p\n      SUB \t\t\t    * @param amount \n      PUSH 0\t\t\tt\n      DUP4 \t\t\tted liqui\n      ADD \t\t\tposited liquidity\n      MSTORE \t\t\tfrom deposited liquidity\\n    ...\n      PUSH [tag] 219\t\t\tns to swap\\n     */\\n    funct...\n      DUP2 \t\t\t\\n   \n      PUSH [tag] 159\t\t\tns to swap\\n     */\\n    funct...\n      JUMP \t\t\tns to swap\\n     */\\n    funct...\n    tag 219\t\t\tns to swap\\n     */\\n    funct...\n      JUMPDEST \t\t\tns to swap\\n     */\\n    funct...\n      SWAP1 \t\t\t of tokens to swap\\n     */\\n ...\n      POP \t\t\t of tokens to swap\\n     */\\n ...\n      SWAP2 \t\t\tnt),\\n            \"TokenB tran...\n      SWAP1 \t\t\tnt),\\n            \"TokenB tran...\n      POP \t\t\tnt),\\n            \"TokenB tran...\n      JUMP \t\t\tnt),\\n            \"TokenB tran...\n    tag 160\t\t\tcontract has enough tokenB in ...\n      JUMPDEST \t\t\tcontract has enough tokenB in ...\n      PUSH 496E73756666696369656E74207374616B65642062616C616E63650000000000\t\t\t Transfer tokenA from user to\n      PUSH 0\t\t\t \n      DUP3 \t\t\t \\n    \n      ADD \t\t\t     \\n        \n      MSTORE \t\t\t\");\\n        \\n        // Tran...\n      POP \t\t\tcontract has enough tokenB in ...\n      JUMP \t\t\tcontract has enough tokenB in ...\n    tag 161\t\t\t    require(\\n            IERC...\n      JUMPDEST \t\t\t    require(\\n            IERC...\n      PUSH 0\t\t\t   \n      PUSH [tag] 222\t\t\ter tokenB from contract to use...\n      PUSH 1B\t\t\tC2\n      DUP4 \t\t\t  I\n      PUSH [tag] 157\t\t\ter tokenB from contract to use...\n      JUMP \t\t\ter tokenB from contract to use...\n    tag 222\t\t\ter tokenB from contract to use...\n      JUMPDEST \t\t\ter tokenB from contract to use...\n      SWAP2 \t\t\t Transfer tokenB from contract...\n      POP \t\t\t Transfer tokenB from contract...\n      PUSH [tag] 223\t\t\ttransfer(msg.sender, amount),\\...\n      DUP3 \t\t\t   \n      PUSH [tag] 160\t\t\ttransfer(msg.sender, amount),\\...\n      JUMP \t\t\ttransfer(msg.sender, amount),\\...\n    tag 223\t\t\ttransfer(msg.sender, amount),\\...\n      JUMPDEST \t\t\ttransfer(msg.sender, amount),\\...\n      PUSH 20\t\t\ted\n      DUP3 \t\t\tpos\n      ADD \t\t\tl deposited \n      SWAP1 \t\t\tce total deposited \n      POP \t\t\tce total deposited \n      SWAP2 \t\t\t    require(\\n            IERC...\n      SWAP1 \t\t\t    require(\\n            IERC...\n      POP \t\t\t    require(\\n            IERC...\n      JUMP \t\t\t    require(\\n            IERC...\n    tag 73\t\t\t was sent out\\n        totalDe...\n      JUMPDEST \t\t\t was sent out\\n        totalDe...\n      PUSH 0\t\t\tuser\n      PUSH 20\t\t\t c\n      DUP3 \t\t\t address \n      ADD \t\t\t The address to ch\n      SWAP1 \t\t\tram user The address to ch\n      POP \t\t\tram user The address to ch\n      DUP2 \t\t\t    */\\n  \n      DUP2 \t\t\tance\n      SUB \t\t\t balance\\n     */\\n   \n      PUSH 0\t\t\tk\n      DUP4 \t\t\te staked \n      ADD \t\t\tn The staked toke\n      MSTORE \t\t\t @return The staked tokenB bal...\n      PUSH [tag] 225\t\t\tdBalance(address user) externa...\n      DUP2 \t\t\tt th\n      PUSH [tag] 161\t\t\tdBalance(address user) externa...\n      JUMP \t\t\tdBalance(address user) externa...\n    tag 225\t\t\tdBalance(address user) externa...\n      JUMPDEST \t\t\tdBalance(address user) externa...\n      SWAP1 \t\t\tgetStakedBalance(address user)...\n      POP \t\t\tgetStakedBalance(address user)...\n      SWAP2 \t\t\t was sent out\\n        totalDe...\n      SWAP1 \t\t\t was sent out\\n        totalDe...\n      POP \t\t\t was sent out\\n        totalDe...\n      JUMP \t\t\t was sent out\\n        totalDe...\n    tag 162\t\t\tlance of a user\\n     * @param...\n      JUMPDEST \t\t\tlance of a user\\n     * @param...\n      PUSH 4E487B7100000000000000000000000000000000000000000000000000000000\t\t\to check\\n     * @return The de...\n      PUSH 0\t\t\ts\n      MSTORE \t\t\t address to check\\n     * @ret...\n      PUSH 11\t\t\tess \n      PUSH 4\t\t\td\n      MSTORE \t\t\tlance(address u\n      PUSH 24\t\t\tretu\n      PUSH 0\t\t\te\n      REVERT \t\t\trnal view retur\n    tag 75\t\t\t {\\n        return depositedBa...\n      JUMPDEST \t\t\t {\\n        return depositedBa...\n      PUSH 0\t\t\t;\\n  \n      PUSH [tag] 228\t\t\t\\n     * @dev Get the\n      DUP3 \t\t\th\n      PUSH [tag] 153\t\t\t\\n     * @dev Get the\n      JUMP \t\t\t\\n     * @dev Get the\n    tag 228\t\t\t\\n     * @dev Get the\n      JUMPDEST \t\t\t\\n     * @dev Get the\n      SWAP2 \t\t\t  /**\\n     * @dev Get the\n      POP \t\t\t  /**\\n     * @dev Get the\n      PUSH [tag] 229\t\t\tken balance\\n     * @\n      DUP4 \t\t\t \n      PUSH [tag] 153\t\t\tken balance\\n     * @\n      JUMP \t\t\tken balance\\n     * @\n    tag 229\t\t\tken balance\\n     * @\n      JUMPDEST \t\t\tken balance\\n     * @\n      SWAP3 \t\t\t's token balance\\n     * @\n      POP \t\t\t's token balance\\n     * @\n      DUP3 \t\t\td\n      DUP3 \t\t\t \n      SUB \t\t\token addr\n      SWAP1 \t\t\ten The token addr\n      POP \t\t\ten The token addr\n      DUP2 \t\t\te\n      DUP2 \t\t\t  * \n      GT \t\t\t     * @ret\n      ISZERO \t\t\tck\\n     * @return The token b...\n      PUSH [tag] 230\t\t\tck\\n     * @return The token b...\n      JUMPI \t\t\tck\\n     * @return The token b...\n      PUSH [tag] 231\t\t\t The token balance\n      PUSH [tag] 162\t\t\t The token balance\n      JUMP \t\t\t The token balance\n    tag 231\t\t\t The token balance\n      JUMPDEST \t\t\t The token balance\n    tag 230\t\t\tck\\n     * @return The token b...\n      JUMPDEST \t\t\tck\\n     * @return The token b...\n      SWAP3 \t\t\t {\\n        return depositedBa...\n      SWAP2 \t\t\t {\\n        return depositedBa...\n      POP \t\t\t {\\n        return depositedBa...\n      POP \t\t\t {\\n        return depositedBa...\n      JUMP \t\t\t {\\n        return depositedBa...\n    tag 78\t\t\tnction getTokenBalance(address...\n      JUMPDEST \t\t\tnction getTokenBalance(address...\n      PUSH 0\t\t\tis))\n      PUSH 40\t\t\t\n      DUP3 \t\t\t\n      ADD \t\t\t\n      SWAP1 \t\t\t\n      POP \t\t\t\n      PUSH [tag] 233\t\t\t\n      PUSH 0\t\t\t\n      DUP4 \t\t\t\n      ADD \t\t\t\n      DUP6 \t\t\t\n      PUSH [tag] 147\t\t\t\n      JUMP \t\t\t\n    tag 233\t\t\t\n      JUMPDEST \t\t\t\n      PUSH [tag] 234\t\t\t\n      PUSH 20\t\t\t\n      DUP4 \t\t\t\n      ADD \t\t\t\n      DUP5 \t\t\t\n      PUSH [tag] 154\t\t\t\n      JUMP \t\t\t\n    tag 234\t\t\t\n      JUMPDEST \t\t\t\n      SWAP4 \t\t\tnction getTokenBalance(address...\n      SWAP3 \t\t\tnction getTokenBalance(address...\n      POP \t\t\tnction getTokenBalance(address...\n      POP \t\t\tnction getTokenBalance(address...\n      POP \t\t\tnction getTokenBalance(address...\n      JUMP \t\t\tnction getTokenBalance(address...\n    tag 163\t\t\t\n      JUMPDEST \t\t\t\n      PUSH 0\t\t\t\n      DUP2 \t\t\t\n      ISZERO \t\t\t\n      ISZERO \t\t\t\n      SWAP1 \t\t\t\n      POP \t\t\t\n      SWAP2 \t\t\t\n      SWAP1 \t\t\t\n      POP \t\t\t\n      JUMP \t\t\t\n    tag 164\t\t\t\n      JUMPDEST \t\t\t\n      PUSH [tag] 237\t\t\t\n      DUP2 \t\t\t\n      PUSH [tag] 163\t\t\t\n      JUMP \t\t\t\n    tag 237\t\t\t\n      JUMPDEST \t\t\t\n      DUP2 \t\t\t\n      EQ \t\t\t\n      PUSH [tag] 238\t\t\t\n      JUMPI \t\t\t\n      PUSH 0\t\t\t\n      PUSH 0\t\t\t\n      REVERT \t\t\t\n    tag 238\t\t\t\n      JUMPDEST \t\t\t\n      POP \t\t\t\n      JUMP \t\t\t\n    tag 165\t\t\t\n      JUMPDEST \t\t\t\n      PUSH 0\t\t\t\n      DUP2 \t\t\t\n      MLOAD \t\t\t\n      SWAP1 \t\t\t\n      POP \t\t\t\n      PUSH [tag] 240\t\t\t\n      DUP2 \t\t\t\n      PUSH [tag] 164\t\t\t\n      JUMP \t\t\t\n    tag 240\t\t\t\n      JUMPDEST \t\t\t\n      SWAP3 \t\t\t\n      SWAP2 \t\t\t\n      POP \t\t\t\n      POP \t\t\t\n      JUMP \t\t\t\n    tag 82\t\t\t\n      JUMPDEST \t\t\t\n      PUSH 0\t\t\t\n      PUSH 20\t\t\t\n      DUP3 \t\t\t\n      DUP5 \t\t\t\n      SUB \t\t\t\n      SLT \t\t\t\n      ISZERO \t\t\t\n      PUSH [tag] 242\t\t\t\n      JUMPI \t\t\t\n      PUSH [tag] 243\t\t\t\n      PUSH [tag] 149\t\t\t\n      JUMP \t\t\t\n    tag 243\t\t\t\n      JUMPDEST \t\t\t\n    tag 242\t\t\t\n      JUMPDEST \t\t\t\n      PUSH 0\t\t\t\n      PUSH [tag] 244\t\t\t\n      DUP5 \t\t\t\n      DUP3 \t\t\t\n      DUP6 \t\t\t\n      ADD \t\t\t\n      PUSH [tag] 165\t\t\t\n      JUMP \t\t\t\n    tag 244\t\t\t\n      JUMPDEST \t\t\t\n      SWAP2 \t\t\t\n      POP \t\t\t\n      POP \t\t\t\n      SWAP3 \t\t\t\n      SWAP2 \t\t\t\n      POP \t\t\t\n      POP \t\t\t\n      JUMP \t\t\t\n    tag 166\t\t\t\n      JUMPDEST \t\t\t\n      PUSH 546F6B656E42207472616E73666572206661696C656400000000000000000000\t\t\t\n      PUSH 0\t\t\t\n      DUP3 \t\t\t\n      ADD \t\t\t\n      MSTORE \t\t\t\n      POP \t\t\t\n      JUMP \t\t\t\n    tag 167\t\t\t\n      JUMPDEST \t\t\t\n      PUSH 0\t\t\t\n      PUSH [tag] 247\t\t\t\n      PUSH 16\t\t\t\n      DUP4 \t\t\t\n      PUSH [tag] 157\t\t\t\n      JUMP \t\t\t\n    tag 247\t\t\t\n      JUMPDEST \t\t\t\n      SWAP2 \t\t\t\n      POP \t\t\t\n      PUSH [tag] 248\t\t\t\n      DUP3 \t\t\t\n      PUSH [tag] 166\t\t\t\n      JUMP \t\t\t\n    tag 248\t\t\t\n      JUMPDEST \t\t\t\n      PUSH 20\t\t\t\n      DUP3 \t\t\t\n      ADD \t\t\t\n      SWAP1 \t\t\t\n      POP \t\t\t\n      SWAP2 \t\t\t\n      SWAP1 \t\t\t\n      POP \t\t\t\n      JUMP \t\t\t\n    tag 85\t\t\t\n      JUMPDEST \t\t\t\n      PUSH 0\t\t\t\n      PUSH 20\t\t\t\n      DUP3 \t\t\t\n      ADD \t\t\t\n      SWAP1 \t\t\t\n      POP \t\t\t\n      DUP2 \t\t\t\n      DUP2 \t\t\t\n      SUB \t\t\t\n      PUSH 0\t\t\t\n      DUP4 \t\t\t\n      ADD \t\t\t\n      MSTORE \t\t\t\n      PUSH [tag] 250\t\t\t\n      DUP2 \t\t\t\n      PUSH [tag] 167\t\t\t\n      JUMP \t\t\t\n    tag 250\t\t\t\n      JUMPDEST \t\t\t\n      SWAP1 \t\t\t\n      POP \t\t\t\n      SWAP2 \t\t\t\n      SWAP1 \t\t\t\n      POP \t\t\t\n      JUMP \t\t\t\n    tag 168\t\t\t\n      JUMPDEST \t\t\t\n      PUSH 0\t\t\t\n      DUP2 \t\t\t\n      MLOAD \t\t\t\n      SWAP1 \t\t\t\n      POP \t\t\t\n      PUSH [tag] 252\t\t\t\n      DUP2 \t\t\t\n      PUSH [tag] 155\t\t\t\n      JUMP \t\t\t\n    tag 252\t\t\t\n      JUMPDEST \t\t\t\n      SWAP3 \t\t\t\n      SWAP2 \t\t\t\n      POP \t\t\t\n      POP \t\t\t\n      JUMP \t\t\t\n    tag 93\t\t\t\n      JUMPDEST \t\t\t\n      PUSH 0\t\t\t\n      PUSH 20\t\t\t\n      DUP3 \t\t\t\n      DUP5 \t\t\t\n      SUB \t\t\t\n      SLT \t\t\t\n      ISZERO \t\t\t\n      PUSH [tag] 254\t\t\t\n      JUMPI \t\t\t\n      PUSH [tag] 255\t\t\t\n      PUSH [tag] 149\t\t\t\n      JUMP \t\t\t\n    tag 255\t\t\t\n      JUMPDEST \t\t\t\n    tag 254\t\t\t\n      JUMPDEST \t\t\t\n      PUSH 0\t\t\t\n      PUSH [tag] 256\t\t\t\n      DUP5 \t\t\t\n      DUP3 \t\t\t\n      DUP6 \t\t\t\n      ADD \t\t\t\n      PUSH [tag] 168\t\t\t\n      JUMP \t\t\t\n    tag 256\t\t\t\n      JUMPDEST \t\t\t\n      SWAP2 \t\t\t\n      POP \t\t\t\n      POP \t\t\t\n      SWAP3 \t\t\t\n      SWAP2 \t\t\t\n      POP \t\t\t\n      POP \t\t\t\n      JUMP \t\t\t\n    tag 169\t\t\t\n      JUMPDEST \t\t\t\n      PUSH 4D7573742073776170206D6F7265207468616E20300000000000000000000000\t\t\t\n      PUSH 0\t\t\t\n      DUP3 \t\t\t\n      ADD \t\t\t\n      MSTORE \t\t\t\n      POP \t\t\t\n      JUMP \t\t\t\n    tag 170\t\t\t\n      JUMPDEST \t\t\t\n      PUSH 0\t\t\t\n      PUSH [tag] 259\t\t\t\n      PUSH 15\t\t\t\n      DUP4 \t\t\t\n      PUSH [tag] 157\t\t\t\n      JUMP \t\t\t\n    tag 259\t\t\t\n      JUMPDEST \t\t\t\n      SWAP2 \t\t\t\n      POP \t\t\t\n      PUSH [tag] 260\t\t\t\n      DUP3 \t\t\t\n      PUSH [tag] 169\t\t\t\n      JUMP \t\t\t\n    tag 260\t\t\t\n      JUMPDEST \t\t\t\n      PUSH 20\t\t\t\n      DUP3 \t\t\t\n      ADD \t\t\t\n      SWAP1 \t\t\t\n      POP \t\t\t\n      SWAP2 \t\t\t\n      SWAP1 \t\t\t\n      POP \t\t\t\n      JUMP \t\t\t\n    tag 97\t\t\t\n      JUMPDEST \t\t\t\n      PUSH 0\t\t\t\n      PUSH 20\t\t\t\n      DUP3 \t\t\t\n      ADD \t\t\t\n      SWAP1 \t\t\t\n      POP \t\t\t\n      DUP2 \t\t\t\n      DUP2 \t\t\t\n      SUB \t\t\t\n      PUSH 0\t\t\t\n      DUP4 \t\t\t\n      ADD \t\t\t\n      MSTORE \t\t\t\n      PUSH [tag] 262\t\t\t\n      DUP2 \t\t\t\n      PUSH [tag] 170\t\t\t\n      JUMP \t\t\t\n    tag 262\t\t\t\n      JUMPDEST \t\t\t\n      SWAP1 \t\t\t\n      POP \t\t\t\n      SWAP2 \t\t\t\n      SWAP1 \t\t\t\n      POP \t\t\t\n      JUMP \t\t\t\n    tag 171\t\t\t\n      JUMPDEST \t\t\t\n      PUSH 496E73756666696369656E7420746F6B656E42206C6971756964697479000000\t\t\t\n      PUSH 0\t\t\t\n      DUP3 \t\t\t\n      ADD \t\t\t\n      MSTORE \t\t\t\n      POP \t\t\t\n      JUMP \t\t\t\n    tag 172\t\t\t\n      JUMPDEST \t\t\t\n      PUSH 0\t\t\t\n      PUSH [tag] 265\t\t\t\n      PUSH 1D\t\t\t\n      DUP4 \t\t\t\n      PUSH [tag] 157\t\t\t\n      JUMP \t\t\t\n    tag 265\t\t\t\n      JUMPDEST \t\t\t\n      SWAP2 \t\t\t\n      POP \t\t\t\n      PUSH [tag] 266\t\t\t\n      DUP3 \t\t\t\n      PUSH [tag] 171\t\t\t\n      JUMP \t\t\t\n    tag 266\t\t\t\n      JUMPDEST \t\t\t\n      PUSH 20\t\t\t\n      DUP3 \t\t\t\n      ADD \t\t\t\n      SWAP1 \t\t\t\n      POP \t\t\t\n      SWAP2 \t\t\t\n      SWAP1 \t\t\t\n      POP \t\t\t\n      JUMP \t\t\t\n    tag 100\t\t\t\n      JUMPDEST \t\t\t\n      PUSH 0\t\t\t\n      PUSH 20\t\t\t\n      DUP3 \t\t\t\n      ADD \t\t\t\n      SWAP1 \t\t\t\n      POP \t\t\t\n      DUP2 \t\t\t\n      DUP2 \t\t\t\n      SUB \t\t\t\n      PUSH 0\t\t\t\n      DUP4 \t\t\t\n      ADD \t\t\t\n      MSTORE \t\t\t\n      PUSH [tag] 268\t\t\t\n      DUP2 \t\t\t\n      PUSH [tag] 172\t\t\t\n      JUMP \t\t\t\n    tag 268\t\t\t\n      JUMPDEST \t\t\t\n      SWAP1 \t\t\t\n      POP \t\t\t\n      SWAP2 \t\t\t\n      SWAP1 \t\t\t\n      POP \t\t\t\n      JUMP \t\t\t\n    tag 102\t\t\t\n      JUMPDEST \t\t\t\n      PUSH 0\t\t\t\n      PUSH 60\t\t\t\n      DUP3 \t\t\t\n      ADD \t\t\t\n      SWAP1 \t\t\t\n      POP \t\t\t\n      PUSH [tag] 270\t\t\t\n      PUSH 0\t\t\t\n      DUP4 \t\t\t\n      ADD \t\t\t\n      DUP7 \t\t\t\n      PUSH [tag] 147\t\t\t\n      JUMP \t\t\t\n    tag 270\t\t\t\n      JUMPDEST \t\t\t\n      PUSH [tag] 271\t\t\t\n      PUSH 20\t\t\t\n      DUP4 \t\t\t\n      ADD \t\t\t\n      DUP6 \t\t\t\n      PUSH [tag] 147\t\t\t\n      JUMP \t\t\t\n    tag 271\t\t\t\n      JUMPDEST \t\t\t\n      PUSH [tag] 272\t\t\t\n      PUSH 40\t\t\t\n      DUP4 \t\t\t\n      ADD \t\t\t\n      DUP5 \t\t\t\n      PUSH [tag] 154\t\t\t\n      JUMP \t\t\t\n    tag 272\t\t\t\n      JUMPDEST \t\t\t\n      SWAP5 \t\t\t\n      SWAP4 \t\t\t\n      POP \t\t\t\n      POP \t\t\t\n      POP \t\t\t\n      POP \t\t\t\n      JUMP \t\t\t\n    tag 173\t\t\t\n      JUMPDEST \t\t\t\n      PUSH 546F6B656E41207472616E73666572206661696C656400000000000000000000\t\t\t\n      PUSH 0\t\t\t\n      DUP3 \t\t\t\n      ADD \t\t\t\n      MSTORE \t\t\t\n      POP \t\t\t\n      JUMP \t\t\t\n    tag 174\t\t\t\n      JUMPDEST \t\t\t\n      PUSH 0\t\t\t\n      PUSH [tag] 275\t\t\t\n      PUSH 16\t\t\t\n      DUP4 \t\t\t\n      PUSH [tag] 157\t\t\t\n      JUMP \t\t\t\n    tag 275\t\t\t\n      JUMPDEST \t\t\t\n      SWAP2 \t\t\t\n      POP \t\t\t\n      PUSH [tag] 276\t\t\t\n      DUP3 \t\t\t\n      PUSH [tag] 173\t\t\t\n      JUMP \t\t\t\n    tag 276\t\t\t\n      JUMPDEST \t\t\t\n      PUSH 20\t\t\t\n      DUP3 \t\t\t\n      ADD \t\t\t\n      SWAP1 \t\t\t\n      POP \t\t\t\n      SWAP2 \t\t\t\n      SWAP1 \t\t\t\n      POP \t\t\t\n      JUMP \t\t\t\n    tag 108\t\t\t\n      JUMPDEST \t\t\t\n      PUSH 0\t\t\t\n      PUSH 20\t\t\t\n      DUP3 \t\t\t\n      ADD \t\t\t\n      SWAP1 \t\t\t\n      POP \t\t\t\n      DUP2 \t\t\t\n      DUP2 \t\t\t\n      SUB \t\t\t\n      PUSH 0\t\t\t\n      DUP4 \t\t\t\n      ADD \t\t\t\n      MSTORE \t\t\t\n      PUSH [tag] 278\t\t\t\n      DUP2 \t\t\t\n      PUSH [tag] 174\t\t\t\n      JUMP \t\t\t\n    tag 278\t\t\t\n      JUMPDEST \t\t\t\n      SWAP1 \t\t\t\n      POP \t\t\t\n      SWAP2 \t\t\t\n      SWAP1 \t\t\t\n      POP \t\t\t\n      JUMP \t\t\t\n    tag 117\t\t\t\n      JUMPDEST \t\t\t\n      PUSH 0\t\t\t\n      PUSH 40\t\t\t\n      DUP3 \t\t\t\n      ADD \t\t\t\n      SWAP1 \t\t\t\n      POP \t\t\t\n      PUSH [tag] 280\t\t\t\n      PUSH 0\t\t\t\n      DUP4 \t\t\t\n      ADD \t\t\t\n      DUP6 \t\t\t\n      PUSH [tag] 154\t\t\t\n      JUMP \t\t\t\n    tag 280\t\t\t\n      JUMPDEST \t\t\t\n      PUSH [tag] 281\t\t\t\n      PUSH 20\t\t\t\n      DUP4 \t\t\t\n      ADD \t\t\t\n      DUP5 \t\t\t\n      PUSH [tag] 154\t\t\t\n      JUMP \t\t\t\n    tag 281\t\t\t\n      JUMPDEST \t\t\t\n      SWAP4 \t\t\t\n      SWAP3 \t\t\t\n      POP \t\t\t\n      POP \t\t\t\n      POP \t\t\t\n      JUMP \t\t\t\n    tag 175\t\t\t\n      JUMPDEST \t\t\t\n      PUSH 4D757374207374616B65206D6F7265207468616E203000000000000000000000\t\t\t\n      PUSH 0\t\t\t\n      DUP3 \t\t\t\n      ADD \t\t\t\n      MSTORE \t\t\t\n      POP \t\t\t\n      JUMP \t\t\t\n    tag 176\t\t\t\n      JUMPDEST \t\t\t\n      PUSH 0\t\t\t\n      PUSH [tag] 284\t\t\t\n      PUSH 16\t\t\t\n      DUP4 \t\t\t\n      PUSH [tag] 157\t\t\t\n      JUMP \t\t\t\n    tag 284\t\t\t\n      JUMPDEST \t\t\t\n      SWAP2 \t\t\t\n      POP \t\t\t\n      PUSH [tag] 285\t\t\t\n      DUP3 \t\t\t\n      PUSH [tag] 175\t\t\t\n      JUMP \t\t\t\n    tag 285\t\t\t\n      JUMPDEST \t\t\t\n      PUSH 20\t\t\t\n      DUP3 \t\t\t\n      ADD \t\t\t\n      SWAP1 \t\t\t\n      POP \t\t\t\n      SWAP2 \t\t\t\n      SWAP1 \t\t\t\n      POP \t\t\t\n      JUMP \t\t\t\n    tag 121\t\t\t\n      JUMPDEST \t\t\t\n      PUSH 0\t\t\t\n      PUSH 20\t\t\t\n      DUP3 \t\t\t\n      ADD \t\t\t\n      SWAP1 \t\t\t\n      POP \t\t\t\n      DUP2 \t\t\t\n      DUP2 \t\t\t\n      SUB \t\t\t\n      PUSH 0\t\t\t\n      DUP4 \t\t\t\n      ADD \t\t\t\n      MSTORE \t\t\t\n      PUSH [tag] 287\t\t\t\n      DUP2 \t\t\t\n      PUSH [tag] 176\t\t\t\n      JUMP \t\t\t\n    tag 287\t\t\t\n      JUMPDEST \t\t\t\n      SWAP1 \t\t\t\n      POP \t\t\t\n      SWAP2 \t\t\t\n      SWAP1 \t\t\t\n      POP \t\t\t\n      JUMP \t\t\t\n    tag 129\t\t\t\n      JUMPDEST \t\t\t\n      PUSH 0\t\t\t\n      PUSH [tag] 289\t\t\t\n      DUP3 \t\t\t\n      PUSH [tag] 153\t\t\t\n      JUMP \t\t\t\n    tag 289\t\t\t\n      JUMPDEST \t\t\t\n      SWAP2 \t\t\t\n      POP \t\t\t\n      PUSH [tag] 290\t\t\t\n      DUP4 \t\t\t\n      PUSH [tag] 153\t\t\t\n      JUMP \t\t\t\n    tag 290\t\t\t\n      JUMPDEST \t\t\t\n      SWAP3 \t\t\t\n      POP \t\t\t\n      DUP3 \t\t\t\n      DUP3 \t\t\t\n      ADD \t\t\t\n      SWAP1 \t\t\t\n      POP \t\t\t\n      DUP1 \t\t\t\n      DUP3 \t\t\t\n      GT \t\t\t\n      ISZERO \t\t\t\n      PUSH [tag] 291\t\t\t\n      JUMPI \t\t\t\n      PUSH [tag] 292\t\t\t\n      PUSH [tag] 162\t\t\t\n      JUMP \t\t\t\n    tag 292\t\t\t\n      JUMPDEST \t\t\t\n    tag 291\t\t\t\n      JUMPDEST \t\t\t\n      SWAP3 \t\t\t\n      SWAP2 \t\t\t\n      POP \t\t\t\n      POP \t\t\t\n      JUMP \t\t\t\n    tag 177\t\t\t\n      JUMPDEST \t\t\t\n      PUSH 4D757374206465706F736974206D6F7265207468616E20300000000000000000\t\t\t\n      PUSH 0\t\t\t\n      DUP3 \t\t\t\n      ADD \t\t\t\n      MSTORE \t\t\t\n      POP \t\t\t\n      JUMP \t\t\t\n    tag 178\t\t\t\n      JUMPDEST \t\t\t\n      PUSH 0\t\t\t\n      PUSH [tag] 295\t\t\t\n      PUSH 18\t\t\t\n      DUP4 \t\t\t\n      PUSH [tag] 157\t\t\t\n      JUMP \t\t\t\n    tag 295\t\t\t\n      JUMPDEST \t\t\t\n      SWAP2 \t\t\t\n      POP \t\t\t\n      PUSH [tag] 296\t\t\t\n      DUP3 \t\t\t\n      PUSH [tag] 177\t\t\t\n      JUMP \t\t\t\n    tag 296\t\t\t\n      JUMPDEST \t\t\t\n      PUSH 20\t\t\t\n      DUP3 \t\t\t\n      ADD \t\t\t\n      SWAP1 \t\t\t\n      POP \t\t\t\n      SWAP2 \t\t\t\n      SWAP1 \t\t\t\n      POP \t\t\t\n      JUMP \t\t\t\n    tag 135\t\t\t\n      JUMPDEST \t\t\t\n      PUSH 0\t\t\t\n      PUSH 20\t\t\t\n      DUP3 \t\t\t\n      ADD \t\t\t\n      SWAP1 \t\t\t\n      POP \t\t\t\n      DUP2 \t\t\t\n      DUP2 \t\t\t\n      SUB \t\t\t\n      PUSH 0\t\t\t\n      DUP4 \t\t\t\n      ADD \t\t\t\n      MSTORE \t\t\t\n      PUSH [tag] 298\t\t\t\n      DUP2 \t\t\t\n      PUSH [tag] 178\t\t\t\n      JUMP \t\t\t\n    tag 298\t\t\t\n      JUMPDEST \t\t\t\n      SWAP1 \t\t\t\n      POP \t\t\t\n      SWAP2 \t\t\t\n      SWAP1 \t\t\t\n      POP \t\t\t\n      JUMP \t\t\t\n    .data\n"
}